{
  "contractName": "AMM",
  "abi": [
    {
      "inputs": [],
      "name": "getPoolInfo",
      "outputs": [
        {
          "internalType": "uint256",
          "name": "",
          "type": "uint256"
        },
        {
          "internalType": "uint256",
          "name": "",
          "type": "uint256"
        }
      ],
      "stateMutability": "view",
      "type": "function",
      "constant": true
    },
    {
      "inputs": [],
      "name": "getUserPoolBalance",
      "outputs": [
        {
          "internalType": "uint256",
          "name": "amountEth",
          "type": "uint256"
        },
        {
          "internalType": "uint256",
          "name": "amountTkb",
          "type": "uint256"
        }
      ],
      "stateMutability": "view",
      "type": "function",
      "constant": true
    },
    {
      "inputs": [
        {
          "internalType": "uint256",
          "name": "ethToken",
          "type": "uint256"
        }
      ],
      "name": "getAddPoolTkbRequirement",
      "outputs": [
        {
          "internalType": "uint256",
          "name": "reqTkbToken",
          "type": "uint256"
        }
      ],
      "stateMutability": "view",
      "type": "function",
      "constant": true
    },
    {
      "inputs": [
        {
          "internalType": "uint256",
          "name": "tkbToken",
          "type": "uint256"
        }
      ],
      "name": "getAddPoolEthRequirement",
      "outputs": [
        {
          "internalType": "uint256",
          "name": "reqEthToken",
          "type": "uint256"
        }
      ],
      "stateMutability": "view",
      "type": "function",
      "constant": true
    },
    {
      "inputs": [
        {
          "internalType": "address",
          "name": "tokenB",
          "type": "address"
        },
        {
          "internalType": "uint256",
          "name": "addEthToken",
          "type": "uint256"
        },
        {
          "internalType": "uint256",
          "name": "addTkbToken",
          "type": "uint256"
        }
      ],
      "name": "addLiquidity",
      "outputs": [],
      "stateMutability": "nonpayable",
      "type": "function"
    },
    {
      "inputs": [],
      "name": "getWithdrawToken",
      "outputs": [
        {
          "internalType": "uint256",
          "name": "withdrawEth",
          "type": "uint256"
        },
        {
          "internalType": "uint256",
          "name": "withdrawTkb",
          "type": "uint256"
        }
      ],
      "stateMutability": "view",
      "type": "function",
      "constant": true
    },
    {
      "inputs": [
        {
          "internalType": "uint256",
          "name": "_share",
          "type": "uint256"
        }
      ],
      "name": "withdraw",
      "outputs": [
        {
          "internalType": "uint256",
          "name": "withdrawEth",
          "type": "uint256"
        },
        {
          "internalType": "uint256",
          "name": "withdrawTkb",
          "type": "uint256"
        }
      ],
      "stateMutability": "nonpayable",
      "type": "function"
    },
    {
      "inputs": [
        {
          "internalType": "uint256",
          "name": "_amountEth",
          "type": "uint256"
        }
      ],
      "name": "getExactEthforTkB",
      "outputs": [
        {
          "internalType": "uint256",
          "name": "amountTkb",
          "type": "uint256"
        }
      ],
      "stateMutability": "view",
      "type": "function",
      "constant": true
    },
    {
      "inputs": [
        {
          "internalType": "uint256",
          "name": "_amountTkB",
          "type": "uint256"
        }
      ],
      "name": "getEthforExactTkB",
      "outputs": [
        {
          "internalType": "uint256",
          "name": "amountEth",
          "type": "uint256"
        }
      ],
      "stateMutability": "view",
      "type": "function",
      "constant": true
    },
    {
      "inputs": [
        {
          "internalType": "address",
          "name": "tokenB",
          "type": "address"
        },
        {
          "internalType": "uint256",
          "name": "_amountEth",
          "type": "uint256"
        }
      ],
      "name": "swapEthforTkB",
      "outputs": [
        {
          "internalType": "uint256",
          "name": "amountTkb",
          "type": "uint256"
        }
      ],
      "stateMutability": "nonpayable",
      "type": "function"
    },
    {
      "inputs": [
        {
          "internalType": "uint256",
          "name": "_amountTkb",
          "type": "uint256"
        }
      ],
      "name": "getExactTkbforEth",
      "outputs": [
        {
          "internalType": "uint256",
          "name": "amountEth",
          "type": "uint256"
        }
      ],
      "stateMutability": "view",
      "type": "function",
      "constant": true
    },
    {
      "inputs": [
        {
          "internalType": "uint256",
          "name": "_amountEth",
          "type": "uint256"
        }
      ],
      "name": "getTkbforExactEth",
      "outputs": [
        {
          "internalType": "uint256",
          "name": "amountTkb",
          "type": "uint256"
        }
      ],
      "stateMutability": "view",
      "type": "function",
      "constant": true
    },
    {
      "inputs": [
        {
          "internalType": "address",
          "name": "tokenB",
          "type": "address"
        },
        {
          "internalType": "uint256",
          "name": "_amountTkb",
          "type": "uint256"
        }
      ],
      "name": "swapTkBforEth",
      "outputs": [
        {
          "internalType": "uint256",
          "name": "amountEth",
          "type": "uint256"
        }
      ],
      "stateMutability": "nonpayable",
      "type": "function"
    }
  ],
  "bytecode": "0x608060405234801561001057600080fd5b50611b32806100206000396000f3fe608060405234801561001057600080fd5b50600436106100cf5760003560e01c80636a393e2b1161008c57806384ef427f1161006657806384ef427f1461024f5780639992097b1461027f578063f4b59856146102af578063fd56229f146102ce576100cf565b80636a393e2b146101bf57806379d8fe05146101ef578063822992441461021f576100cf565b806302fab740146100d45780630d7e6d85146100f35780632e1a7d4d14610123578063495323d21461015457806355776b771461018457806360246c88146101a0575b600080fd5b6100dc6102fe565b6040516100ea9291906111ed565b60405180910390f35b61010d600480360381019061010891906112a5565b6103db565b60405161011a91906112e5565b60405180910390f35b61013d60048036038101906101389190611300565b610555565b60405161014b9291906111ed565b60405180910390f35b61016e60048036038101906101699190611300565b610797565b60405161017b91906112e5565b60405180910390f35b61019e6004803603810190610199919061132d565b61081b565b005b6101a8610a19565b6040516101b69291906111ed565b60405180910390f35b6101d960048036038101906101d49190611300565b610a2a565b6040516101e691906112e5565b60405180910390f35b610209600480360381019061020491906112a5565b610aaf565b60405161021691906112e5565b60405180910390f35b61023960048036038101906102349190611300565b610c27565b60405161024691906112e5565b60405180910390f35b61026960048036038101906102649190611300565b610c9d565b60405161027691906112e5565b60405180910390f35b61029960048036038101906102949190611300565b610d4b565b6040516102a691906112e5565b60405180910390f35b6102b7610dc1565b6040516102c59291906111ed565b60405180910390f35b6102e860048036038101906102e39190611300565b610e4c565b6040516102f591906112e5565b60405180910390f35b6000806000805411801561031457506000600154115b610353576040517f08c379a000000000000000000000000000000000000000000000000000000000815260040161034a90611403565b60405180910390fd5b600460003373ffffffffffffffffffffffffffffffffffffffff1673ffffffffffffffffffffffffffffffffffffffff168152602001908152602001600020549150600560003373ffffffffffffffffffffffffffffffffffffffff1673ffffffffffffffffffffffffffffffffffffffff1681526020019081526020016000205490509091565b6000806000541180156103f057506000600154115b61042f576040517f08c379a000000000000000000000000000000000000000000000000000000000815260040161042690611403565b60405180910390fd5b60008211610472576040517f08c379a00000000000000000000000000000000000000000000000000000000081526004016104699061146f565b60405180910390fd5b61047b82610a2a565b9050816001600082825461048f91906114be565b92505081905550806000808282546104a79190611514565b925050819055506001546000546104be9190611548565b6002819055506104ce3382610efa565b8273ffffffffffffffffffffffffffffffffffffffff166323b872dd3330856040518463ffffffff1660e01b815260040161050b939291906115b1565b6020604051808303816000875af115801561052a573d6000803e3d6000fd5b505050506040513d601f19601f8201168201806040525081019061054e9190611620565b5092915050565b6000806000805411801561056b57506000600154115b6105aa576040517f08c379a00000000000000000000000000000000000000000000000000000000081526004016105a190611403565b60405180910390fd5b600083116105ed576040517f08c379a00000000000000000000000000000000000000000000000000000000081526004016105e490611699565b60405180910390fd5b606483600460003373ffffffffffffffffffffffffffffffffffffffff1673ffffffffffffffffffffffffffffffffffffffff1681526020019081526020016000205461063a9190611548565b61064491906116e8565b9150606483600560003373ffffffffffffffffffffffffffffffffffffffff1673ffffffffffffffffffffffffffffffffffffffff168152602001908152602001600020546106939190611548565b61069d91906116e8565b9050816000808282546106b09190611514565b9250508190555080600160008282546106c99190611514565b925050819055506001546000546106e09190611548565b60028190555081600460003373ffffffffffffffffffffffffffffffffffffffff1673ffffffffffffffffffffffffffffffffffffffff16815260200190815260200160002060008282546107359190611514565b9250508190555080600560003373ffffffffffffffffffffffffffffffffffffffff1673ffffffffffffffffffffffffffffffffffffffff168152602001908152602001600020600082825461078b9190611514565b92505081905550915091565b6000806000541180156107ac57506000600154115b6107eb576040517f08c379a00000000000000000000000000000000000000000000000000000000081526004016107e290611403565b60405180910390fd5b6107fa82600054600154610ffa565b9050600154811061081657600180546108139190611514565b90505b919050565b60008211801561082b5750600081115b61086a576040517f08c379a000000000000000000000000000000000000000000000000000000000815260040161086190611765565b60405180910390fd5b6000805414801561087d57506000600154145b156108ab5781600081905550806001819055506001546000546108a09190611548565b6002819055506108dd565b816000808282546108bc91906114be565b9250508190555080600160008282546108d591906114be565b925050819055505b81600460003373ffffffffffffffffffffffffffffffffffffffff1673ffffffffffffffffffffffffffffffffffffffff168152602001908152602001600020600082825461092c91906114be565b9250508190555080600560003373ffffffffffffffffffffffffffffffffffffffff1673ffffffffffffffffffffffffffffffffffffffff168152602001908152602001600020600082825461098291906114be565b925050819055506109933083610efa565b8273ffffffffffffffffffffffffffffffffffffffff166323b872dd3330846040518463ffffffff1660e01b81526004016109d0939291906115b1565b6020604051808303816000875af11580156109ef573d6000803e3d6000fd5b505050506040513d601f19601f82011682018060405250810190610a139190611620565b50505050565b600080600054600154915091509091565b600080600054118015610a3f57506000600154115b610a7e576040517f08c379a0000000000000000000000000000000000000000000000000000000008152600401610a7590611403565b60405180910390fd5b610a8d82600154600054610ffa565b90506000548110610aaa576001600054610aa79190611514565b90505b919050565b600080600054118015610ac457506000600154115b610b03576040517f08c379a0000000000000000000000000000000000000000000000000000000008152600401610afa90611403565b60405180910390fd5b60008211610b46576040517f08c379a0000000000000000000000000000000000000000000000000000000008152600401610b3d9061146f565b60405180910390fd5b610b4f82610797565b905081600080828254610b6291906114be565b925050819055508060016000828254610b7b9190611514565b92505081905550600154600054610b929190611548565b600281905550610ba23083610efa565b8273ffffffffffffffffffffffffffffffffffffffff1663a9059cbb33836040518363ffffffff1660e01b8152600401610bdd929190611785565b6020604051808303816000875af1158015610bfc573d6000803e3d6000fd5b505050506040513d601f19601f82011682018060405250810190610c209190611620565b5092915050565b600080600054118015610c3c57506000600154115b610c7b576040517f08c379a0000000000000000000000000000000000000000000000000000000008152600401610c7290611403565b60405180910390fd5b60015460005483610c8c91906116e8565b610c969190611548565b9050919050565b600080600054118015610cb257506000600154115b610cf1576040517f08c379a0000000000000000000000000000000000000000000000000000000008152600401610ce890611403565b60405180910390fd5b6001548210610d35576040517f08c379a0000000000000000000000000000000000000000000000000000000008152600401610d2c906117fa565b60405180910390fd5b610d44826000546001546110e4565b9050919050565b600080600054118015610d6057506000600154115b610d9f576040517f08c379a0000000000000000000000000000000000000000000000000000000008152600401610d9690611403565b60405180910390fd5b60005460015483610db091906116e8565b610dba9190611548565b9050919050565b600080600460003373ffffffffffffffffffffffffffffffffffffffff1673ffffffffffffffffffffffffffffffffffffffff168152602001908152602001600020549150600560003373ffffffffffffffffffffffffffffffffffffffff1673ffffffffffffffffffffffffffffffffffffffff1681526020019081526020016000205490509091565b600080600054118015610e6157506000600154115b610ea0576040517f08c379a0000000000000000000000000000000000000000000000000000000008152600401610e9790611403565b60405180910390fd5b6000548210610ee4576040517f08c379a0000000000000000000000000000000000000000000000000000000008152600401610edb906117fa565b60405180910390fd5b610ef3826001546000546110e4565b9050919050565b60008273ffffffffffffffffffffffffffffffffffffffff1682600067ffffffffffffffff811115610f2f57610f2e61181a565b5b6040519080825280601f01601f191660200182016040528015610f615781602001600182028036833780820191505090505b50604051610f6f91906118c3565b60006040518083038185875af1925050503d8060008114610fac576040519150601f19603f3d011682016040523d82523d6000602084013e610fb1565b606091505b5050905080610ff5576040517f08c379a0000000000000000000000000000000000000000000000000000000008152600401610fec90611926565b60405180910390fd5b505050565b600080841161103e576040517f08c379a0000000000000000000000000000000000000000000000000000000008152600401611035906119b8565b60405180910390fd5b60008311801561104e5750600082115b61108d576040517f08c379a000000000000000000000000000000000000000000000000000000000815260040161108490611a4a565b60405180910390fd5b60006103e58561109d9190611548565b9050600083826110ad9190611548565b90506000826103e8876110c09190611548565b6110ca91906114be565b905080826110d891906116e8565b93505050509392505050565b6000808411611128576040517f08c379a000000000000000000000000000000000000000000000000000000000815260040161111f90611adc565b60405180910390fd5b6000831180156111385750600082115b611177576040517f08c379a000000000000000000000000000000000000000000000000000000000815260040161116e90611a4a565b60405180910390fd5b60006103e885856111889190611548565b6111929190611548565b905060006103e586856111a59190611514565b6111af9190611548565b9050600181836111bf91906116e8565b6111c991906114be565b925050509392505050565b6000819050919050565b6111e7816111d4565b82525050565b600060408201905061120260008301856111de565b61120f60208301846111de565b9392505050565b600080fd5b600073ffffffffffffffffffffffffffffffffffffffff82169050919050565b60006112468261121b565b9050919050565b6112568161123b565b811461126157600080fd5b50565b6000813590506112738161124d565b92915050565b611282816111d4565b811461128d57600080fd5b50565b60008135905061129f81611279565b92915050565b600080604083850312156112bc576112bb611216565b5b60006112ca85828601611264565b92505060206112db85828601611290565b9150509250929050565b60006020820190506112fa60008301846111de565b92915050565b60006020828403121561131657611315611216565b5b600061132484828501611290565b91505092915050565b60008060006060848603121561134657611345611216565b5b600061135486828701611264565b935050602061136586828701611290565b925050604061137686828701611290565b9150509250925092565b600082825260208201905092915050565b7f456d70747920706f6f6c2c20706c6561736520616464206c697175696469747960008201527f2e00000000000000000000000000000000000000000000000000000000000000602082015250565b60006113ed602183611380565b91506113f882611391565b604082019050919050565b6000602082019050818103600083015261141c816113e0565b9050919050565b7f616d6f756e742063616e27742062652030000000000000000000000000000000600082015250565b6000611459601183611380565b915061146482611423565b602082019050919050565b600060208201905081810360008301526114888161144c565b9050919050565b7f4e487b7100000000000000000000000000000000000000000000000000000000600052601160045260246000fd5b60006114c9826111d4565b91506114d4836111d4565b9250827fffffffffffffffffffffffffffffffffffffffffffffffffffffffffffffffff038211156115095761150861148f565b5b828201905092915050565b600061151f826111d4565b915061152a836111d4565b92508282101561153d5761153c61148f565b5b828203905092915050565b6000611553826111d4565b915061155e836111d4565b9250817fffffffffffffffffffffffffffffffffffffffffffffffffffffffffffffffff04831182151516156115975761159661148f565b5b828202905092915050565b6115ab8161123b565b82525050565b60006060820190506115c660008301866115a2565b6115d360208301856115a2565b6115e060408301846111de565b949350505050565b60008115159050919050565b6115fd816115e8565b811461160857600080fd5b50565b60008151905061161a816115f4565b92915050565b60006020828403121561163657611635611216565b5b60006116448482850161160b565b91505092915050565b7f63616e6e6f74206265207a65726f2076616c7565000000000000000000000000600082015250565b6000611683601483611380565b915061168e8261164d565b602082019050919050565b600060208201905081810360008301526116b281611676565b9050919050565b7f4e487b7100000000000000000000000000000000000000000000000000000000600052601260045260246000fd5b60006116f3826111d4565b91506116fe836111d4565b92508261170e5761170d6116b9565b5b828204905092915050565b7f4e656564206d6f7265207468616e205a65726f2076616c756500000000000000600082015250565b600061174f601983611380565b915061175a82611719565b602082019050919050565b6000602082019050818103600083015261177e81611742565b9050919050565b600060408201905061179a60008301856115a2565b6117a760208301846111de565b9392505050565b7f496e73756666696369656e7420706f6f6c2062616c616e636500000000000000600082015250565b60006117e4601983611380565b91506117ef826117ae565b602082019050919050565b60006020820190508181036000830152611813816117d7565b9050919050565b7f4e487b7100000000000000000000000000000000000000000000000000000000600052604160045260246000fd5b600081519050919050565b600081905092915050565b60005b8381101561187d578082015181840152602081019050611862565b8381111561188c576000848401525b50505050565b600061189d82611849565b6118a78185611854565b93506118b781856020860161185f565b80840191505092915050565b60006118cf8284611892565b915081905092915050565b7f455448207472616e73666572206661696c656400000000000000000000000000600082015250565b6000611910601383611380565b915061191b826118da565b602082019050919050565b6000602082019050818103600083015261193f81611903565b9050919050565b7f556e697377617056324c6962726172793a20494e53554646494349454e545f4960008201527f4e5055545f414d4f554e54000000000000000000000000000000000000000000602082015250565b60006119a2602b83611380565b91506119ad82611946565b604082019050919050565b600060208201905081810360008301526119d181611995565b9050919050565b7f556e697377617056324c6962726172793a20494e53554646494349454e545f4c60008201527f4951554944495459000000000000000000000000000000000000000000000000602082015250565b6000611a34602883611380565b9150611a3f826119d8565b604082019050919050565b60006020820190508181036000830152611a6381611a27565b9050919050565b7f556e697377617056324c6962726172793a20494e53554646494349454e545f4f60008201527f55545055545f414d4f554e540000000000000000000000000000000000000000602082015250565b6000611ac6602c83611380565b9150611ad182611a6a565b604082019050919050565b60006020820190508181036000830152611af581611ab9565b905091905056fea26469706673582212207787a4a6c31609eeb615507e4ce249b391eb9e630bec7f195a63cac7d388312b64736f6c634300080b0033",
  "immutableReferences": {},
  "source": "// SPDX-License-Identifier: GPL-3.0\r\npragma solidity ^0.8.0;\r\n\r\nimport \"./Token.sol\";\r\n\r\ncontract AMM {\r\n    \r\n    uint256 totalEthToken;//total amount of Eth token in the pool\r\n    uint256 totalTkbToken;//total amount of TkB token in the pool\r\n    uint256 K;//K constant in X*Y = K\r\n    \r\n    uint constant PRECISION = 1_000_000;\r\n\r\n    mapping(address => uint256) share;\r\n    mapping(address => uint256) balanceEth;\r\n    mapping(address => uint256) balanceTkb;\r\n    \r\n    //no liquidity, cannot withdraw from liquidity pool\r\n    modifier activePool() {\r\n        require(totalEthToken > 0 && totalTkbToken > 0, \"Empty pool, please add liquidity.\");\r\n        _;\r\n    }\r\n\r\n    //get the liquidity pool total Eth token, TkB token\r\n    function getPoolInfo() external view returns(uint256, uint256) {\r\n        return (totalEthToken, totalTkbToken);\r\n    }\r\n\r\n    //get user balance token in the pool\r\n    function getUserPoolBalance() external view returns (uint256 amountEth, uint amountTkb) {\r\n        amountEth = balanceEth[msg.sender];\r\n        amountTkb = balanceTkb[msg.sender];\r\n    }\r\n\r\n    //to get the total Tkb token needed to add into pool\r\n    function getAddPoolTkbRequirement(uint256 ethToken) public view activePool returns(uint256 reqTkbToken) {\r\n        reqTkbToken = ethToken / totalEthToken * totalTkbToken ;\r\n    }\r\n\r\n    //to get the total eth token needed to add into pool\r\n    function getAddPoolEthRequirement(uint256 tkbToken) public view activePool returns(uint256 reqEthToken) {\r\n        reqEthToken = tkbToken / totalTkbToken * totalEthToken ;\r\n    }\r\n\r\n\r\n    //add liquidity into the pool, set K constant if first added, store share % into user\r\n    function addLiquidity(\r\n        address tokenB,\r\n        uint256 addEthToken, \r\n        uint256 addTkbToken\r\n        //address to\r\n        ) external {\r\n        require(addEthToken > 0 && addTkbToken > 0, \"Need more than Zero value\");\r\n        if(totalEthToken == 0 && totalTkbToken == 0)  // Genesis liquidity is issued 100 Shares\r\n        {\r\n            totalEthToken = addEthToken;\r\n            totalTkbToken = addTkbToken;\r\n            K = totalEthToken * totalTkbToken;\r\n        }\r\n        else\r\n        {\r\n            totalEthToken += addEthToken;\r\n            totalTkbToken += addTkbToken;\r\n        }\r\n\r\n        balanceEth[msg.sender] += addEthToken;\r\n        balanceTkb[msg.sender] += addTkbToken;\r\n\r\n        transferETH(address(this), addEthToken);\r\n        Token(tokenB).transferFrom(msg.sender, address(this), addTkbToken);\r\n    }\r\n\r\n    //get withdraw total tokens\r\n    function getWithdrawToken () external view activePool returns(uint256 withdrawEth, uint256 withdrawTkb) {\r\n        withdrawEth = balanceEth[msg.sender];\r\n        withdrawTkb = balanceTkb[msg.sender];\r\n    }\r\n\r\n    //withdraw  tokens from pool and add the tokens back to user\r\n    function withdraw(uint256 _share) external activePool returns(uint256 withdrawEth, uint256 withdrawTkb) {\r\n        require(_share > 0,\"cannot be zero value\");\r\n        withdrawEth = balanceEth[msg.sender] * _share / 100;\r\n        withdrawTkb = balanceTkb[msg.sender] * _share / 100;\r\n\r\n        totalEthToken -= withdrawEth;\r\n        totalTkbToken -= withdrawTkb;\r\n        K = totalEthToken * totalTkbToken;\r\n\r\n        balanceEth[msg.sender] -= withdrawEth;\r\n        balanceTkb[msg.sender] -= withdrawTkb;\r\n    }\r\n\r\n    // Returns the amount of TkB token that the user will get when swapping a exact amount of Eth token\r\n    function getExactEthforTkB(uint256 _amountEth) public view activePool returns(uint256 amountTkb) {\r\n        amountTkb = getAmountOut(_amountEth, totalEthToken, totalTkbToken);\r\n\r\n        // To ensure that Token2's pool is not completely depleted leading to inf:0 ratio\r\n        if(amountTkb >= totalTkbToken) amountTkb = totalTkbToken - 1;\r\n    }\r\n    \r\n    // Returns the amount of Eth token needed to swap a exact amount of TkB token\r\n    function getEthforExactTkB(uint256 _amountTkB) public view activePool returns(uint256 amountEth) {\r\n        require(_amountTkB < totalTkbToken, \"Insufficient pool balance\");\r\n        amountEth = getAmountIn(_amountTkB, totalEthToken, totalTkbToken);\r\n    }\r\n\r\n    // Swaps Eth token to TkB token using algorithmic price determination\r\n    function swapEthforTkB(address tokenB, uint256 _amountEth) external activePool returns(uint256 amountTkb) {\r\n        require(_amountEth > 0, \"amount can't be 0\");\r\n        amountTkb = getExactEthforTkB(_amountEth);\r\n\r\n        totalEthToken += _amountEth;\r\n        totalTkbToken -= amountTkb;\r\n        K = totalEthToken * totalTkbToken;\r\n        \r\n        transferETH(address(this), _amountEth);\r\n        Token(tokenB).transfer(msg.sender, amountTkb);\r\n    }\r\n\r\n    // Returns the amount of Eth token that the user will get when swapping a exact amount of Tkb token\r\n    function getExactTkbforEth(uint256 _amountTkb) public view activePool returns(uint256 amountEth) {\r\n        amountEth = getAmountOut(_amountTkb, totalTkbToken, totalEthToken);\r\n\r\n        // To ensure that Token1's pool is not completely depleted leading to inf:0 ratio\r\n        if(amountEth >= totalEthToken) amountEth = totalEthToken - 1;\r\n    }\r\n    \r\n    // Returns the amount of Tkb token needed to swap a exact amount of Eth token\r\n    function getTkbforExactEth(uint256 _amountEth) public view activePool returns(uint256 amountTkb) {\r\n        require(_amountEth < totalEthToken, \"Insufficient pool balance\");\r\n        amountTkb = getAmountIn(_amountEth, totalTkbToken, totalEthToken);\r\n    }\r\n\r\n    // Swaps TkB token to Eth token using algorithmic price determination\r\n    function swapTkBforEth(address tokenB, uint256 _amountTkb) external activePool returns(uint256 amountEth) {\r\n        require(_amountTkb > 0, \"amount can't be 0\");\r\n        amountEth = getExactTkbforEth(_amountTkb);\r\n\r\n        totalTkbToken += _amountTkb;\r\n        totalEthToken -= amountEth;\r\n        K = totalEthToken * totalTkbToken;\r\n\r\n        transferETH(msg.sender, amountEth);\r\n        Token(tokenB).transferFrom(msg.sender, address(this), _amountTkb);\r\n    }\r\n\r\n    // given an input amount of an asset and pair reserves, returns the maximum output amount of the other asset\r\n    function getAmountOut(uint amountIn, uint reserveIn, uint reserveOut) internal pure returns (uint amountOut) {\r\n        require(amountIn > 0, 'UniswapV2Library: INSUFFICIENT_INPUT_AMOUNT');\r\n        require(reserveIn > 0 && reserveOut > 0, 'UniswapV2Library: INSUFFICIENT_LIQUIDITY');\r\n        uint amountInWithFee = amountIn * 997;\r\n        uint numerator = amountInWithFee * (reserveOut);\r\n        uint denominator = (reserveIn * 1000) + amountInWithFee;\r\n        amountOut = numerator / denominator;\r\n    }\r\n\r\n    // given an output amount of an asset and pair reserves, returns a required input amount of the other asset\r\n    function getAmountIn(uint amountOut, uint reserveIn, uint reserveOut) internal pure returns (uint amountIn) {\r\n        require(amountOut > 0, 'UniswapV2Library: INSUFFICIENT_OUTPUT_AMOUNT');\r\n        require(reserveIn > 0 && reserveOut > 0, 'UniswapV2Library: INSUFFICIENT_LIQUIDITY');\r\n        uint numerator = reserveIn * amountOut * 1000;\r\n        uint denominator = (reserveOut - amountOut) * 997;\r\n        amountIn = (numerator / denominator) + 1;\r\n    }\r\n\r\n    //to transfer ether\r\n    function transferETH(address to, uint256 value) internal {\r\n        (bool success, ) = to.call{value: value}(new bytes(0));\r\n        require(success, 'ETH transfer failed');\r\n    }\r\n\r\n}",
  "sourcePath": "C:\\Users\\Acer\\Desktop\\sassy\\refer2\\test\\src\\contracts\\Amm.sol",
  "compiler": {
    "name": "solc",
    "version": "0.8.11+commit.d7f03943.Emscripten.clang"
  },
  "schemaVersion": "3.4.6",
  "updatedAt": "2022-04-09T19:02:50.365Z",
  "networkType": "ethereum",
  "devdoc": {
    "kind": "dev",
    "methods": {},
    "version": 1
  },
  "userdoc": {
    "kind": "user",
    "methods": {},
    "version": 1
  }
}