{
  "contractName": "AMM",
  "abi": [
    {
      "inputs": [
        {
          "internalType": "contract CAYTOKEN",
          "name": "_cayToken",
          "type": "address"
        },
        {
          "internalType": "contract KENTOKEN",
          "name": "_kenToken",
          "type": "address"
        }
      ],
      "stateMutability": "nonpayable",
      "type": "constructor"
    },
    {
      "anonymous": false,
      "inputs": [
        {
          "indexed": false,
          "internalType": "address",
          "name": "account",
          "type": "address"
        },
        {
          "indexed": false,
          "internalType": "address",
          "name": "cayToken",
          "type": "address"
        },
        {
          "indexed": false,
          "internalType": "uint256",
          "name": "cayAmount",
          "type": "uint256"
        },
        {
          "indexed": false,
          "internalType": "address",
          "name": "kenToken",
          "type": "address"
        },
        {
          "indexed": false,
          "internalType": "uint256",
          "name": "kenAmount",
          "type": "uint256"
        }
      ],
      "name": "PoolAreCreated",
      "type": "event"
    },
    {
      "inputs": [],
      "name": "cayToken",
      "outputs": [
        {
          "internalType": "contract CAYTOKEN",
          "name": "",
          "type": "address"
        }
      ],
      "stateMutability": "view",
      "type": "function",
      "constant": true
    },
    {
      "inputs": [],
      "name": "kenToken",
      "outputs": [
        {
          "internalType": "contract KENTOKEN",
          "name": "",
          "type": "address"
        }
      ],
      "stateMutability": "view",
      "type": "function",
      "constant": true
    },
    {
      "inputs": [
        {
          "internalType": "address",
          "name": "",
          "type": "address"
        }
      ],
      "name": "lpShares",
      "outputs": [
        {
          "internalType": "uint256",
          "name": "",
          "type": "uint256"
        }
      ],
      "stateMutability": "view",
      "type": "function",
      "constant": true
    },
    {
      "inputs": [],
      "name": "totalCAYTokenInPool",
      "outputs": [
        {
          "internalType": "uint256",
          "name": "",
          "type": "uint256"
        }
      ],
      "stateMutability": "view",
      "type": "function",
      "constant": true
    },
    {
      "inputs": [],
      "name": "totalKENTokenInPool",
      "outputs": [
        {
          "internalType": "uint256",
          "name": "",
          "type": "uint256"
        }
      ],
      "stateMutability": "view",
      "type": "function",
      "constant": true
    },
    {
      "inputs": [],
      "name": "checkBothTokenAmountInPool",
      "outputs": [
        {
          "internalType": "uint256",
          "name": "",
          "type": "uint256"
        },
        {
          "internalType": "uint256",
          "name": "",
          "type": "uint256"
        }
      ],
      "stateMutability": "view",
      "type": "function",
      "constant": true
    },
    {
      "inputs": [],
      "name": "getLPTotalCAY",
      "outputs": [
        {
          "internalType": "uint256",
          "name": "_lpCAYBalance",
          "type": "uint256"
        }
      ],
      "stateMutability": "view",
      "type": "function",
      "constant": true
    },
    {
      "inputs": [],
      "name": "getLPTotalKEN",
      "outputs": [
        {
          "internalType": "uint256",
          "name": "_lpKENBalance",
          "type": "uint256"
        }
      ],
      "stateMutability": "view",
      "type": "function",
      "constant": true
    },
    {
      "inputs": [
        {
          "internalType": "uint256",
          "name": "_kenToken",
          "type": "uint256"
        }
      ],
      "name": "getAddPoolCAYRequirement",
      "outputs": [
        {
          "internalType": "uint256",
          "name": "reqCAYToken",
          "type": "uint256"
        }
      ],
      "stateMutability": "view",
      "type": "function",
      "constant": true
    },
    {
      "inputs": [
        {
          "internalType": "uint256",
          "name": "_cayToken",
          "type": "uint256"
        }
      ],
      "name": "getAddPoolKENRequirement",
      "outputs": [
        {
          "internalType": "uint256",
          "name": "reqKENToken",
          "type": "uint256"
        }
      ],
      "stateMutability": "view",
      "type": "function",
      "constant": true
    },
    {
      "inputs": [
        {
          "internalType": "uint256",
          "name": "addCAYTokenInPool",
          "type": "uint256"
        },
        {
          "internalType": "uint256",
          "name": "addKENTokenInPool",
          "type": "uint256"
        }
      ],
      "name": "createPool",
      "outputs": [],
      "stateMutability": "payable",
      "type": "function",
      "payable": true
    },
    {
      "inputs": [
        {
          "internalType": "uint256",
          "name": "_share",
          "type": "uint256"
        }
      ],
      "name": "getWithdrawToken",
      "outputs": [
        {
          "internalType": "uint256",
          "name": "withdrawCAY",
          "type": "uint256"
        },
        {
          "internalType": "uint256",
          "name": "withdrawKEN",
          "type": "uint256"
        }
      ],
      "stateMutability": "view",
      "type": "function",
      "constant": true
    },
    {
      "inputs": [
        {
          "internalType": "uint256",
          "name": "_share",
          "type": "uint256"
        }
      ],
      "name": "withdraw",
      "outputs": [
        {
          "internalType": "uint256",
          "name": "_withdrawCAY",
          "type": "uint256"
        },
        {
          "internalType": "uint256",
          "name": "_withdrawKEN",
          "type": "uint256"
        }
      ],
      "stateMutability": "nonpayable",
      "type": "function"
    },
    {
      "inputs": [
        {
          "internalType": "uint256",
          "name": "_amountCAY",
          "type": "uint256"
        }
      ],
      "name": "getExactCAYforKEN",
      "outputs": [
        {
          "internalType": "uint256",
          "name": "amountKEN",
          "type": "uint256"
        }
      ],
      "stateMutability": "view",
      "type": "function",
      "constant": true
    },
    {
      "inputs": [
        {
          "internalType": "uint256",
          "name": "_amountKEN",
          "type": "uint256"
        }
      ],
      "name": "getCAYforExactKEN",
      "outputs": [
        {
          "internalType": "uint256",
          "name": "amountCAY",
          "type": "uint256"
        }
      ],
      "stateMutability": "view",
      "type": "function",
      "constant": true
    },
    {
      "inputs": [
        {
          "internalType": "uint256",
          "name": "_amountCAY",
          "type": "uint256"
        }
      ],
      "name": "swapCAYforKEN",
      "outputs": [
        {
          "internalType": "uint256",
          "name": "amountKEN",
          "type": "uint256"
        }
      ],
      "stateMutability": "nonpayable",
      "type": "function"
    },
    {
      "inputs": [
        {
          "internalType": "uint256",
          "name": "_amountKEN",
          "type": "uint256"
        }
      ],
      "name": "getExactKENforCAY",
      "outputs": [
        {
          "internalType": "uint256",
          "name": "amountCAY",
          "type": "uint256"
        }
      ],
      "stateMutability": "view",
      "type": "function",
      "constant": true
    },
    {
      "inputs": [
        {
          "internalType": "uint256",
          "name": "_amountCAY",
          "type": "uint256"
        }
      ],
      "name": "getKENforExactCAY",
      "outputs": [
        {
          "internalType": "uint256",
          "name": "amountKEN",
          "type": "uint256"
        }
      ],
      "stateMutability": "view",
      "type": "function",
      "constant": true
    },
    {
      "inputs": [
        {
          "internalType": "uint256",
          "name": "_amountKEN",
          "type": "uint256"
        }
      ],
      "name": "swapKENforCAY",
      "outputs": [
        {
          "internalType": "uint256",
          "name": "amountCAY",
          "type": "uint256"
        }
      ],
      "stateMutability": "nonpayable",
      "type": "function"
    }
  ],
  "bytecode": "0x60806040523480156200001157600080fd5b506040516200279238038062002792833981810160405281019062000037919062000184565b81600460006101000a81548173ffffffffffffffffffffffffffffffffffffffff021916908373ffffffffffffffffffffffffffffffffffffffff16021790555080600560006101000a81548173ffffffffffffffffffffffffffffffffffffffff021916908373ffffffffffffffffffffffffffffffffffffffff1602179055505050620001cb565b600080fd5b600073ffffffffffffffffffffffffffffffffffffffff82169050919050565b6000620000f382620000c6565b9050919050565b60006200010782620000e6565b9050919050565b6200011981620000fa565b81146200012557600080fd5b50565b60008151905062000139816200010e565b92915050565b60006200014c82620000e6565b9050919050565b6200015e816200013f565b81146200016a57600080fd5b50565b6000815190506200017e8162000153565b92915050565b600080604083850312156200019e576200019d620000c1565b5b6000620001ae8582860162000128565b9250506020620001c1858286016200016d565b9150509250929050565b6125b780620001db6000396000f3fe6080604052600436106101145760003560e01c80638055beb2116100a0578063ae9c968811610064578063ae9c9688146103f7578063b562f71f14610422578063bf87d7b61461044d578063c109a6dc1461048a578063c5d386e9146104c757610114565b80638055beb21461030d5780638427f41c14610338578063a21208ed14610375578063a64ace07146103a0578063acfeec4c146103cc57610114565b80632e1a7d4d116100e75780632e1a7d4d146101fc5780634d4a2a7e1461023a57806364bd984914610277578063734b47c0146102b457806374a110c2146102f157610114565b80630918d5861461011957806316a24ae3146101575780631f4cd48e146101945780632758d89b146101d1575b600080fd5b34801561012557600080fd5b50610140600480360381019061013b9190611b3c565b610504565b60405161014e929190611b78565b60405180910390f35b34801561016357600080fd5b5061017e60048036038101906101799190611b3c565b6105ab565b60405161018b9190611ba1565b60405180910390f35b3480156101a057600080fd5b506101bb60048036038101906101b69190611b3c565b61062f565b6040516101c89190611ba1565b60405180910390f35b3480156101dd57600080fd5b506101e66106dd565b6040516101f39190611ba1565b60405180910390f35b34801561020857600080fd5b50610223600480360381019061021e9190611b3c565b61073e565b604051610231929190611b78565b60405180910390f35b34801561024657600080fd5b50610261600480360381019061025c9190611b3c565b610b2a565b60405161026e9190611ba1565b60405180910390f35b34801561028357600080fd5b5061029e60048036038101906102999190611b3c565b610dff565b6040516102ab9190611ba1565b60405180910390f35b3480156102c057600080fd5b506102db60048036038101906102d69190611b3c565b610e75565b6040516102e89190611ba1565b60405180910390f35b61030b60048036038101906103069190611bbc565b610eeb565b005b34801561031957600080fd5b5061032261143d565b60405161032f9190611c7b565b60405180910390f35b34801561034457600080fd5b5061035f600480360381019061035a9190611b3c565b611463565b60405161036c9190611ba1565b60405180910390f35b34801561038157600080fd5b5061038a611738565b6040516103979190611ba1565b60405180910390f35b3480156103ac57600080fd5b506103b561173e565b6040516103c3929190611b78565b60405180910390f35b3480156103d857600080fd5b506103e161174f565b6040516103ee9190611cb7565b60405180910390f35b34801561040357600080fd5b5061040c611775565b6040516104199190611ba1565b60405180910390f35b34801561042e57600080fd5b506104376117d6565b6040516104449190611ba1565b60405180910390f35b34801561045957600080fd5b50610474600480360381019061046f9190611b3c565b6117dc565b6040516104819190611ba1565b60405180910390f35b34801561049657600080fd5b506104b160048036038101906104ac9190611d10565b611861565b6040516104be9190611ba1565b60405180910390f35b3480156104d357600080fd5b506104ee60048036038101906104e99190611b3c565b611879565b6040516104fb9190611ba1565b60405180910390f35b6000806000805411801561051a57506000600154115b610559576040517f08c379a000000000000000000000000000000000000000000000000000000000815260040161055090611dc0565b60405180910390fd5b600080610564611775565b915061056e6106dd565b90506064858361057e9190611e0f565b6105889190611e98565b9350606485826105989190611e0f565b6105a29190611e98565b92505050915091565b6000806000541180156105c057506000600154115b6105ff576040517f08c379a00000000000000000000000000000000000000000000000000000000081526004016105f690611dc0565b60405180910390fd5b61060e82600054600154611927565b9050600154811061062a57600180546106279190611ec9565b90505b919050565b60008060005411801561064457506000600154115b610683576040517f08c379a000000000000000000000000000000000000000000000000000000000815260040161067a90611dc0565b60405180910390fd5b60005482106106c7576040517f08c379a00000000000000000000000000000000000000000000000000000000081526004016106be90611f49565b60405180910390fd5b6106d682600154600054611a11565b9050919050565b6000600354600154600660003373ffffffffffffffffffffffffffffffffffffffff1673ffffffffffffffffffffffffffffffffffffffff1681526020019081526020016000205461072f9190611e0f565b6107399190611e98565b905090565b6000806000805411801561075457506000600154115b610793576040517f08c379a000000000000000000000000000000000000000000000000000000000815260040161078a90611dc0565b60405180910390fd5b600083116107d6576040517f08c379a00000000000000000000000000000000000000000000000000000000081526004016107cd90611fb5565b60405180910390fd5b6107df83610504565b8092508193505050816000808282546107f89190611ec9565b9250508190555080600160008282546108119190611ec9565b925050819055506001546000546108289190611e0f565b600281905550600560009054906101000a900473ffffffffffffffffffffffffffffffffffffffff1673ffffffffffffffffffffffffffffffffffffffff1663095ea7b330836040518363ffffffff1660e01b815260040161088b929190611fe4565b6020604051808303816000875af11580156108aa573d6000803e3d6000fd5b505050506040513d601f19601f820116820180604052508101906108ce9190612045565b50600460009054906101000a900473ffffffffffffffffffffffffffffffffffffffff1673ffffffffffffffffffffffffffffffffffffffff1663095ea7b330846040518363ffffffff1660e01b815260040161092c929190611fe4565b6020604051808303816000875af115801561094b573d6000803e3d6000fd5b505050506040513d601f19601f8201168201806040525081019061096f9190612045565b50600560009054906101000a900473ffffffffffffffffffffffffffffffffffffffff1673ffffffffffffffffffffffffffffffffffffffff166323b872dd3033846040518463ffffffff1660e01b81526004016109cf93929190612072565b6020604051808303816000875af11580156109ee573d6000803e3d6000fd5b505050506040513d601f19601f82011682018060405250810190610a129190612045565b50600460009054906101000a900473ffffffffffffffffffffffffffffffffffffffff1673ffffffffffffffffffffffffffffffffffffffff166323b872dd3033856040518463ffffffff1660e01b8152600401610a7293929190612072565b6020604051808303816000875af1158015610a91573d6000803e3d6000fd5b505050506040513d601f19601f82011682018060405250810190610ab59190612045565b5082600660003373ffffffffffffffffffffffffffffffffffffffff1673ffffffffffffffffffffffffffffffffffffffff1681526020019081526020016000206000828254610b059190611ec9565b925050819055508260036000828254610b1e9190611ec9565b92505081905550915091565b600080600054118015610b3f57506000600154115b610b7e576040517f08c379a0000000000000000000000000000000000000000000000000000000008152600401610b7590611dc0565b60405180910390fd5b60008211610bc1576040517f08c379a0000000000000000000000000000000000000000000000000000000008152600401610bb8906120f5565b60405180910390fd5b610bca826105ab565b905081600080828254610bdd9190612115565b925050819055508060016000828254610bf69190611ec9565b92505081905550600154600054610c0d9190611e0f565b600281905550600460009054906101000a900473ffffffffffffffffffffffffffffffffffffffff1673ffffffffffffffffffffffffffffffffffffffff166323b872dd3330856040518463ffffffff1660e01b8152600401610c7293929190612072565b6020604051808303816000875af1158015610c91573d6000803e3d6000fd5b505050506040513d601f19601f82011682018060405250810190610cb59190612045565b50600560009054906101000a900473ffffffffffffffffffffffffffffffffffffffff1673ffffffffffffffffffffffffffffffffffffffff1663095ea7b330836040518363ffffffff1660e01b8152600401610d13929190611fe4565b6020604051808303816000875af1158015610d32573d6000803e3d6000fd5b505050506040513d601f19601f82011682018060405250810190610d569190612045565b50600560009054906101000a900473ffffffffffffffffffffffffffffffffffffffff1673ffffffffffffffffffffffffffffffffffffffff166323b872dd3033846040518463ffffffff1660e01b8152600401610db693929190612072565b6020604051808303816000875af1158015610dd5573d6000803e3d6000fd5b505050506040513d601f19601f82011682018060405250810190610df99190612045565b50919050565b600080600054118015610e1457506000600154115b610e53576040517f08c379a0000000000000000000000000000000000000000000000000000000008152600401610e4a90611dc0565b60405180910390fd5b60005460015483610e649190611e0f565b610e6e9190611e98565b9050919050565b600080600054118015610e8a57506000600154115b610ec9576040517f08c379a0000000000000000000000000000000000000000000000000000000008152600401610ec090611dc0565b60405180910390fd5b60015460005483610eda9190611e0f565b610ee49190611e98565b9050919050565b6000821180610efa5750600081115b610f39576040517f08c379a0000000000000000000000000000000000000000000000000000000008152600401610f30906121b7565b60405180910390fd5b600080600054148015610f4e57506000600154145b15610f8e578260008190555081600181905550600154600054610f719190611e0f565b600281905550620f42406064610f879190611e0f565b9050611044565b82600080828254610f9f9190612115565b925050819055508160016000828254610fb89190612115565b925050819055506000805484600354610fd19190611e0f565b610fdb9190611e98565b9050600060015484600354610ff09190611e0f565b610ffa9190611e98565b905080821461103e576040517f08c379a000000000000000000000000000000000000000000000000000000000815260040161103590612249565b60405180910390fd5b81925050505b82600460009054906101000a900473ffffffffffffffffffffffffffffffffffffffff1673ffffffffffffffffffffffffffffffffffffffff166370a08231336040518263ffffffff1660e01b81526004016110a09190612269565b602060405180830381865afa1580156110bd573d6000803e3d6000fd5b505050506040513d601f19601f820116820180604052508101906110e19190612299565b1015611122576040517f08c379a000000000000000000000000000000000000000000000000000000000815260040161111990612312565b60405180910390fd5b81600560009054906101000a900473ffffffffffffffffffffffffffffffffffffffff1673ffffffffffffffffffffffffffffffffffffffff166370a08231336040518263ffffffff1660e01b815260040161117e9190612269565b602060405180830381865afa15801561119b573d6000803e3d6000fd5b505050506040513d601f19601f820116820180604052508101906111bf9190612299565b1015611200576040517f08c379a00000000000000000000000000000000000000000000000000000000081526004016111f79061237e565b60405180910390fd5b600460009054906101000a900473ffffffffffffffffffffffffffffffffffffffff1673ffffffffffffffffffffffffffffffffffffffff166323b872dd3330866040518463ffffffff1660e01b815260040161125f93929190612072565b6020604051808303816000875af115801561127e573d6000803e3d6000fd5b505050506040513d601f19601f820116820180604052508101906112a29190612045565b50600560009054906101000a900473ffffffffffffffffffffffffffffffffffffffff1673ffffffffffffffffffffffffffffffffffffffff166323b872dd3330856040518463ffffffff1660e01b815260040161130293929190612072565b6020604051808303816000875af1158015611321573d6000803e3d6000fd5b505050506040513d601f19601f820116820180604052508101906113459190612045565b5080600360008282546113589190612115565b9250508190555080600660003373ffffffffffffffffffffffffffffffffffffffff1673ffffffffffffffffffffffffffffffffffffffff16815260200190815260200160002060008282546113ae9190612115565b925050819055507fc29054f90051b44a9da91ea7d71fa8c6e0ffcd8ff6c8ace38a219031837cadf833600460009054906101000a900473ffffffffffffffffffffffffffffffffffffffff1685600560009054906101000a900473ffffffffffffffffffffffffffffffffffffffff168660405161143095949392919061239e565b60405180910390a1505050565b600460009054906101000a900473ffffffffffffffffffffffffffffffffffffffff1681565b60008060005411801561147857506000600154115b6114b7576040517f08c379a00000000000000000000000000000000000000000000000000000000081526004016114ae90611dc0565b60405180910390fd5b600082116114fa576040517f08c379a00000000000000000000000000000000000000000000000000000000081526004016114f1906120f5565b60405180910390fd5b611503826117dc565b905081600160008282546115179190612115565b925050819055508060008082825461152f9190611ec9565b925050819055506001546000546115469190611e0f565b600281905550600560009054906101000a900473ffffffffffffffffffffffffffffffffffffffff1673ffffffffffffffffffffffffffffffffffffffff166323b872dd3330856040518463ffffffff1660e01b81526004016115ab93929190612072565b6020604051808303816000875af11580156115ca573d6000803e3d6000fd5b505050506040513d601f19601f820116820180604052508101906115ee9190612045565b50600460009054906101000a900473ffffffffffffffffffffffffffffffffffffffff1673ffffffffffffffffffffffffffffffffffffffff1663095ea7b330836040518363ffffffff1660e01b815260040161164c929190611fe4565b6020604051808303816000875af115801561166b573d6000803e3d6000fd5b505050506040513d601f19601f8201168201806040525081019061168f9190612045565b50600460009054906101000a900473ffffffffffffffffffffffffffffffffffffffff1673ffffffffffffffffffffffffffffffffffffffff166323b872dd3033846040518463ffffffff1660e01b81526004016116ef93929190612072565b6020604051808303816000875af115801561170e573d6000803e3d6000fd5b505050506040513d601f19601f820116820180604052508101906117329190612045565b50919050565b60015481565b600080600054600154915091509091565b600560009054906101000a900473ffffffffffffffffffffffffffffffffffffffff1681565b6000600354600054600660003373ffffffffffffffffffffffffffffffffffffffff1673ffffffffffffffffffffffffffffffffffffffff168152602001908152602001600020546117c79190611e0f565b6117d19190611e98565b905090565b60005481565b6000806000541180156117f157506000600154115b611830576040517f08c379a000000000000000000000000000000000000000000000000000000000815260040161182790611dc0565b60405180910390fd5b61183f82600154600054611927565b9050600054811061185c5760016000546118599190611ec9565b90505b919050565b60066020528060005260406000206000915090505481565b60008060005411801561188e57506000600154115b6118cd576040517f08c379a00000000000000000000000000000000000000000000000000000000081526004016118c490611dc0565b60405180910390fd5b6001548210611911576040517f08c379a000000000000000000000000000000000000000000000000000000000815260040161190890611f49565b60405180910390fd5b61192082600054600154611a11565b9050919050565b600080841161196b576040517f08c379a000000000000000000000000000000000000000000000000000000000815260040161196290612463565b60405180910390fd5b60008311801561197b5750600082115b6119ba576040517f08c379a00000000000000000000000000000000000000000000000000000000081526004016119b1906124cf565b60405180910390fd5b60006103e5856119ca9190611e0f565b9050600083826119da9190611e0f565b90506000826103e8876119ed9190611e0f565b6119f79190612115565b90508082611a059190611e98565b93505050509392505050565b6000808411611a55576040517f08c379a0000000000000000000000000000000000000000000000000000000008152600401611a4c90612561565b60405180910390fd5b600083118015611a655750600082115b611aa4576040517f08c379a0000000000000000000000000000000000000000000000000000000008152600401611a9b906124cf565b60405180910390fd5b60006103e88585611ab59190611e0f565b611abf9190611e0f565b905060006103e58685611ad29190611ec9565b611adc9190611e0f565b905060018183611aec9190611e98565b611af69190612115565b925050509392505050565b600080fd5b6000819050919050565b611b1981611b06565b8114611b2457600080fd5b50565b600081359050611b3681611b10565b92915050565b600060208284031215611b5257611b51611b01565b5b6000611b6084828501611b27565b91505092915050565b611b7281611b06565b82525050565b6000604082019050611b8d6000830185611b69565b611b9a6020830184611b69565b9392505050565b6000602082019050611bb66000830184611b69565b92915050565b60008060408385031215611bd357611bd2611b01565b5b6000611be185828601611b27565b9250506020611bf285828601611b27565b9150509250929050565b600073ffffffffffffffffffffffffffffffffffffffff82169050919050565b6000819050919050565b6000611c41611c3c611c3784611bfc565b611c1c565b611bfc565b9050919050565b6000611c5382611c26565b9050919050565b6000611c6582611c48565b9050919050565b611c7581611c5a565b82525050565b6000602082019050611c906000830184611c6c565b92915050565b6000611ca182611c48565b9050919050565b611cb181611c96565b82525050565b6000602082019050611ccc6000830184611ca8565b92915050565b6000611cdd82611bfc565b9050919050565b611ced81611cd2565b8114611cf857600080fd5b50565b600081359050611d0a81611ce4565b92915050565b600060208284031215611d2657611d25611b01565b5b6000611d3484828501611cfb565b91505092915050565b600082825260208201905092915050565b7f456d70747920706f6f6c2c20706c6561736520616464206c697175696469747960008201527f2e00000000000000000000000000000000000000000000000000000000000000602082015250565b6000611daa602183611d3d565b9150611db582611d4e565b604082019050919050565b60006020820190508181036000830152611dd981611d9d565b9050919050565b7f4e487b7100000000000000000000000000000000000000000000000000000000600052601160045260246000fd5b6000611e1a82611b06565b9150611e2583611b06565b9250817fffffffffffffffffffffffffffffffffffffffffffffffffffffffffffffffff0483118215151615611e5e57611e5d611de0565b5b828202905092915050565b7f4e487b7100000000000000000000000000000000000000000000000000000000600052601260045260246000fd5b6000611ea382611b06565b9150611eae83611b06565b925082611ebe57611ebd611e69565b5b828204905092915050565b6000611ed482611b06565b9150611edf83611b06565b925082821015611ef257611ef1611de0565b5b828203905092915050565b7f496e73756666696369656e7420706f6f6c2062616c616e636500000000000000600082015250565b6000611f33601983611d3d565b9150611f3e82611efd565b602082019050919050565b60006020820190508181036000830152611f6281611f26565b9050919050565b7f63616e6e6f74206265207a65726f2076616c7565000000000000000000000000600082015250565b6000611f9f601483611d3d565b9150611faa82611f69565b602082019050919050565b60006020820190508181036000830152611fce81611f92565b9050919050565b611fde81611cd2565b82525050565b6000604082019050611ff96000830185611fd5565b6120066020830184611b69565b9392505050565b60008115159050919050565b6120228161200d565b811461202d57600080fd5b50565b60008151905061203f81612019565b92915050565b60006020828403121561205b5761205a611b01565b5b600061206984828501612030565b91505092915050565b60006060820190506120876000830186611fd5565b6120946020830185611fd5565b6120a16040830184611b69565b949350505050565b7f616d6f756e742063616e27742062652030000000000000000000000000000000600082015250565b60006120df601183611d3d565b91506120ea826120a9565b602082019050919050565b6000602082019050818103600083015261210e816120d2565b9050919050565b600061212082611b06565b915061212b83611b06565b9250827fffffffffffffffffffffffffffffffffffffffffffffffffffffffffffffffff038211156121605761215f611de0565b5b828201905092915050565b7f4e656564206d6f7265207468616e205a65726f2076616c756500000000000000600082015250565b60006121a1601983611d3d565b91506121ac8261216b565b602082019050919050565b600060208201905081810360008301526121d081612194565b9050919050565b7f4571756976616c656e742076616c7565206f6620746f6b656e73206e6f74207060008201527f726f76696465642e2e2e00000000000000000000000000000000000000000000602082015250565b6000612233602a83611d3d565b915061223e826121d7565b604082019050919050565b6000602082019050818103600083015261226281612226565b9050919050565b600060208201905061227e6000830184611fd5565b92915050565b60008151905061229381611b10565b92915050565b6000602082840312156122af576122ae611b01565b5b60006122bd84828501612284565b91505092915050565b7f43415920546f6b656e204e6f7420456e6f756768210000000000000000000000600082015250565b60006122fc601583611d3d565b9150612307826122c6565b602082019050919050565b6000602082019050818103600083015261232b816122ef565b9050919050565b7f4b454e20546f6b656e204e6f7420456e6f756768210000000000000000000000600082015250565b6000612368601583611d3d565b915061237382612332565b602082019050919050565b600060208201905081810360008301526123978161235b565b9050919050565b600060a0820190506123b36000830188611fd5565b6123c06020830187611fd5565b6123cd6040830186611b69565b6123da6060830185611fd5565b6123e76080830184611b69565b9695505050505050565b7f556e697377617056324c6962726172793a20494e53554646494349454e545f4960008201527f4e5055545f414d4f554e54000000000000000000000000000000000000000000602082015250565b600061244d602b83611d3d565b9150612458826123f1565b604082019050919050565b6000602082019050818103600083015261247c81612440565b9050919050565b7f494e53554646494349454e545f4c495155494449545900000000000000000000600082015250565b60006124b9601683611d3d565b91506124c482612483565b602082019050919050565b600060208201905081810360008301526124e8816124ac565b9050919050565b7f556e697377617056324c6962726172793a20494e53554646494349454e545f4f60008201527f55545055545f414d4f554e540000000000000000000000000000000000000000602082015250565b600061254b602c83611d3d565b9150612556826124ef565b604082019050919050565b6000602082019050818103600083015261257a8161253e565b905091905056fea264697066735822122064ea61b6b5414782e6b1815dc3db4ad540b60746045c5b5ef5618cca552a716964736f6c634300080b0033",
  "immutableReferences": {},
  "source": "// SPDX-License-Identifier: GPL-3.0\r\npragma solidity ^0.8.0;\r\n\r\nimport \"./CAYTOKEN.sol\";\r\nimport \"./KENTOKEN.sol\";\r\nimport \"hardhat/console.sol\";\r\n\r\ncontract AMM {\r\n\r\n    //1000000000000000000\r\n    uint256 public totalCAYTokenInPool;//total amount of CAY token in the pool\r\n    uint256 public totalKENTokenInPool;//total amount of KEN token in the pool\r\n    uint256 K;//K constant in X*Y = K\r\n    uint256 totalShares;\r\n    \r\n    uint constant PRECISION = 1_000_000;\r\n\r\n    CAYTOKEN public cayToken;\r\n    KENTOKEN public kenToken;\r\n\r\n    mapping(address => uint256) public lpShares;\r\n    \r\n    event PoolAreCreated(\r\n    address account,\r\n    address cayToken,\r\n    uint cayAmount,\r\n    address kenToken,\r\n    uint kenAmount\r\n  );\r\n\r\n    constructor(CAYTOKEN _cayToken,KENTOKEN _kenToken){\r\n    cayToken = _cayToken;\r\n    kenToken = _kenToken;\r\n  }\r\n\r\n    //no liquidity, cannot withdraw from liquidity pool\r\n    modifier activePool() {\r\n        require(totalCAYTokenInPool > 0 && totalKENTokenInPool > 0, \"Empty pool, please add liquidity.\");\r\n        _;\r\n    }\r\n\r\n    //get the liquidity pool total Eth token, TkB token\r\n    function checkBothTokenAmountInPool() public view returns(uint256, uint256) {\r\n        return (totalCAYTokenInPool,totalKENTokenInPool);\r\n    }\r\n\r\n\r\n    //get LP balance token in the pool\r\n    function getLPTotalCAY() public view returns (uint256 _lpCAYBalance) {\r\n        _lpCAYBalance = lpShares[msg.sender] * totalCAYTokenInPool / totalShares;\r\n    }\r\n\r\n    function getLPTotalKEN() public view returns (uint256 _lpKENBalance) {\r\n        _lpKENBalance = lpShares[msg.sender] * totalKENTokenInPool / totalShares;\r\n    }\r\n\r\n    //to get the total Tkb token needed to add into pool\r\n    function getAddPoolCAYRequirement(uint256 _kenToken) public view activePool returns(uint256 reqCAYToken) {\r\n        reqCAYToken = _kenToken * totalCAYTokenInPool / totalKENTokenInPool ;\r\n    }\r\n\r\n    //to get the total eth token needed to add into pool\r\n    function getAddPoolKENRequirement(uint256 _cayToken) public view activePool returns(uint256 reqKENToken) {\r\n        reqKENToken = _cayToken * totalKENTokenInPool / totalCAYTokenInPool ;\r\n    }\r\n\r\n\r\n    //add liquidity into the pool, set K constant if first added, store share % into user\r\n    function createPool(\r\n        uint256 addCAYTokenInPool, \r\n        uint256 addKENTokenInPool\r\n        ) payable public {\r\n        require(addCAYTokenInPool > 0 || addKENTokenInPool > 0, \"Need more than Zero value\");\r\n        uint256 share;\r\n        if(totalCAYTokenInPool == 0 && totalKENTokenInPool == 0)  // Genesis liquidity is issued 100 Shares\r\n        {\r\n            totalCAYTokenInPool = addCAYTokenInPool;\r\n            totalKENTokenInPool = addKENTokenInPool;\r\n            K = totalCAYTokenInPool * totalKENTokenInPool;\r\n            share = 100 * PRECISION; //100_000_000\r\n        }\r\n        else\r\n        {\r\n            totalCAYTokenInPool += addCAYTokenInPool;\r\n            totalKENTokenInPool += addKENTokenInPool;\r\n            uint256 share1 = totalShares * addCAYTokenInPool / totalCAYTokenInPool;\r\n            uint256 share2 = totalShares * addKENTokenInPool / totalKENTokenInPool;\r\n            require(share1 == share2, \"Equivalent value of tokens not provided...\");\r\n            share = share1;\r\n        }\r\n    \r\n        // Require that User has enough CAY tokens\r\n        // Require that User has enough KEN tokens\r\n        require(cayToken.balanceOf(msg.sender) >= addCAYTokenInPool,\"CAY Token Not Enough!\");\r\n        require(kenToken.balanceOf(msg.sender) >= addKENTokenInPool,\"KEN Token Not Enough!\");\r\n  \r\n        cayToken.transferFrom(msg.sender, address(this), addCAYTokenInPool);\r\n        kenToken.transferFrom(msg.sender, address(this), addKENTokenInPool);\r\n\r\n        totalShares += share;\r\n        lpShares[msg.sender] += share;\r\n      \r\n        emit PoolAreCreated(msg.sender, address(cayToken), addCAYTokenInPool, address(kenToken),addKENTokenInPool);\r\n    }\r\n\r\n    //get LP withdraw tokens based on percentage\r\n    function getWithdrawToken (uint256 _share) public view activePool returns(uint256 withdrawCAY, uint256 withdrawKEN) {\r\n        uint256 amountCAY;\r\n        uint256 amountKEN;\r\n        \r\n        amountCAY = getLPTotalCAY();\r\n        amountKEN = getLPTotalKEN();\r\n        withdrawCAY = amountCAY * _share / 100;\r\n        withdrawKEN = amountKEN * _share / 100;\r\n    }\r\n\r\n    //withdraw  tokens from pool and add the tokens back to user\r\n    function withdraw(uint256 _share) external activePool returns(uint256 _withdrawCAY, uint256 _withdrawKEN) {\r\n        require(_share > 0,\"cannot be zero value\");\r\n        (_withdrawCAY, _withdrawKEN) = getWithdrawToken(_share);\r\n        \r\n        totalCAYTokenInPool -= _withdrawCAY;\r\n        totalKENTokenInPool -= _withdrawKEN;\r\n        K = totalCAYTokenInPool * totalKENTokenInPool;\r\n\r\n        kenToken.approve(address(this), _withdrawKEN);\r\n        cayToken.approve(address(this), _withdrawCAY);\r\n        kenToken.transferFrom( address(this),msg.sender, _withdrawKEN);\r\n        cayToken.transferFrom( address(this),msg.sender, _withdrawCAY);\r\n\r\n        lpShares[msg.sender] -= _share;\r\n        totalShares -= _share;\r\n    }\r\n\r\n    // Returns the amount of TkB token that the user will get when swapping a exact amount of Eth token\r\n    function getExactCAYforKEN(uint256 _amountCAY) public view activePool returns(uint256 amountKEN) {\r\n        amountKEN = getAmountOut(_amountCAY, totalCAYTokenInPool, totalKENTokenInPool);\r\n\r\n        // To ensure that Token2's pool is not completely depleted leading to inf:0 ratio\r\n        if(amountKEN >= totalKENTokenInPool) amountKEN = totalKENTokenInPool - 1;\r\n    }\r\n    \r\n    // Returns the amount of Eth token needed to swap a exact amount of TkB token\r\n    function getCAYforExactKEN(uint256 _amountKEN) public view activePool returns(uint256 amountCAY) {\r\n        require(_amountKEN < totalKENTokenInPool, \"Insufficient pool balance\");\r\n        amountCAY = getAmountIn(_amountKEN, totalCAYTokenInPool, totalKENTokenInPool);\r\n    }\r\n\r\n    // Swaps Eth token to TkB token using algorithmic price determination\r\n    function swapCAYforKEN( uint256 _amountCAY) external activePool returns(uint256 amountKEN) {\r\n        require(_amountCAY > 0, \"amount can't be 0\");\r\n        amountKEN = getExactCAYforKEN(_amountCAY);\r\n\r\n        totalCAYTokenInPool += _amountCAY;\r\n        totalKENTokenInPool -= amountKEN;\r\n\r\n        K = totalCAYTokenInPool * totalKENTokenInPool;\r\n\r\n        cayToken.transferFrom(msg.sender, address(this), _amountCAY);\r\n        kenToken.approve( address(this), amountKEN);\r\n        kenToken.transferFrom( address(this),msg.sender, amountKEN);\r\n    }\r\n\r\n    // Returns the amount of Eth token that the user will get when swapping a exact amount of Tkb token\r\n    function getExactKENforCAY (uint256 _amountKEN) public view activePool returns(uint256 amountCAY) {\r\n        amountCAY = getAmountOut(_amountKEN, totalKENTokenInPool, totalCAYTokenInPool);\r\n\r\n        // To ensure that Token1's pool is not completely depleted leading to inf:0 ratio\r\n        if(amountCAY >= totalCAYTokenInPool) amountCAY = totalCAYTokenInPool - 1;\r\n    }\r\n    \r\n    // Returns the amount of Tkb token needed to swap a exact amount of Eth token\r\n    function getKENforExactCAY (uint256 _amountCAY) public view activePool returns(uint256 amountKEN) {\r\n        require(_amountCAY < totalCAYTokenInPool, \"Insufficient pool balance\");\r\n        amountKEN = getAmountIn(_amountCAY, totalKENTokenInPool, totalCAYTokenInPool);\r\n    }\r\n\r\n    // Swaps KEN token to CAY token using algorithmic price determination\r\n    function swapKENforCAY(uint256 _amountKEN) external activePool returns(uint256 amountCAY) {\r\n        require(_amountKEN > 0, \"amount can't be 0\");\r\n        amountCAY = getExactKENforCAY(_amountKEN);\r\n\r\n        totalKENTokenInPool += _amountKEN;\r\n        totalCAYTokenInPool -= amountCAY;\r\n        K = totalCAYTokenInPool * totalKENTokenInPool;\r\n        kenToken.transferFrom(msg.sender, address(this), _amountKEN);\r\n\r\n        cayToken.approve( address(this), amountCAY);\r\n        cayToken.transferFrom( address(this),msg.sender, amountCAY);\r\n    }\r\n\r\n    // given an input amount of an asset and pair reserves, returns the maximum output amount of the other asset\r\n    function getAmountOut(uint amountIn, uint reserveIn, uint reserveOut) internal pure returns (uint amountOut) {\r\n        require(amountIn > 0, 'UniswapV2Library: INSUFFICIENT_INPUT_AMOUNT');\r\n        require(reserveIn > 0 && reserveOut > 0, 'INSUFFICIENT_LIQUIDITY');\r\n        uint amountInWithFee = amountIn * 997;\r\n        uint numerator = amountInWithFee * (reserveOut);\r\n        uint denominator = (reserveIn * 1000) + amountInWithFee;\r\n        amountOut = numerator / denominator;\r\n    }\r\n\r\n    // given an output amount of an asset and pair reserves, returns a required input amount of the other asset\r\n    function getAmountIn(uint amountOut, uint reserveIn, uint reserveOut) internal pure returns (uint amountIn) {\r\n        require(amountOut > 0, 'UniswapV2Library: INSUFFICIENT_OUTPUT_AMOUNT');\r\n        require(reserveIn > 0 && reserveOut > 0, 'INSUFFICIENT_LIQUIDITY');\r\n        uint numerator = reserveIn * amountOut * 1000;\r\n        uint denominator = (reserveOut - amountOut) * 997;\r\n        amountIn = (numerator / denominator) + 1;\r\n    }\r\n\r\n}",
  "sourcePath": "C:\\Users\\Acer\\Desktop\\sassy\\refer2\\test\\src\\contracts\\Amm.sol",
  "compiler": {
    "name": "solc",
    "version": "0.8.11+commit.d7f03943.Emscripten.clang"
  },
  "schemaVersion": "3.4.6",
  "updatedAt": "2022-04-10T17:40:44.700Z",
  "networkType": "ethereum",
  "devdoc": {
    "kind": "dev",
    "methods": {},
    "version": 1
  },
  "userdoc": {
    "kind": "user",
    "methods": {},
    "version": 1
  }
}