{
  "contractName": "AMM",
  "abi": [
    {
      "inputs": [
        {
          "internalType": "contract CAYTOKEN",
          "name": "_cayToken",
          "type": "address"
        },
        {
          "internalType": "contract KENTOKEN",
          "name": "_kenToken",
          "type": "address"
        }
      ],
      "stateMutability": "nonpayable",
      "type": "constructor"
    },
    {
      "anonymous": false,
      "inputs": [
        {
          "indexed": false,
          "internalType": "address",
          "name": "account",
          "type": "address"
        },
        {
          "indexed": false,
          "internalType": "address",
          "name": "cayToken",
          "type": "address"
        },
        {
          "indexed": false,
          "internalType": "uint256",
          "name": "cayAmount",
          "type": "uint256"
        },
        {
          "indexed": false,
          "internalType": "address",
          "name": "kenToken",
          "type": "address"
        },
        {
          "indexed": false,
          "internalType": "uint256",
          "name": "kenAmount",
          "type": "uint256"
        }
      ],
      "name": "PoolAreCreated",
      "type": "event"
    },
    {
      "inputs": [],
      "name": "cayToken",
      "outputs": [
        {
          "internalType": "contract CAYTOKEN",
          "name": "",
          "type": "address"
        }
      ],
      "stateMutability": "view",
      "type": "function",
      "constant": true
    },
    {
      "inputs": [],
      "name": "kenToken",
      "outputs": [
        {
          "internalType": "contract KENTOKEN",
          "name": "",
          "type": "address"
        }
      ],
      "stateMutability": "view",
      "type": "function",
      "constant": true
    },
    {
      "inputs": [],
      "name": "totalCAYTokenInPool",
      "outputs": [
        {
          "internalType": "uint256",
          "name": "",
          "type": "uint256"
        }
      ],
      "stateMutability": "view",
      "type": "function",
      "constant": true
    },
    {
      "inputs": [],
      "name": "totalKENTokenInPool",
      "outputs": [
        {
          "internalType": "uint256",
          "name": "",
          "type": "uint256"
        }
      ],
      "stateMutability": "view",
      "type": "function",
      "constant": true
    },
    {
      "inputs": [],
      "name": "checkBothTokenAmountInPool",
      "outputs": [
        {
          "internalType": "uint256",
          "name": "",
          "type": "uint256"
        },
        {
          "internalType": "uint256",
          "name": "",
          "type": "uint256"
        }
      ],
      "stateMutability": "view",
      "type": "function",
      "constant": true
    },
    {
      "inputs": [],
      "name": "getLPTotalCAY",
      "outputs": [
        {
          "internalType": "uint256",
          "name": "_lpCAYBalance",
          "type": "uint256"
        }
      ],
      "stateMutability": "view",
      "type": "function",
      "constant": true
    },
    {
      "inputs": [],
      "name": "getLPTotalKEN",
      "outputs": [
        {
          "internalType": "uint256",
          "name": "_lpKENBalance",
          "type": "uint256"
        }
      ],
      "stateMutability": "view",
      "type": "function",
      "constant": true
    },
    {
      "inputs": [
        {
          "internalType": "uint256",
          "name": "_kenToken",
          "type": "uint256"
        }
      ],
      "name": "getAddPoolCAYRequirement",
      "outputs": [
        {
          "internalType": "uint256",
          "name": "reqCAYToken",
          "type": "uint256"
        }
      ],
      "stateMutability": "view",
      "type": "function",
      "constant": true
    },
    {
      "inputs": [
        {
          "internalType": "uint256",
          "name": "_cayToken",
          "type": "uint256"
        }
      ],
      "name": "getAddPoolKENRequirement",
      "outputs": [
        {
          "internalType": "uint256",
          "name": "reqKENToken",
          "type": "uint256"
        }
      ],
      "stateMutability": "view",
      "type": "function",
      "constant": true
    },
    {
      "inputs": [
        {
          "internalType": "uint256",
          "name": "addCAYTokenInPool",
          "type": "uint256"
        },
        {
          "internalType": "uint256",
          "name": "addKENTokenInPool",
          "type": "uint256"
        }
      ],
      "name": "createPool",
      "outputs": [],
      "stateMutability": "payable",
      "type": "function",
      "payable": true
    },
    {
      "inputs": [
        {
          "internalType": "uint256",
          "name": "_share",
          "type": "uint256"
        }
      ],
      "name": "getWithdrawToken",
      "outputs": [
        {
          "internalType": "uint256",
          "name": "withdrawCAY",
          "type": "uint256"
        },
        {
          "internalType": "uint256",
          "name": "withdrawKEN",
          "type": "uint256"
        }
      ],
      "stateMutability": "view",
      "type": "function",
      "constant": true
    },
    {
      "inputs": [
        {
          "internalType": "uint256",
          "name": "_share",
          "type": "uint256"
        }
      ],
      "name": "withdraw",
      "outputs": [
        {
          "internalType": "uint256",
          "name": "_withdrawCAY",
          "type": "uint256"
        },
        {
          "internalType": "uint256",
          "name": "_withdrawKEN",
          "type": "uint256"
        }
      ],
      "stateMutability": "nonpayable",
      "type": "function"
    },
    {
      "inputs": [
        {
          "internalType": "uint256",
          "name": "_amountCAY",
          "type": "uint256"
        }
      ],
      "name": "getExactCAYforKEN",
      "outputs": [
        {
          "internalType": "uint256",
          "name": "amountKEN",
          "type": "uint256"
        }
      ],
      "stateMutability": "view",
      "type": "function",
      "constant": true
    },
    {
      "inputs": [
        {
          "internalType": "uint256",
          "name": "_amountKEN",
          "type": "uint256"
        }
      ],
      "name": "getCAYforExactKEN",
      "outputs": [
        {
          "internalType": "uint256",
          "name": "amountCAY",
          "type": "uint256"
        }
      ],
      "stateMutability": "view",
      "type": "function",
      "constant": true
    },
    {
      "inputs": [
        {
          "internalType": "uint256",
          "name": "_amountCAY",
          "type": "uint256"
        }
      ],
      "name": "swapCAYforKEN",
      "outputs": [
        {
          "internalType": "uint256",
          "name": "amountKEN",
          "type": "uint256"
        }
      ],
      "stateMutability": "nonpayable",
      "type": "function"
    },
    {
      "inputs": [
        {
          "internalType": "uint256",
          "name": "_amountKEN",
          "type": "uint256"
        }
      ],
      "name": "getExactKENforCAY",
      "outputs": [
        {
          "internalType": "uint256",
          "name": "amountCAY",
          "type": "uint256"
        }
      ],
      "stateMutability": "view",
      "type": "function",
      "constant": true
    },
    {
      "inputs": [
        {
          "internalType": "uint256",
          "name": "_amountCAY",
          "type": "uint256"
        }
      ],
      "name": "getKENforExactCAY",
      "outputs": [
        {
          "internalType": "uint256",
          "name": "amountKEN",
          "type": "uint256"
        }
      ],
      "stateMutability": "view",
      "type": "function",
      "constant": true
    },
    {
      "inputs": [
        {
          "internalType": "uint256",
          "name": "_amountKEN",
          "type": "uint256"
        }
      ],
      "name": "swapKENforCAY",
      "outputs": [
        {
          "internalType": "uint256",
          "name": "amountCAY",
          "type": "uint256"
        }
      ],
      "stateMutability": "nonpayable",
      "type": "function"
    }
  ],
  "bytecode": "0x60806040523480156200001157600080fd5b50604051620026d8380380620026d8833981810160405281019062000037919062000184565b81600460006101000a81548173ffffffffffffffffffffffffffffffffffffffff021916908373ffffffffffffffffffffffffffffffffffffffff16021790555080600560006101000a81548173ffffffffffffffffffffffffffffffffffffffff021916908373ffffffffffffffffffffffffffffffffffffffff1602179055505050620001cb565b600080fd5b600073ffffffffffffffffffffffffffffffffffffffff82169050919050565b6000620000f382620000c6565b9050919050565b60006200010782620000e6565b9050919050565b6200011981620000fa565b81146200012557600080fd5b50565b60008151905062000139816200010e565b92915050565b60006200014c82620000e6565b9050919050565b6200015e816200013f565b81146200016a57600080fd5b50565b6000815190506200017e8162000153565b92915050565b600080604083850312156200019e576200019d620000c1565b5b6000620001ae8582860162000128565b9250506020620001c1858286016200016d565b9150509250929050565b6124fd80620001db6000396000f3fe6080604052600436106101095760003560e01c80638055beb211610095578063acfeec4c11610064578063acfeec4c146103c1578063ae9c9688146103ec578063b562f71f14610417578063bf87d7b614610442578063c5d386e91461047f57610109565b80638055beb2146103025780638427f41c1461032d578063a21208ed1461036a578063a64ace071461039557610109565b80632e1a7d4d116100dc5780632e1a7d4d146101f15780634d4a2a7e1461022f57806364bd98491461026c578063734b47c0146102a957806374a110c2146102e657610109565b80630918d5861461010e57806316a24ae31461014c5780631f4cd48e146101895780632758d89b146101c6575b600080fd5b34801561011a57600080fd5b5061013560048036038101906101309190611adb565b6104bc565b604051610143929190611b17565b60405180910390f35b34801561015857600080fd5b50610173600480360381019061016e9190611adb565b610563565b6040516101809190611b40565b60405180910390f35b34801561019557600080fd5b506101b060048036038101906101ab9190611adb565b6105e7565b6040516101bd9190611b40565b60405180910390f35b3480156101d257600080fd5b506101db610695565b6040516101e89190611b40565b60405180910390f35b3480156101fd57600080fd5b5061021860048036038101906102139190611adb565b6106f6565b604051610226929190611b17565b60405180910390f35b34801561023b57600080fd5b5061025660048036038101906102519190611adb565b610ae2565b6040516102639190611b40565b60405180910390f35b34801561027857600080fd5b50610293600480360381019061028e9190611adb565b610db7565b6040516102a09190611b40565b60405180910390f35b3480156102b557600080fd5b506102d060048036038101906102cb9190611adb565b610e2d565b6040516102dd9190611b40565b60405180910390f35b61030060048036038101906102fb9190611b5b565b610ea3565b005b34801561030e57600080fd5b506103176113f4565b6040516103249190611c1a565b60405180910390f35b34801561033957600080fd5b50610354600480360381019061034f9190611adb565b61141a565b6040516103619190611b40565b60405180910390f35b34801561037657600080fd5b5061037f6116ef565b60405161038c9190611b40565b60405180910390f35b3480156103a157600080fd5b506103aa6116f5565b6040516103b8929190611b17565b60405180910390f35b3480156103cd57600080fd5b506103d6611706565b6040516103e39190611c56565b60405180910390f35b3480156103f857600080fd5b5061040161172c565b60405161040e9190611b40565b60405180910390f35b34801561042357600080fd5b5061042c61178d565b6040516104399190611b40565b60405180910390f35b34801561044e57600080fd5b5061046960048036038101906104649190611adb565b611793565b6040516104769190611b40565b60405180910390f35b34801561048b57600080fd5b506104a660048036038101906104a19190611adb565b611818565b6040516104b39190611b40565b60405180910390f35b600080600080541180156104d257506000600154115b610511576040517f08c379a000000000000000000000000000000000000000000000000000000000815260040161050890611cf4565b60405180910390fd5b60008061051c61172c565b9150610526610695565b9050606485836105369190611d43565b6105409190611dcc565b9350606485826105509190611d43565b61055a9190611dcc565b92505050915091565b60008060005411801561057857506000600154115b6105b7576040517f08c379a00000000000000000000000000000000000000000000000000000000081526004016105ae90611cf4565b60405180910390fd5b6105c6826000546001546118c6565b905060015481106105e257600180546105df9190611dfd565b90505b919050565b6000806000541180156105fc57506000600154115b61063b576040517f08c379a000000000000000000000000000000000000000000000000000000000815260040161063290611cf4565b60405180910390fd5b600054821061067f576040517f08c379a000000000000000000000000000000000000000000000000000000000815260040161067690611e7d565b60405180910390fd5b61068e826001546000546119b0565b9050919050565b6000600354600154600660003373ffffffffffffffffffffffffffffffffffffffff1673ffffffffffffffffffffffffffffffffffffffff168152602001908152602001600020546106e79190611d43565b6106f19190611dcc565b905090565b6000806000805411801561070c57506000600154115b61074b576040517f08c379a000000000000000000000000000000000000000000000000000000000815260040161074290611cf4565b60405180910390fd5b6000831161078e576040517f08c379a000000000000000000000000000000000000000000000000000000000815260040161078590611ee9565b60405180910390fd5b610797836104bc565b8092508193505050816000808282546107b09190611dfd565b9250508190555080600160008282546107c99190611dfd565b925050819055506001546000546107e09190611d43565b600281905550600560009054906101000a900473ffffffffffffffffffffffffffffffffffffffff1673ffffffffffffffffffffffffffffffffffffffff1663095ea7b330836040518363ffffffff1660e01b8152600401610843929190611f2a565b6020604051808303816000875af1158015610862573d6000803e3d6000fd5b505050506040513d601f19601f820116820180604052508101906108869190611f8b565b50600460009054906101000a900473ffffffffffffffffffffffffffffffffffffffff1673ffffffffffffffffffffffffffffffffffffffff1663095ea7b330846040518363ffffffff1660e01b81526004016108e4929190611f2a565b6020604051808303816000875af1158015610903573d6000803e3d6000fd5b505050506040513d601f19601f820116820180604052508101906109279190611f8b565b50600560009054906101000a900473ffffffffffffffffffffffffffffffffffffffff1673ffffffffffffffffffffffffffffffffffffffff166323b872dd3033846040518463ffffffff1660e01b815260040161098793929190611fb8565b6020604051808303816000875af11580156109a6573d6000803e3d6000fd5b505050506040513d601f19601f820116820180604052508101906109ca9190611f8b565b50600460009054906101000a900473ffffffffffffffffffffffffffffffffffffffff1673ffffffffffffffffffffffffffffffffffffffff166323b872dd3033856040518463ffffffff1660e01b8152600401610a2a93929190611fb8565b6020604051808303816000875af1158015610a49573d6000803e3d6000fd5b505050506040513d601f19601f82011682018060405250810190610a6d9190611f8b565b5082600660003373ffffffffffffffffffffffffffffffffffffffff1673ffffffffffffffffffffffffffffffffffffffff1681526020019081526020016000206000828254610abd9190611dfd565b925050819055508260036000828254610ad69190611dfd565b92505081905550915091565b600080600054118015610af757506000600154115b610b36576040517f08c379a0000000000000000000000000000000000000000000000000000000008152600401610b2d90611cf4565b60405180910390fd5b60008211610b79576040517f08c379a0000000000000000000000000000000000000000000000000000000008152600401610b709061203b565b60405180910390fd5b610b8282610563565b905081600080828254610b95919061205b565b925050819055508060016000828254610bae9190611dfd565b92505081905550600154600054610bc59190611d43565b600281905550600460009054906101000a900473ffffffffffffffffffffffffffffffffffffffff1673ffffffffffffffffffffffffffffffffffffffff166323b872dd3330856040518463ffffffff1660e01b8152600401610c2a93929190611fb8565b6020604051808303816000875af1158015610c49573d6000803e3d6000fd5b505050506040513d601f19601f82011682018060405250810190610c6d9190611f8b565b50600560009054906101000a900473ffffffffffffffffffffffffffffffffffffffff1673ffffffffffffffffffffffffffffffffffffffff1663095ea7b330836040518363ffffffff1660e01b8152600401610ccb929190611f2a565b6020604051808303816000875af1158015610cea573d6000803e3d6000fd5b505050506040513d601f19601f82011682018060405250810190610d0e9190611f8b565b50600560009054906101000a900473ffffffffffffffffffffffffffffffffffffffff1673ffffffffffffffffffffffffffffffffffffffff166323b872dd3033846040518463ffffffff1660e01b8152600401610d6e93929190611fb8565b6020604051808303816000875af1158015610d8d573d6000803e3d6000fd5b505050506040513d601f19601f82011682018060405250810190610db19190611f8b565b50919050565b600080600054118015610dcc57506000600154115b610e0b576040517f08c379a0000000000000000000000000000000000000000000000000000000008152600401610e0290611cf4565b60405180910390fd5b60005460015483610e1c9190611d43565b610e269190611dcc565b9050919050565b600080600054118015610e4257506000600154115b610e81576040517f08c379a0000000000000000000000000000000000000000000000000000000008152600401610e7890611cf4565b60405180910390fd5b60015460005483610e929190611d43565b610e9c9190611dcc565b9050919050565b6000821180610eb25750600081115b610ef1576040517f08c379a0000000000000000000000000000000000000000000000000000000008152600401610ee8906120fd565b60405180910390fd5b6000806000541480610f0557506000600154145b15610f45578260008190555081600181905550600154600054610f289190611d43565b600281905550620f42406064610f3e9190611d43565b9050610ffb565b82600080828254610f56919061205b565b925050819055508160016000828254610f6f919061205b565b925050819055506000805484600354610f889190611d43565b610f929190611dcc565b9050600060015484600354610fa79190611d43565b610fb19190611dcc565b9050808214610ff5576040517f08c379a0000000000000000000000000000000000000000000000000000000008152600401610fec9061218f565b60405180910390fd5b81925050505b82600460009054906101000a900473ffffffffffffffffffffffffffffffffffffffff1673ffffffffffffffffffffffffffffffffffffffff166370a08231336040518263ffffffff1660e01b815260040161105791906121af565b602060405180830381865afa158015611074573d6000803e3d6000fd5b505050506040513d601f19601f8201168201806040525081019061109891906121df565b10156110d9576040517f08c379a00000000000000000000000000000000000000000000000000000000081526004016110d090612258565b60405180910390fd5b81600560009054906101000a900473ffffffffffffffffffffffffffffffffffffffff1673ffffffffffffffffffffffffffffffffffffffff166370a08231336040518263ffffffff1660e01b815260040161113591906121af565b602060405180830381865afa158015611152573d6000803e3d6000fd5b505050506040513d601f19601f8201168201806040525081019061117691906121df565b10156111b7576040517f08c379a00000000000000000000000000000000000000000000000000000000081526004016111ae906122c4565b60405180910390fd5b600460009054906101000a900473ffffffffffffffffffffffffffffffffffffffff1673ffffffffffffffffffffffffffffffffffffffff166323b872dd3330866040518463ffffffff1660e01b815260040161121693929190611fb8565b6020604051808303816000875af1158015611235573d6000803e3d6000fd5b505050506040513d601f19601f820116820180604052508101906112599190611f8b565b50600560009054906101000a900473ffffffffffffffffffffffffffffffffffffffff1673ffffffffffffffffffffffffffffffffffffffff166323b872dd3330856040518463ffffffff1660e01b81526004016112b993929190611fb8565b6020604051808303816000875af11580156112d8573d6000803e3d6000fd5b505050506040513d601f19601f820116820180604052508101906112fc9190611f8b565b50806003600082825461130f919061205b565b9250508190555080600660003373ffffffffffffffffffffffffffffffffffffffff1673ffffffffffffffffffffffffffffffffffffffff1681526020019081526020016000206000828254611365919061205b565b925050819055507fc29054f90051b44a9da91ea7d71fa8c6e0ffcd8ff6c8ace38a219031837cadf833600460009054906101000a900473ffffffffffffffffffffffffffffffffffffffff1685600560009054906101000a900473ffffffffffffffffffffffffffffffffffffffff16866040516113e79594939291906122e4565b60405180910390a1505050565b600460009054906101000a900473ffffffffffffffffffffffffffffffffffffffff1681565b60008060005411801561142f57506000600154115b61146e576040517f08c379a000000000000000000000000000000000000000000000000000000000815260040161146590611cf4565b60405180910390fd5b600082116114b1576040517f08c379a00000000000000000000000000000000000000000000000000000000081526004016114a89061203b565b60405180910390fd5b6114ba82611793565b905081600160008282546114ce919061205b565b92505081905550806000808282546114e69190611dfd565b925050819055506001546000546114fd9190611d43565b600281905550600560009054906101000a900473ffffffffffffffffffffffffffffffffffffffff1673ffffffffffffffffffffffffffffffffffffffff166323b872dd3330856040518463ffffffff1660e01b815260040161156293929190611fb8565b6020604051808303816000875af1158015611581573d6000803e3d6000fd5b505050506040513d601f19601f820116820180604052508101906115a59190611f8b565b50600460009054906101000a900473ffffffffffffffffffffffffffffffffffffffff1673ffffffffffffffffffffffffffffffffffffffff1663095ea7b330836040518363ffffffff1660e01b8152600401611603929190611f2a565b6020604051808303816000875af1158015611622573d6000803e3d6000fd5b505050506040513d601f19601f820116820180604052508101906116469190611f8b565b50600460009054906101000a900473ffffffffffffffffffffffffffffffffffffffff1673ffffffffffffffffffffffffffffffffffffffff166323b872dd3033846040518463ffffffff1660e01b81526004016116a693929190611fb8565b6020604051808303816000875af11580156116c5573d6000803e3d6000fd5b505050506040513d601f19601f820116820180604052508101906116e99190611f8b565b50919050565b60015481565b600080600054600154915091509091565b600560009054906101000a900473ffffffffffffffffffffffffffffffffffffffff1681565b6000600354600054600660003373ffffffffffffffffffffffffffffffffffffffff1673ffffffffffffffffffffffffffffffffffffffff1681526020019081526020016000205461177e9190611d43565b6117889190611dcc565b905090565b60005481565b6000806000541180156117a857506000600154115b6117e7576040517f08c379a00000000000000000000000000000000000000000000000000000000081526004016117de90611cf4565b60405180910390fd5b6117f6826001546000546118c6565b905060005481106118135760016000546118109190611dfd565b90505b919050565b60008060005411801561182d57506000600154115b61186c576040517f08c379a000000000000000000000000000000000000000000000000000000000815260040161186390611cf4565b60405180910390fd5b60015482106118b0576040517f08c379a00000000000000000000000000000000000000000000000000000000081526004016118a790611e7d565b60405180910390fd5b6118bf826000546001546119b0565b9050919050565b600080841161190a576040517f08c379a0000000000000000000000000000000000000000000000000000000008152600401611901906123a9565b60405180910390fd5b60008311801561191a5750600082115b611959576040517f08c379a000000000000000000000000000000000000000000000000000000000815260040161195090612415565b60405180910390fd5b60006103e5856119699190611d43565b9050600083826119799190611d43565b90506000826103e88761198c9190611d43565b611996919061205b565b905080826119a49190611dcc565b93505050509392505050565b60008084116119f4576040517f08c379a00000000000000000000000000000000000000000000000000000000081526004016119eb906124a7565b60405180910390fd5b600083118015611a045750600082115b611a43576040517f08c379a0000000000000000000000000000000000000000000000000000000008152600401611a3a90612415565b60405180910390fd5b60006103e88585611a549190611d43565b611a5e9190611d43565b905060006103e58685611a719190611dfd565b611a7b9190611d43565b905060018183611a8b9190611dcc565b611a95919061205b565b925050509392505050565b600080fd5b6000819050919050565b611ab881611aa5565b8114611ac357600080fd5b50565b600081359050611ad581611aaf565b92915050565b600060208284031215611af157611af0611aa0565b5b6000611aff84828501611ac6565b91505092915050565b611b1181611aa5565b82525050565b6000604082019050611b2c6000830185611b08565b611b396020830184611b08565b9392505050565b6000602082019050611b556000830184611b08565b92915050565b60008060408385031215611b7257611b71611aa0565b5b6000611b8085828601611ac6565b9250506020611b9185828601611ac6565b9150509250929050565b600073ffffffffffffffffffffffffffffffffffffffff82169050919050565b6000819050919050565b6000611be0611bdb611bd684611b9b565b611bbb565b611b9b565b9050919050565b6000611bf282611bc5565b9050919050565b6000611c0482611be7565b9050919050565b611c1481611bf9565b82525050565b6000602082019050611c2f6000830184611c0b565b92915050565b6000611c4082611be7565b9050919050565b611c5081611c35565b82525050565b6000602082019050611c6b6000830184611c47565b92915050565b600082825260208201905092915050565b7f456d70747920706f6f6c2c20706c6561736520616464206c697175696469747960008201527f2e00000000000000000000000000000000000000000000000000000000000000602082015250565b6000611cde602183611c71565b9150611ce982611c82565b604082019050919050565b60006020820190508181036000830152611d0d81611cd1565b9050919050565b7f4e487b7100000000000000000000000000000000000000000000000000000000600052601160045260246000fd5b6000611d4e82611aa5565b9150611d5983611aa5565b9250817fffffffffffffffffffffffffffffffffffffffffffffffffffffffffffffffff0483118215151615611d9257611d91611d14565b5b828202905092915050565b7f4e487b7100000000000000000000000000000000000000000000000000000000600052601260045260246000fd5b6000611dd782611aa5565b9150611de283611aa5565b925082611df257611df1611d9d565b5b828204905092915050565b6000611e0882611aa5565b9150611e1383611aa5565b925082821015611e2657611e25611d14565b5b828203905092915050565b7f496e73756666696369656e7420706f6f6c2062616c616e636500000000000000600082015250565b6000611e67601983611c71565b9150611e7282611e31565b602082019050919050565b60006020820190508181036000830152611e9681611e5a565b9050919050565b7f63616e6e6f74206265207a65726f2076616c7565000000000000000000000000600082015250565b6000611ed3601483611c71565b9150611ede82611e9d565b602082019050919050565b60006020820190508181036000830152611f0281611ec6565b9050919050565b6000611f1482611b9b565b9050919050565b611f2481611f09565b82525050565b6000604082019050611f3f6000830185611f1b565b611f4c6020830184611b08565b9392505050565b60008115159050919050565b611f6881611f53565b8114611f7357600080fd5b50565b600081519050611f8581611f5f565b92915050565b600060208284031215611fa157611fa0611aa0565b5b6000611faf84828501611f76565b91505092915050565b6000606082019050611fcd6000830186611f1b565b611fda6020830185611f1b565b611fe76040830184611b08565b949350505050565b7f616d6f756e742063616e27742062652030000000000000000000000000000000600082015250565b6000612025601183611c71565b915061203082611fef565b602082019050919050565b6000602082019050818103600083015261205481612018565b9050919050565b600061206682611aa5565b915061207183611aa5565b9250827fffffffffffffffffffffffffffffffffffffffffffffffffffffffffffffffff038211156120a6576120a5611d14565b5b828201905092915050565b7f4e656564206d6f7265207468616e205a65726f2076616c756500000000000000600082015250565b60006120e7601983611c71565b91506120f2826120b1565b602082019050919050565b60006020820190508181036000830152612116816120da565b9050919050565b7f4571756976616c656e742076616c7565206f6620746f6b656e73206e6f74207060008201527f726f76696465642e2e2e00000000000000000000000000000000000000000000602082015250565b6000612179602a83611c71565b91506121848261211d565b604082019050919050565b600060208201905081810360008301526121a88161216c565b9050919050565b60006020820190506121c46000830184611f1b565b92915050565b6000815190506121d981611aaf565b92915050565b6000602082840312156121f5576121f4611aa0565b5b6000612203848285016121ca565b91505092915050565b7f43415920546f6b656e204e6f7420456e6f756768210000000000000000000000600082015250565b6000612242601583611c71565b915061224d8261220c565b602082019050919050565b6000602082019050818103600083015261227181612235565b9050919050565b7f4b454e20546f6b656e204e6f7420456e6f756768210000000000000000000000600082015250565b60006122ae601583611c71565b91506122b982612278565b602082019050919050565b600060208201905081810360008301526122dd816122a1565b9050919050565b600060a0820190506122f96000830188611f1b565b6123066020830187611f1b565b6123136040830186611b08565b6123206060830185611f1b565b61232d6080830184611b08565b9695505050505050565b7f556e697377617056324c6962726172793a20494e53554646494349454e545f4960008201527f4e5055545f414d4f554e54000000000000000000000000000000000000000000602082015250565b6000612393602b83611c71565b915061239e82612337565b604082019050919050565b600060208201905081810360008301526123c281612386565b9050919050565b7f494e53554646494349454e545f4c495155494449545900000000000000000000600082015250565b60006123ff601683611c71565b915061240a826123c9565b602082019050919050565b6000602082019050818103600083015261242e816123f2565b9050919050565b7f556e697377617056324c6962726172793a20494e53554646494349454e545f4f60008201527f55545055545f414d4f554e540000000000000000000000000000000000000000602082015250565b6000612491602c83611c71565b915061249c82612435565b604082019050919050565b600060208201905081810360008301526124c081612484565b905091905056fea2646970667358221220c16e86e2131e02b560cea5d05665dbea0d269166f8e5cb908e6fd9ace33c267164736f6c634300080b0033",
  "immutableReferences": {},
  "source": "// SPDX-License-Identifier: GPL-3.0\r\npragma solidity ^0.8.0;\r\n\r\nimport \"./CAYTOKEN.sol\";\r\nimport \"./KENTOKEN.sol\";\r\nimport \"hardhat/console.sol\";\r\n\r\ncontract AMM {\r\n\r\n    //1000000000000000000\r\n    uint256 public totalCAYTokenInPool;//total amount of CAY token in the pool\r\n    uint256 public totalKENTokenInPool;//total amount of KEN token in the pool\r\n    uint256 K;//K constant in X*Y = K\r\n    uint256 totalShares;\r\n    \r\n    uint constant PRECISION = 1_000_000;\r\n\r\n    CAYTOKEN public cayToken;\r\n    KENTOKEN public kenToken;\r\n\r\n    mapping(address => uint256) lpShares;\r\n    \r\n    event PoolAreCreated(\r\n    address account,\r\n    address cayToken,\r\n    uint cayAmount,\r\n    address kenToken,\r\n    uint kenAmount\r\n  );\r\n\r\n    constructor(CAYTOKEN _cayToken,KENTOKEN _kenToken){\r\n    cayToken = _cayToken;\r\n    kenToken = _kenToken;\r\n  }\r\n\r\n    //no liquidity, cannot withdraw from liquidity pool\r\n    modifier activePool() {\r\n        require(totalCAYTokenInPool > 0 && totalKENTokenInPool > 0, \"Empty pool, please add liquidity.\");\r\n        _;\r\n    }\r\n\r\n    //get the liquidity pool total Eth token, TkB token\r\n    function checkBothTokenAmountInPool() public view returns(uint256, uint256) {\r\n        return (totalCAYTokenInPool,totalKENTokenInPool);\r\n    }\r\n\r\n\r\n    //get LP balance token in the pool\r\n    function getLPTotalCAY() public view returns (uint256 _lpCAYBalance) {\r\n        _lpCAYBalance = lpShares[msg.sender] * totalCAYTokenInPool / totalShares;\r\n    }\r\n\r\n    function getLPTotalKEN() public view returns (uint256 _lpKENBalance) {\r\n        _lpKENBalance = lpShares[msg.sender] * totalKENTokenInPool / totalShares;\r\n    }\r\n\r\n    //to get the total Tkb token needed to add into pool\r\n    function getAddPoolCAYRequirement(uint256 _kenToken) public view activePool returns(uint256 reqCAYToken) {\r\n        reqCAYToken = _kenToken * totalCAYTokenInPool / totalKENTokenInPool ;\r\n    }\r\n\r\n    //to get the total eth token needed to add into pool\r\n    function getAddPoolKENRequirement(uint256 _cayToken) public view activePool returns(uint256 reqKENToken) {\r\n        reqKENToken = _cayToken * totalKENTokenInPool / totalCAYTokenInPool ;\r\n    }\r\n\r\n\r\n    //add liquidity into the pool, set K constant if first added, store share % into user\r\n    function createPool(\r\n        uint256 addCAYTokenInPool, \r\n        uint256 addKENTokenInPool\r\n        ) payable public {\r\n        require(addCAYTokenInPool > 0 || addKENTokenInPool > 0, \"Need more than Zero value\");\r\n        uint256 share;\r\n        if(totalCAYTokenInPool == 0 || totalKENTokenInPool == 0)  // Genesis liquidity is issued 100 Shares\r\n        {\r\n            totalCAYTokenInPool = addCAYTokenInPool;\r\n            totalKENTokenInPool = addKENTokenInPool;\r\n            K = totalCAYTokenInPool * totalKENTokenInPool;\r\n            share = 100 * PRECISION;\r\n        }\r\n        else\r\n        {\r\n            totalCAYTokenInPool += addCAYTokenInPool;\r\n            totalKENTokenInPool += addKENTokenInPool;\r\n            uint256 share1 = totalShares * addCAYTokenInPool / totalCAYTokenInPool;\r\n            uint256 share2 = totalShares * addKENTokenInPool / totalKENTokenInPool;\r\n            require(share1 == share2, \"Equivalent value of tokens not provided...\");\r\n            share = share1;\r\n        }\r\n    \r\n        // Require that User has enough CAY tokens\r\n        // Require that User has enough KEN tokens\r\n        require(cayToken.balanceOf(msg.sender) >= addCAYTokenInPool,\"CAY Token Not Enough!\");\r\n        require(kenToken.balanceOf(msg.sender) >= addKENTokenInPool,\"KEN Token Not Enough!\");\r\n  \r\n        cayToken.transferFrom(msg.sender, address(this), addCAYTokenInPool);\r\n        kenToken.transferFrom(msg.sender, address(this), addKENTokenInPool);\r\n\r\n        totalShares += share;\r\n        lpShares[msg.sender] += share;\r\n      \r\n        emit PoolAreCreated(msg.sender, address(cayToken), addCAYTokenInPool, address(kenToken),addKENTokenInPool);\r\n    }\r\n\r\n    //get LP withdraw tokens based on percentage\r\n    function getWithdrawToken (uint256 _share) public view activePool returns(uint256 withdrawCAY, uint256 withdrawKEN) {\r\n        uint256 amountCAY;\r\n        uint256 amountKEN;\r\n        \r\n        amountCAY = getLPTotalCAY();\r\n        amountKEN = getLPTotalKEN();\r\n        withdrawCAY = amountCAY * _share / 100;\r\n        withdrawKEN = amountKEN * _share / 100;\r\n    }\r\n\r\n    //withdraw  tokens from pool and add the tokens back to user\r\n    function withdraw(uint256 _share) external activePool returns(uint256 _withdrawCAY, uint256 _withdrawKEN) {\r\n        require(_share > 0,\"cannot be zero value\");\r\n        (_withdrawCAY, _withdrawKEN) = getWithdrawToken(_share);\r\n        \r\n        totalCAYTokenInPool -= _withdrawCAY;\r\n        totalKENTokenInPool -= _withdrawKEN;\r\n        K = totalCAYTokenInPool * totalKENTokenInPool;\r\n\r\n        kenToken.approve(address(this), _withdrawKEN);\r\n        cayToken.approve(address(this), _withdrawCAY);\r\n        kenToken.transferFrom( address(this),msg.sender, _withdrawKEN);\r\n        cayToken.transferFrom( address(this),msg.sender, _withdrawCAY);\r\n\r\n        lpShares[msg.sender] -= _share;\r\n        totalShares -= _share;\r\n    }\r\n\r\n    // Returns the amount of TkB token that the user will get when swapping a exact amount of Eth token\r\n    function getExactCAYforKEN(uint256 _amountCAY) public view activePool returns(uint256 amountKEN) {\r\n        amountKEN = getAmountOut(_amountCAY, totalCAYTokenInPool, totalKENTokenInPool);\r\n\r\n        // To ensure that Token2's pool is not completely depleted leading to inf:0 ratio\r\n        if(amountKEN >= totalKENTokenInPool) amountKEN = totalKENTokenInPool - 1;\r\n    }\r\n    \r\n    // Returns the amount of Eth token needed to swap a exact amount of TkB token\r\n    function getCAYforExactKEN(uint256 _amountKEN) public view activePool returns(uint256 amountCAY) {\r\n        require(_amountKEN < totalKENTokenInPool, \"Insufficient pool balance\");\r\n        amountCAY = getAmountIn(_amountKEN, totalCAYTokenInPool, totalKENTokenInPool);\r\n    }\r\n\r\n    // Swaps Eth token to TkB token using algorithmic price determination\r\n    function swapCAYforKEN( uint256 _amountCAY) external activePool returns(uint256 amountKEN) {\r\n        require(_amountCAY > 0, \"amount can't be 0\");\r\n        amountKEN = getExactCAYforKEN(_amountCAY);\r\n\r\n        totalCAYTokenInPool += _amountCAY;\r\n        totalKENTokenInPool -= amountKEN;\r\n\r\n        K = totalCAYTokenInPool * totalKENTokenInPool;\r\n\r\n        cayToken.transferFrom(msg.sender, address(this), _amountCAY);\r\n        kenToken.approve( address(this), amountKEN);\r\n        kenToken.transferFrom( address(this),msg.sender, amountKEN);\r\n    }\r\n\r\n    // Returns the amount of Eth token that the user will get when swapping a exact amount of Tkb token\r\n    function getExactKENforCAY (uint256 _amountKEN) public view activePool returns(uint256 amountCAY) {\r\n        amountCAY = getAmountOut(_amountKEN, totalKENTokenInPool, totalCAYTokenInPool);\r\n\r\n        // To ensure that Token1's pool is not completely depleted leading to inf:0 ratio\r\n        if(amountCAY >= totalCAYTokenInPool) amountCAY = totalCAYTokenInPool - 1;\r\n    }\r\n    \r\n    // Returns the amount of Tkb token needed to swap a exact amount of Eth token\r\n    function getKENforExactCAY (uint256 _amountCAY) public view activePool returns(uint256 amountKEN) {\r\n        require(_amountCAY < totalCAYTokenInPool, \"Insufficient pool balance\");\r\n        amountKEN = getAmountIn(_amountCAY, totalKENTokenInPool, totalCAYTokenInPool);\r\n    }\r\n\r\n    // Swaps KEN token to CAY token using algorithmic price determination\r\n    function swapKENforCAY(uint256 _amountKEN) external activePool returns(uint256 amountCAY) {\r\n        require(_amountKEN > 0, \"amount can't be 0\");\r\n        amountCAY = getExactKENforCAY(_amountKEN);\r\n\r\n        totalKENTokenInPool += _amountKEN;\r\n        totalCAYTokenInPool -= amountCAY;\r\n        K = totalCAYTokenInPool * totalKENTokenInPool;\r\n        kenToken.transferFrom(msg.sender, address(this), _amountKEN);\r\n\r\n        cayToken.approve( address(this), amountCAY);\r\n        cayToken.transferFrom( address(this),msg.sender, amountCAY);\r\n    }\r\n\r\n    // given an input amount of an asset and pair reserves, returns the maximum output amount of the other asset\r\n    function getAmountOut(uint amountIn, uint reserveIn, uint reserveOut) internal pure returns (uint amountOut) {\r\n        require(amountIn > 0, 'UniswapV2Library: INSUFFICIENT_INPUT_AMOUNT');\r\n        require(reserveIn > 0 && reserveOut > 0, 'INSUFFICIENT_LIQUIDITY');\r\n        uint amountInWithFee = amountIn * 997;\r\n        uint numerator = amountInWithFee * (reserveOut);\r\n        uint denominator = (reserveIn * 1000) + amountInWithFee;\r\n        amountOut = numerator / denominator;\r\n    }\r\n\r\n    // given an output amount of an asset and pair reserves, returns a required input amount of the other asset\r\n    function getAmountIn(uint amountOut, uint reserveIn, uint reserveOut) internal pure returns (uint amountIn) {\r\n        require(amountOut > 0, 'UniswapV2Library: INSUFFICIENT_OUTPUT_AMOUNT');\r\n        require(reserveIn > 0 && reserveOut > 0, 'INSUFFICIENT_LIQUIDITY');\r\n        uint numerator = reserveIn * amountOut * 1000;\r\n        uint denominator = (reserveOut - amountOut) * 997;\r\n        amountIn = (numerator / denominator) + 1;\r\n    }\r\n\r\n}",
  "sourcePath": "D:\\WebStorm 2021.2.2\\WebStormProject\\react\\test1\\src\\contracts\\Amm.sol",
  "compiler": {
    "name": "solc",
    "version": "0.8.11+commit.d7f03943.Emscripten.clang"
  },
  "schemaVersion": "3.4.6",
  "updatedAt": "2022-04-10T14:02:54.132Z",
  "networkType": "ethereum",
  "devdoc": {
    "kind": "dev",
    "methods": {},
    "version": 1
  },
  "userdoc": {
    "kind": "user",
    "methods": {},
    "version": 1
  }
}