{
  "contractName": "AMM",
  "abi": [
    {
      "inputs": [
        {
          "internalType": "contract CAYTOKEN",
          "name": "_cayToken",
          "type": "address"
        },
        {
          "internalType": "contract KENTOKEN",
          "name": "_kenToken",
          "type": "address"
        }
      ],
      "stateMutability": "nonpayable",
      "type": "constructor"
    },
    {
      "anonymous": false,
      "inputs": [
        {
          "indexed": false,
          "internalType": "address",
          "name": "account",
          "type": "address"
        },
        {
          "indexed": false,
          "internalType": "address",
          "name": "cayToken",
          "type": "address"
        },
        {
          "indexed": false,
          "internalType": "uint256",
          "name": "cayAmount",
          "type": "uint256"
        },
        {
          "indexed": false,
          "internalType": "address",
          "name": "kenToken",
          "type": "address"
        },
        {
          "indexed": false,
          "internalType": "uint256",
          "name": "kenAmount",
          "type": "uint256"
        }
      ],
      "name": "PoolAreCreated",
      "type": "event"
    },
    {
      "inputs": [],
      "name": "cayToken",
      "outputs": [
        {
          "internalType": "contract CAYTOKEN",
          "name": "",
          "type": "address"
        }
      ],
      "stateMutability": "view",
      "type": "function",
      "constant": true
    },
    {
      "inputs": [],
      "name": "kenToken",
      "outputs": [
        {
          "internalType": "contract KENTOKEN",
          "name": "",
          "type": "address"
        }
      ],
      "stateMutability": "view",
      "type": "function",
      "constant": true
    },
    {
      "inputs": [],
      "name": "checkBothTokenAmountInPool",
      "outputs": [
        {
          "internalType": "uint256",
          "name": "",
          "type": "uint256"
        },
        {
          "internalType": "uint256",
          "name": "",
          "type": "uint256"
        }
      ],
      "stateMutability": "view",
      "type": "function",
      "constant": true
    },
    {
      "inputs": [],
      "name": "getLPTotalCAY",
      "outputs": [
        {
          "internalType": "uint256",
          "name": "_lpCAYBalance",
          "type": "uint256"
        }
      ],
      "stateMutability": "view",
      "type": "function",
      "constant": true
    },
    {
      "inputs": [],
      "name": "getLPTotalKEN",
      "outputs": [
        {
          "internalType": "uint256",
          "name": "_lpKENBalance",
          "type": "uint256"
        }
      ],
      "stateMutability": "view",
      "type": "function",
      "constant": true
    },
    {
      "inputs": [
        {
          "internalType": "uint256",
          "name": "_kenToken",
          "type": "uint256"
        }
      ],
      "name": "getAddPoolCAYRequirement",
      "outputs": [
        {
          "internalType": "uint256",
          "name": "reqCAYToken",
          "type": "uint256"
        }
      ],
      "stateMutability": "view",
      "type": "function",
      "constant": true
    },
    {
      "inputs": [
        {
          "internalType": "uint256",
          "name": "_cayToken",
          "type": "uint256"
        }
      ],
      "name": "getAddPoolKENRequirement",
      "outputs": [
        {
          "internalType": "uint256",
          "name": "reqKENToken",
          "type": "uint256"
        }
      ],
      "stateMutability": "view",
      "type": "function",
      "constant": true
    },
    {
      "inputs": [
        {
          "internalType": "uint256",
          "name": "addCAYTokenInPool",
          "type": "uint256"
        },
        {
          "internalType": "uint256",
          "name": "addKENTokenInPool",
          "type": "uint256"
        }
      ],
      "name": "createPool",
      "outputs": [],
      "stateMutability": "payable",
      "type": "function",
      "payable": true
    },
    {
      "inputs": [
        {
          "internalType": "uint256",
          "name": "_share",
          "type": "uint256"
        }
      ],
      "name": "getWithdrawToken",
      "outputs": [
        {
          "internalType": "uint256",
          "name": "withdrawCAY",
          "type": "uint256"
        },
        {
          "internalType": "uint256",
          "name": "withdrawKEN",
          "type": "uint256"
        }
      ],
      "stateMutability": "view",
      "type": "function",
      "constant": true
    },
    {
      "inputs": [
        {
          "internalType": "uint256",
          "name": "_share",
          "type": "uint256"
        }
      ],
      "name": "withdraw",
      "outputs": [
        {
          "internalType": "uint256",
          "name": "_withdrawCAY",
          "type": "uint256"
        },
        {
          "internalType": "uint256",
          "name": "_withdrawKEN",
          "type": "uint256"
        }
      ],
      "stateMutability": "nonpayable",
      "type": "function"
    },
    {
      "inputs": [
        {
          "internalType": "uint256",
          "name": "_amountCAY",
          "type": "uint256"
        }
      ],
      "name": "getExactCAYforKEN",
      "outputs": [
        {
          "internalType": "uint256",
          "name": "amountKEN",
          "type": "uint256"
        }
      ],
      "stateMutability": "view",
      "type": "function",
      "constant": true
    },
    {
      "inputs": [
        {
          "internalType": "uint256",
          "name": "_amountKEN",
          "type": "uint256"
        }
      ],
      "name": "getCAYforExactKEN",
      "outputs": [
        {
          "internalType": "uint256",
          "name": "amountCAY",
          "type": "uint256"
        }
      ],
      "stateMutability": "view",
      "type": "function",
      "constant": true
    },
    {
      "inputs": [
        {
          "internalType": "uint256",
          "name": "_amountCAY",
          "type": "uint256"
        }
      ],
      "name": "swapCAYforKEN",
      "outputs": [
        {
          "internalType": "uint256",
          "name": "amountKEN",
          "type": "uint256"
        }
      ],
      "stateMutability": "nonpayable",
      "type": "function"
    },
    {
      "inputs": [
        {
          "internalType": "uint256",
          "name": "_amountKEN",
          "type": "uint256"
        }
      ],
      "name": "getExactKENforCAY",
      "outputs": [
        {
          "internalType": "uint256",
          "name": "amountCAY",
          "type": "uint256"
        }
      ],
      "stateMutability": "view",
      "type": "function",
      "constant": true
    },
    {
      "inputs": [
        {
          "internalType": "uint256",
          "name": "_amountCAY",
          "type": "uint256"
        }
      ],
      "name": "getKENforExactCAY",
      "outputs": [
        {
          "internalType": "uint256",
          "name": "amountKEN",
          "type": "uint256"
        }
      ],
      "stateMutability": "view",
      "type": "function",
      "constant": true
    },
    {
      "inputs": [
        {
          "internalType": "uint256",
          "name": "_amountKEN",
          "type": "uint256"
        }
      ],
      "name": "swapKENforCAY",
      "outputs": [
        {
          "internalType": "uint256",
          "name": "amountCAY",
          "type": "uint256"
        }
      ],
      "stateMutability": "nonpayable",
      "type": "function"
    }
  ],
  "bytecode": "0x60806040526000805560006001553480156200001a57600080fd5b50604051620026693803806200266983398181016040528101906200004091906200018d565b81600460006101000a81548173ffffffffffffffffffffffffffffffffffffffff021916908373ffffffffffffffffffffffffffffffffffffffff16021790555080600560006101000a81548173ffffffffffffffffffffffffffffffffffffffff021916908373ffffffffffffffffffffffffffffffffffffffff1602179055505050620001d4565b600080fd5b600073ffffffffffffffffffffffffffffffffffffffff82169050919050565b6000620000fc82620000cf565b9050919050565b60006200011082620000ef565b9050919050565b620001228162000103565b81146200012e57600080fd5b50565b600081519050620001428162000117565b92915050565b60006200015582620000ef565b9050919050565b620001678162000148565b81146200017357600080fd5b50565b60008151905062000187816200015c565b92915050565b60008060408385031215620001a757620001a6620000ca565b5b6000620001b78582860162000131565b9250506020620001ca8582860162000176565b9150509250929050565b61248580620001e46000396000f3fe6080604052600436106100f35760003560e01c806374a110c21161008a578063acfeec4c11610059578063acfeec4c14610380578063ae9c9688146103ab578063bf87d7b6146103d6578063c5d386e914610413576100f3565b806374a110c2146102d05780638055beb2146102ec5780638427f41c14610317578063a64ace0714610354576100f3565b80632e1a7d4d116100c65780632e1a7d4d146101db5780634d4a2a7e1461021957806364bd984914610256578063734b47c014610293576100f3565b80630918d586146100f857806316a24ae3146101365780631f4cd48e146101735780632758d89b146101b0575b600080fd5b34801561010457600080fd5b5061011f600480360381019061011a9190611a63565b610450565b60405161012d929190611a9f565b60405180910390f35b34801561014257600080fd5b5061015d60048036038101906101589190611a63565b6104f7565b60405161016a9190611ac8565b60405180910390f35b34801561017f57600080fd5b5061019a60048036038101906101959190611a63565b61057b565b6040516101a79190611ac8565b60405180910390f35b3480156101bc57600080fd5b506101c5610629565b6040516101d29190611ac8565b60405180910390f35b3480156101e757600080fd5b5061020260048036038101906101fd9190611a63565b61068a565b604051610210929190611a9f565b60405180910390f35b34801561022557600080fd5b50610240600480360381019061023b9190611a63565b610a76565b60405161024d9190611ac8565b60405180910390f35b34801561026257600080fd5b5061027d60048036038101906102789190611a63565b610d4b565b60405161028a9190611ac8565b60405180910390f35b34801561029f57600080fd5b506102ba60048036038101906102b59190611a63565b610dc1565b6040516102c79190611ac8565b60405180910390f35b6102ea60048036038101906102e59190611ae3565b610e37565b005b3480156102f857600080fd5b50610301611388565b60405161030e9190611ba2565b60405180910390f35b34801561032357600080fd5b5061033e60048036038101906103399190611a63565b6113ae565b60405161034b9190611ac8565b60405180910390f35b34801561036057600080fd5b50610369611683565b604051610377929190611a9f565b60405180910390f35b34801561038c57600080fd5b50610395611694565b6040516103a29190611bde565b60405180910390f35b3480156103b757600080fd5b506103c06116ba565b6040516103cd9190611ac8565b60405180910390f35b3480156103e257600080fd5b506103fd60048036038101906103f89190611a63565b61171b565b60405161040a9190611ac8565b60405180910390f35b34801561041f57600080fd5b5061043a60048036038101906104359190611a63565b6117a0565b6040516104479190611ac8565b60405180910390f35b6000806000805411801561046657506000600154115b6104a5576040517f08c379a000000000000000000000000000000000000000000000000000000000815260040161049c90611c7c565b60405180910390fd5b6000806104b06116ba565b91506104ba610629565b9050606485836104ca9190611ccb565b6104d49190611d54565b9350606485826104e49190611ccb565b6104ee9190611d54565b92505050915091565b60008060005411801561050c57506000600154115b61054b576040517f08c379a000000000000000000000000000000000000000000000000000000000815260040161054290611c7c565b60405180910390fd5b61055a8260005460015461184e565b9050600154811061057657600180546105739190611d85565b90505b919050565b60008060005411801561059057506000600154115b6105cf576040517f08c379a00000000000000000000000000000000000000000000000000000000081526004016105c690611c7c565b60405180910390fd5b6000548210610613576040517f08c379a000000000000000000000000000000000000000000000000000000000815260040161060a90611e05565b60405180910390fd5b61062282600154600054611938565b9050919050565b6000600354600154600660003373ffffffffffffffffffffffffffffffffffffffff1673ffffffffffffffffffffffffffffffffffffffff1681526020019081526020016000205461067b9190611ccb565b6106859190611d54565b905090565b600080600080541180156106a057506000600154115b6106df576040517f08c379a00000000000000000000000000000000000000000000000000000000081526004016106d690611c7c565b60405180910390fd5b60008311610722576040517f08c379a000000000000000000000000000000000000000000000000000000000815260040161071990611e71565b60405180910390fd5b61072b83610450565b8092508193505050816000808282546107449190611d85565b92505081905550806001600082825461075d9190611d85565b925050819055506001546000546107749190611ccb565b600281905550600560009054906101000a900473ffffffffffffffffffffffffffffffffffffffff1673ffffffffffffffffffffffffffffffffffffffff1663095ea7b330836040518363ffffffff1660e01b81526004016107d7929190611eb2565b6020604051808303816000875af11580156107f6573d6000803e3d6000fd5b505050506040513d601f19601f8201168201806040525081019061081a9190611f13565b50600460009054906101000a900473ffffffffffffffffffffffffffffffffffffffff1673ffffffffffffffffffffffffffffffffffffffff1663095ea7b330846040518363ffffffff1660e01b8152600401610878929190611eb2565b6020604051808303816000875af1158015610897573d6000803e3d6000fd5b505050506040513d601f19601f820116820180604052508101906108bb9190611f13565b50600560009054906101000a900473ffffffffffffffffffffffffffffffffffffffff1673ffffffffffffffffffffffffffffffffffffffff166323b872dd3033846040518463ffffffff1660e01b815260040161091b93929190611f40565b6020604051808303816000875af115801561093a573d6000803e3d6000fd5b505050506040513d601f19601f8201168201806040525081019061095e9190611f13565b50600460009054906101000a900473ffffffffffffffffffffffffffffffffffffffff1673ffffffffffffffffffffffffffffffffffffffff166323b872dd3033856040518463ffffffff1660e01b81526004016109be93929190611f40565b6020604051808303816000875af11580156109dd573d6000803e3d6000fd5b505050506040513d601f19601f82011682018060405250810190610a019190611f13565b5082600660003373ffffffffffffffffffffffffffffffffffffffff1673ffffffffffffffffffffffffffffffffffffffff1681526020019081526020016000206000828254610a519190611d85565b925050819055508260036000828254610a6a9190611d85565b92505081905550915091565b600080600054118015610a8b57506000600154115b610aca576040517f08c379a0000000000000000000000000000000000000000000000000000000008152600401610ac190611c7c565b60405180910390fd5b60008211610b0d576040517f08c379a0000000000000000000000000000000000000000000000000000000008152600401610b0490611fc3565b60405180910390fd5b610b16826104f7565b905081600080828254610b299190611fe3565b925050819055508060016000828254610b429190611d85565b92505081905550600154600054610b599190611ccb565b600281905550600460009054906101000a900473ffffffffffffffffffffffffffffffffffffffff1673ffffffffffffffffffffffffffffffffffffffff166323b872dd3330856040518463ffffffff1660e01b8152600401610bbe93929190611f40565b6020604051808303816000875af1158015610bdd573d6000803e3d6000fd5b505050506040513d601f19601f82011682018060405250810190610c019190611f13565b50600560009054906101000a900473ffffffffffffffffffffffffffffffffffffffff1673ffffffffffffffffffffffffffffffffffffffff1663095ea7b330836040518363ffffffff1660e01b8152600401610c5f929190611eb2565b6020604051808303816000875af1158015610c7e573d6000803e3d6000fd5b505050506040513d601f19601f82011682018060405250810190610ca29190611f13565b50600560009054906101000a900473ffffffffffffffffffffffffffffffffffffffff1673ffffffffffffffffffffffffffffffffffffffff166323b872dd3033846040518463ffffffff1660e01b8152600401610d0293929190611f40565b6020604051808303816000875af1158015610d21573d6000803e3d6000fd5b505050506040513d601f19601f82011682018060405250810190610d459190611f13565b50919050565b600080600054118015610d6057506000600154115b610d9f576040517f08c379a0000000000000000000000000000000000000000000000000000000008152600401610d9690611c7c565b60405180910390fd5b60005460015483610db09190611ccb565b610dba9190611d54565b9050919050565b600080600054118015610dd657506000600154115b610e15576040517f08c379a0000000000000000000000000000000000000000000000000000000008152600401610e0c90611c7c565b60405180910390fd5b60015460005483610e269190611ccb565b610e309190611d54565b9050919050565b6000821180610e465750600081115b610e85576040517f08c379a0000000000000000000000000000000000000000000000000000000008152600401610e7c90612085565b60405180910390fd5b6000806000541480610e9957506000600154145b15610ed9578260008190555081600181905550600154600054610ebc9190611ccb565b600281905550620f42406064610ed29190611ccb565b9050610f8f565b82600080828254610eea9190611fe3565b925050819055508160016000828254610f039190611fe3565b925050819055506000805484600354610f1c9190611ccb565b610f269190611d54565b9050600060015484600354610f3b9190611ccb565b610f459190611d54565b9050808214610f89576040517f08c379a0000000000000000000000000000000000000000000000000000000008152600401610f8090612117565b60405180910390fd5b81925050505b82600460009054906101000a900473ffffffffffffffffffffffffffffffffffffffff1673ffffffffffffffffffffffffffffffffffffffff166370a08231336040518263ffffffff1660e01b8152600401610feb9190612137565b602060405180830381865afa158015611008573d6000803e3d6000fd5b505050506040513d601f19601f8201168201806040525081019061102c9190612167565b101561106d576040517f08c379a0000000000000000000000000000000000000000000000000000000008152600401611064906121e0565b60405180910390fd5b81600560009054906101000a900473ffffffffffffffffffffffffffffffffffffffff1673ffffffffffffffffffffffffffffffffffffffff166370a08231336040518263ffffffff1660e01b81526004016110c99190612137565b602060405180830381865afa1580156110e6573d6000803e3d6000fd5b505050506040513d601f19601f8201168201806040525081019061110a9190612167565b101561114b576040517f08c379a00000000000000000000000000000000000000000000000000000000081526004016111429061224c565b60405180910390fd5b600460009054906101000a900473ffffffffffffffffffffffffffffffffffffffff1673ffffffffffffffffffffffffffffffffffffffff166323b872dd3330866040518463ffffffff1660e01b81526004016111aa93929190611f40565b6020604051808303816000875af11580156111c9573d6000803e3d6000fd5b505050506040513d601f19601f820116820180604052508101906111ed9190611f13565b50600560009054906101000a900473ffffffffffffffffffffffffffffffffffffffff1673ffffffffffffffffffffffffffffffffffffffff166323b872dd3330856040518463ffffffff1660e01b815260040161124d93929190611f40565b6020604051808303816000875af115801561126c573d6000803e3d6000fd5b505050506040513d601f19601f820116820180604052508101906112909190611f13565b5080600360008282546112a39190611fe3565b9250508190555080600660003373ffffffffffffffffffffffffffffffffffffffff1673ffffffffffffffffffffffffffffffffffffffff16815260200190815260200160002060008282546112f99190611fe3565b925050819055507fc29054f90051b44a9da91ea7d71fa8c6e0ffcd8ff6c8ace38a219031837cadf833600460009054906101000a900473ffffffffffffffffffffffffffffffffffffffff1685600560009054906101000a900473ffffffffffffffffffffffffffffffffffffffff168660405161137b95949392919061226c565b60405180910390a1505050565b600460009054906101000a900473ffffffffffffffffffffffffffffffffffffffff1681565b6000806000541180156113c357506000600154115b611402576040517f08c379a00000000000000000000000000000000000000000000000000000000081526004016113f990611c7c565b60405180910390fd5b60008211611445576040517f08c379a000000000000000000000000000000000000000000000000000000000815260040161143c90611fc3565b60405180910390fd5b61144e8261171b565b905081600160008282546114629190611fe3565b925050819055508060008082825461147a9190611d85565b925050819055506001546000546114919190611ccb565b600281905550600560009054906101000a900473ffffffffffffffffffffffffffffffffffffffff1673ffffffffffffffffffffffffffffffffffffffff166323b872dd3330856040518463ffffffff1660e01b81526004016114f693929190611f40565b6020604051808303816000875af1158015611515573d6000803e3d6000fd5b505050506040513d601f19601f820116820180604052508101906115399190611f13565b50600460009054906101000a900473ffffffffffffffffffffffffffffffffffffffff1673ffffffffffffffffffffffffffffffffffffffff1663095ea7b330836040518363ffffffff1660e01b8152600401611597929190611eb2565b6020604051808303816000875af11580156115b6573d6000803e3d6000fd5b505050506040513d601f19601f820116820180604052508101906115da9190611f13565b50600460009054906101000a900473ffffffffffffffffffffffffffffffffffffffff1673ffffffffffffffffffffffffffffffffffffffff166323b872dd3033846040518463ffffffff1660e01b815260040161163a93929190611f40565b6020604051808303816000875af1158015611659573d6000803e3d6000fd5b505050506040513d601f19601f8201168201806040525081019061167d9190611f13565b50919050565b600080600054600154915091509091565b600560009054906101000a900473ffffffffffffffffffffffffffffffffffffffff1681565b6000600354600054600660003373ffffffffffffffffffffffffffffffffffffffff1673ffffffffffffffffffffffffffffffffffffffff1681526020019081526020016000205461170c9190611ccb565b6117169190611d54565b905090565b60008060005411801561173057506000600154115b61176f576040517f08c379a000000000000000000000000000000000000000000000000000000000815260040161176690611c7c565b60405180910390fd5b61177e8260015460005461184e565b9050600054811061179b5760016000546117989190611d85565b90505b919050565b6000806000541180156117b557506000600154115b6117f4576040517f08c379a00000000000000000000000000000000000000000000000000000000081526004016117eb90611c7c565b60405180910390fd5b6001548210611838576040517f08c379a000000000000000000000000000000000000000000000000000000000815260040161182f90611e05565b60405180910390fd5b61184782600054600154611938565b9050919050565b6000808411611892576040517f08c379a000000000000000000000000000000000000000000000000000000000815260040161188990612331565b60405180910390fd5b6000831180156118a25750600082115b6118e1576040517f08c379a00000000000000000000000000000000000000000000000000000000081526004016118d89061239d565b60405180910390fd5b60006103e5856118f19190611ccb565b9050600083826119019190611ccb565b90506000826103e8876119149190611ccb565b61191e9190611fe3565b9050808261192c9190611d54565b93505050509392505050565b600080841161197c576040517f08c379a00000000000000000000000000000000000000000000000000000000081526004016119739061242f565b60405180910390fd5b60008311801561198c5750600082115b6119cb576040517f08c379a00000000000000000000000000000000000000000000000000000000081526004016119c29061239d565b60405180910390fd5b60006103e885856119dc9190611ccb565b6119e69190611ccb565b905060006103e586856119f99190611d85565b611a039190611ccb565b905060018183611a139190611d54565b611a1d9190611fe3565b925050509392505050565b600080fd5b6000819050919050565b611a4081611a2d565b8114611a4b57600080fd5b50565b600081359050611a5d81611a37565b92915050565b600060208284031215611a7957611a78611a28565b5b6000611a8784828501611a4e565b91505092915050565b611a9981611a2d565b82525050565b6000604082019050611ab46000830185611a90565b611ac16020830184611a90565b9392505050565b6000602082019050611add6000830184611a90565b92915050565b60008060408385031215611afa57611af9611a28565b5b6000611b0885828601611a4e565b9250506020611b1985828601611a4e565b9150509250929050565b600073ffffffffffffffffffffffffffffffffffffffff82169050919050565b6000819050919050565b6000611b68611b63611b5e84611b23565b611b43565b611b23565b9050919050565b6000611b7a82611b4d565b9050919050565b6000611b8c82611b6f565b9050919050565b611b9c81611b81565b82525050565b6000602082019050611bb76000830184611b93565b92915050565b6000611bc882611b6f565b9050919050565b611bd881611bbd565b82525050565b6000602082019050611bf36000830184611bcf565b92915050565b600082825260208201905092915050565b7f456d70747920706f6f6c2c20706c6561736520616464206c697175696469747960008201527f2e00000000000000000000000000000000000000000000000000000000000000602082015250565b6000611c66602183611bf9565b9150611c7182611c0a565b604082019050919050565b60006020820190508181036000830152611c9581611c59565b9050919050565b7f4e487b7100000000000000000000000000000000000000000000000000000000600052601160045260246000fd5b6000611cd682611a2d565b9150611ce183611a2d565b9250817fffffffffffffffffffffffffffffffffffffffffffffffffffffffffffffffff0483118215151615611d1a57611d19611c9c565b5b828202905092915050565b7f4e487b7100000000000000000000000000000000000000000000000000000000600052601260045260246000fd5b6000611d5f82611a2d565b9150611d6a83611a2d565b925082611d7a57611d79611d25565b5b828204905092915050565b6000611d9082611a2d565b9150611d9b83611a2d565b925082821015611dae57611dad611c9c565b5b828203905092915050565b7f496e73756666696369656e7420706f6f6c2062616c616e636500000000000000600082015250565b6000611def601983611bf9565b9150611dfa82611db9565b602082019050919050565b60006020820190508181036000830152611e1e81611de2565b9050919050565b7f63616e6e6f74206265207a65726f2076616c7565000000000000000000000000600082015250565b6000611e5b601483611bf9565b9150611e6682611e25565b602082019050919050565b60006020820190508181036000830152611e8a81611e4e565b9050919050565b6000611e9c82611b23565b9050919050565b611eac81611e91565b82525050565b6000604082019050611ec76000830185611ea3565b611ed46020830184611a90565b9392505050565b60008115159050919050565b611ef081611edb565b8114611efb57600080fd5b50565b600081519050611f0d81611ee7565b92915050565b600060208284031215611f2957611f28611a28565b5b6000611f3784828501611efe565b91505092915050565b6000606082019050611f556000830186611ea3565b611f626020830185611ea3565b611f6f6040830184611a90565b949350505050565b7f616d6f756e742063616e27742062652030000000000000000000000000000000600082015250565b6000611fad601183611bf9565b9150611fb882611f77565b602082019050919050565b60006020820190508181036000830152611fdc81611fa0565b9050919050565b6000611fee82611a2d565b9150611ff983611a2d565b9250827fffffffffffffffffffffffffffffffffffffffffffffffffffffffffffffffff0382111561202e5761202d611c9c565b5b828201905092915050565b7f4e656564206d6f7265207468616e205a65726f2076616c756500000000000000600082015250565b600061206f601983611bf9565b915061207a82612039565b602082019050919050565b6000602082019050818103600083015261209e81612062565b9050919050565b7f4571756976616c656e742076616c7565206f6620746f6b656e73206e6f74207060008201527f726f76696465642e2e2e00000000000000000000000000000000000000000000602082015250565b6000612101602a83611bf9565b915061210c826120a5565b604082019050919050565b60006020820190508181036000830152612130816120f4565b9050919050565b600060208201905061214c6000830184611ea3565b92915050565b60008151905061216181611a37565b92915050565b60006020828403121561217d5761217c611a28565b5b600061218b84828501612152565b91505092915050565b7f43415920546f6b656e204e6f7420456e6f756768210000000000000000000000600082015250565b60006121ca601583611bf9565b91506121d582612194565b602082019050919050565b600060208201905081810360008301526121f9816121bd565b9050919050565b7f4b454e20546f6b656e204e6f7420456e6f756768210000000000000000000000600082015250565b6000612236601583611bf9565b915061224182612200565b602082019050919050565b6000602082019050818103600083015261226581612229565b9050919050565b600060a0820190506122816000830188611ea3565b61228e6020830187611ea3565b61229b6040830186611a90565b6122a86060830185611ea3565b6122b56080830184611a90565b9695505050505050565b7f556e697377617056324c6962726172793a20494e53554646494349454e545f4960008201527f4e5055545f414d4f554e54000000000000000000000000000000000000000000602082015250565b600061231b602b83611bf9565b9150612326826122bf565b604082019050919050565b6000602082019050818103600083015261234a8161230e565b9050919050565b7f494e53554646494349454e545f4c495155494449545900000000000000000000600082015250565b6000612387601683611bf9565b915061239282612351565b602082019050919050565b600060208201905081810360008301526123b68161237a565b9050919050565b7f556e697377617056324c6962726172793a20494e53554646494349454e545f4f60008201527f55545055545f414d4f554e540000000000000000000000000000000000000000602082015250565b6000612419602c83611bf9565b9150612424826123bd565b604082019050919050565b600060208201905081810360008301526124488161240c565b905091905056fea2646970667358221220a9e8616263e5badb97e6f376cb23ba760063c04ad90e47f6166ab51f0780bd2d64736f6c634300080b0033",
  "immutableReferences": {},
  "source": "// SPDX-License-Identifier: GPL-3.0\r\npragma solidity ^0.8.0;\r\n\r\nimport \"./CAYTOKEN.sol\";\r\nimport \"./KENTOKEN.sol\";\r\nimport \"hardhat/console.sol\";\r\n\r\ncontract AMM {\r\n\r\n    //1000000000000000000\r\n    uint256 totalCAYTokenInPool = 0;//total amount of CAY token in the pool\r\n    uint256 totalKENTokenInPool = 0;//total amount of KEN token in the pool\r\n    uint256 K;//K constant in X*Y = K\r\n    uint256 totalShares;\r\n    \r\n    uint constant PRECISION = 1_000_000;\r\n\r\n    CAYTOKEN public cayToken;\r\n    KENTOKEN public kenToken;\r\n\r\n    mapping(address => uint256) lpShares;\r\n    \r\n    event PoolAreCreated(\r\n    address account,\r\n    address cayToken,\r\n    uint cayAmount,\r\n    address kenToken,\r\n    uint kenAmount\r\n  );\r\n\r\n    constructor(CAYTOKEN _cayToken,KENTOKEN _kenToken){\r\n    cayToken = _cayToken;\r\n    kenToken = _kenToken;\r\n  }\r\n\r\n    //no liquidity, cannot withdraw from liquidity pool\r\n    modifier activePool() {\r\n        require(totalCAYTokenInPool > 0 && totalKENTokenInPool > 0, \"Empty pool, please add liquidity.\");\r\n        _;\r\n    }\r\n\r\n    //get the liquidity pool total Eth token, TkB token\r\n    function checkBothTokenAmountInPool() external view returns(uint256, uint256) {\r\n        return (totalCAYTokenInPool, totalKENTokenInPool);\r\n    }\r\n\r\n    //get LP balance token in the pool\r\n    function getLPTotalCAY() public view returns (uint256 _lpCAYBalance) {\r\n        _lpCAYBalance = lpShares[msg.sender] * totalCAYTokenInPool / totalShares;\r\n    }\r\n\r\n    function getLPTotalKEN() public view returns (uint256 _lpKENBalance) {\r\n        _lpKENBalance = lpShares[msg.sender] * totalKENTokenInPool / totalShares;\r\n    }\r\n\r\n    //to get the total Tkb token needed to add into pool\r\n    function getAddPoolCAYRequirement(uint256 _kenToken) public view activePool returns(uint256 reqCAYToken) {\r\n        reqCAYToken = _kenToken * totalCAYTokenInPool / totalKENTokenInPool ;\r\n    }\r\n\r\n    //to get the total eth token needed to add into pool\r\n    function getAddPoolKENRequirement(uint256 _cayToken) public view activePool returns(uint256 reqKENToken) {\r\n        reqKENToken = _cayToken * totalKENTokenInPool / totalCAYTokenInPool ;\r\n    }\r\n\r\n\r\n    //add liquidity into the pool, set K constant if first added, store share % into user\r\n    function createPool(\r\n        uint256 addCAYTokenInPool, \r\n        uint256 addKENTokenInPool\r\n        ) payable public {\r\n        require(addCAYTokenInPool > 0 || addKENTokenInPool > 0, \"Need more than Zero value\");\r\n        uint256 share;\r\n        if(totalCAYTokenInPool == 0 || totalKENTokenInPool == 0)  // Genesis liquidity is issued 100 Shares\r\n        {\r\n            totalCAYTokenInPool = addCAYTokenInPool;\r\n            totalKENTokenInPool = addKENTokenInPool;\r\n            K = totalCAYTokenInPool * totalKENTokenInPool;\r\n            share = 100 * PRECISION;\r\n        }\r\n        else\r\n        {\r\n            totalCAYTokenInPool += addCAYTokenInPool;\r\n            totalKENTokenInPool += addKENTokenInPool;\r\n            uint256 share1 = totalShares * addCAYTokenInPool / totalCAYTokenInPool;\r\n            uint256 share2 = totalShares * addKENTokenInPool / totalKENTokenInPool;\r\n            require(share1 == share2, \"Equivalent value of tokens not provided...\");\r\n            share = share1;\r\n        }\r\n    \r\n        // Require that User has enough CAY tokens\r\n        // Require that User has enough KEN tokens\r\n        require(cayToken.balanceOf(msg.sender) >= addCAYTokenInPool,\"CAY Token Not Enough!\");\r\n        require(kenToken.balanceOf(msg.sender) >= addKENTokenInPool,\"KEN Token Not Enough!\");\r\n  \r\n        cayToken.transferFrom(msg.sender, address(this), addCAYTokenInPool);\r\n        kenToken.transferFrom(msg.sender, address(this), addKENTokenInPool);\r\n\r\n        totalShares += share;\r\n        lpShares[msg.sender] += share;\r\n      \r\n        emit PoolAreCreated(msg.sender, address(cayToken), addCAYTokenInPool, address(kenToken),addKENTokenInPool);\r\n    }\r\n\r\n    //get LP withdraw tokens based on percentage\r\n    function getWithdrawToken (uint256 _share) public view activePool returns(uint256 withdrawCAY, uint256 withdrawKEN) {\r\n        uint256 amountCAY;\r\n        uint256 amountKEN;\r\n        \r\n        amountCAY = getLPTotalCAY();\r\n        amountKEN = getLPTotalKEN();\r\n        withdrawCAY = amountCAY * _share / 100;\r\n        withdrawKEN = amountKEN * _share / 100;\r\n    }\r\n\r\n    //withdraw  tokens from pool and add the tokens back to user\r\n    function withdraw(uint256 _share) external activePool returns(uint256 _withdrawCAY, uint256 _withdrawKEN) {\r\n        require(_share > 0,\"cannot be zero value\");\r\n        (_withdrawCAY, _withdrawKEN) = getWithdrawToken(_share);\r\n        \r\n        totalCAYTokenInPool -= _withdrawCAY;\r\n        totalKENTokenInPool -= _withdrawKEN;\r\n        K = totalCAYTokenInPool * totalKENTokenInPool;\r\n\r\n        kenToken.approve(address(this), _withdrawKEN);\r\n        cayToken.approve(address(this), _withdrawCAY);\r\n        kenToken.transferFrom( address(this),msg.sender, _withdrawKEN);\r\n        cayToken.transferFrom( address(this),msg.sender, _withdrawCAY);\r\n\r\n        lpShares[msg.sender] -= _share;\r\n        totalShares -= _share;\r\n    }\r\n\r\n    // Returns the amount of TkB token that the user will get when swapping a exact amount of Eth token\r\n    function getExactCAYforKEN(uint256 _amountCAY) public view activePool returns(uint256 amountKEN) {\r\n        amountKEN = getAmountOut(_amountCAY, totalCAYTokenInPool, totalKENTokenInPool);\r\n\r\n        // To ensure that Token2's pool is not completely depleted leading to inf:0 ratio\r\n        if(amountKEN >= totalKENTokenInPool) amountKEN = totalKENTokenInPool - 1;\r\n    }\r\n    \r\n    // Returns the amount of Eth token needed to swap a exact amount of TkB token\r\n    function getCAYforExactKEN(uint256 _amountKEN) public view activePool returns(uint256 amountCAY) {\r\n        require(_amountKEN < totalKENTokenInPool, \"Insufficient pool balance\");\r\n        amountCAY = getAmountIn(_amountKEN, totalCAYTokenInPool, totalKENTokenInPool);\r\n    }\r\n\r\n    // Swaps Eth token to TkB token using algorithmic price determination\r\n    function swapCAYforKEN( uint256 _amountCAY) external activePool returns(uint256 amountKEN) {\r\n        require(_amountCAY > 0, \"amount can't be 0\");\r\n        amountKEN = getExactCAYforKEN(_amountCAY);\r\n\r\n        totalCAYTokenInPool += _amountCAY;\r\n        totalKENTokenInPool -= amountKEN;\r\n\r\n        K = totalCAYTokenInPool * totalKENTokenInPool;\r\n\r\n        cayToken.transferFrom(msg.sender, address(this), _amountCAY);\r\n        kenToken.approve( address(this), amountKEN);\r\n        kenToken.transferFrom( address(this),msg.sender, amountKEN);\r\n    }\r\n\r\n    // Returns the amount of Eth token that the user will get when swapping a exact amount of Tkb token\r\n    function getExactKENforCAY (uint256 _amountKEN) public view activePool returns(uint256 amountCAY) {\r\n        amountCAY = getAmountOut(_amountKEN, totalKENTokenInPool, totalCAYTokenInPool);\r\n\r\n        // To ensure that Token1's pool is not completely depleted leading to inf:0 ratio\r\n        if(amountCAY >= totalCAYTokenInPool) amountCAY = totalCAYTokenInPool - 1;\r\n    }\r\n    \r\n    // Returns the amount of Tkb token needed to swap a exact amount of Eth token\r\n    function getKENforExactCAY (uint256 _amountCAY) public view activePool returns(uint256 amountKEN) {\r\n        require(_amountCAY < totalCAYTokenInPool, \"Insufficient pool balance\");\r\n        amountKEN = getAmountIn(_amountCAY, totalKENTokenInPool, totalCAYTokenInPool);\r\n    }\r\n\r\n    // Swaps KEN token to CAY token using algorithmic price determination\r\n    function swapKENforCAY(uint256 _amountKEN) external activePool returns(uint256 amountCAY) {\r\n        require(_amountKEN > 0, \"amount can't be 0\");\r\n        amountCAY = getExactKENforCAY(_amountKEN);\r\n\r\n        totalKENTokenInPool += _amountKEN;\r\n        totalCAYTokenInPool -= amountCAY;\r\n        K = totalCAYTokenInPool * totalKENTokenInPool;\r\n        kenToken.transferFrom(msg.sender, address(this), _amountKEN);\r\n\r\n        cayToken.approve( address(this), amountCAY);\r\n        cayToken.transferFrom( address(this),msg.sender, amountCAY);\r\n    }\r\n\r\n    // given an input amount of an asset and pair reserves, returns the maximum output amount of the other asset\r\n    function getAmountOut(uint amountIn, uint reserveIn, uint reserveOut) internal pure returns (uint amountOut) {\r\n        require(amountIn > 0, 'UniswapV2Library: INSUFFICIENT_INPUT_AMOUNT');\r\n        require(reserveIn > 0 && reserveOut > 0, 'INSUFFICIENT_LIQUIDITY');\r\n        uint amountInWithFee = amountIn * 997;\r\n        uint numerator = amountInWithFee * (reserveOut);\r\n        uint denominator = (reserveIn * 1000) + amountInWithFee;\r\n        amountOut = numerator / denominator;\r\n    }\r\n\r\n    // given an output amount of an asset and pair reserves, returns a required input amount of the other asset\r\n    function getAmountIn(uint amountOut, uint reserveIn, uint reserveOut) internal pure returns (uint amountIn) {\r\n        require(amountOut > 0, 'UniswapV2Library: INSUFFICIENT_OUTPUT_AMOUNT');\r\n        require(reserveIn > 0 && reserveOut > 0, 'INSUFFICIENT_LIQUIDITY');\r\n        uint numerator = reserveIn * amountOut * 1000;\r\n        uint denominator = (reserveOut - amountOut) * 997;\r\n        amountIn = (numerator / denominator) + 1;\r\n    }\r\n\r\n}",
  "sourcePath": "C:\\Users\\Acer\\Desktop\\sassy\\refer2\\test\\src\\contracts\\Amm.sol",
  "compiler": {
    "name": "solc",
    "version": "0.8.11+commit.d7f03943.Emscripten.clang"
  },
  "schemaVersion": "3.4.6",
  "updatedAt": "2022-04-10T12:31:04.659Z",
  "networkType": "ethereum",
  "devdoc": {
    "kind": "dev",
    "methods": {},
    "version": 1
  },
  "userdoc": {
    "kind": "user",
    "methods": {},
    "version": 1
  }
}