{
  "contractName": "AMM",
  "abi": [
    {
      "inputs": [
        {
          "internalType": "contract CAYTOKEN",
          "name": "_cayToken",
          "type": "address"
        },
        {
          "internalType": "contract KENTOKEN",
          "name": "_kenToken",
          "type": "address"
        }
      ],
      "stateMutability": "nonpayable",
      "type": "constructor"
    },
    {
      "anonymous": false,
      "inputs": [
        {
          "indexed": false,
          "internalType": "address",
          "name": "account",
          "type": "address"
        },
        {
          "indexed": false,
          "internalType": "address",
          "name": "cayToken",
          "type": "address"
        },
        {
          "indexed": false,
          "internalType": "uint256",
          "name": "cayAmount",
          "type": "uint256"
        },
        {
          "indexed": false,
          "internalType": "address",
          "name": "kenToken",
          "type": "address"
        },
        {
          "indexed": false,
          "internalType": "uint256",
          "name": "kenAmount",
          "type": "uint256"
        }
      ],
      "name": "PoolAreCreated",
      "type": "event"
    },
    {
      "inputs": [],
      "name": "cayToken",
      "outputs": [
        {
          "internalType": "contract CAYTOKEN",
          "name": "",
          "type": "address"
        }
      ],
      "stateMutability": "view",
      "type": "function",
      "constant": true
    },
    {
      "inputs": [],
      "name": "kenToken",
      "outputs": [
        {
          "internalType": "contract KENTOKEN",
          "name": "",
          "type": "address"
        }
      ],
      "stateMutability": "view",
      "type": "function",
      "constant": true
    },
    {
      "inputs": [],
      "name": "checkBothTokenAmountInPool",
      "outputs": [
        {
          "internalType": "uint256",
          "name": "",
          "type": "uint256"
        },
        {
          "internalType": "uint256",
          "name": "",
          "type": "uint256"
        }
      ],
      "stateMutability": "view",
      "type": "function",
      "constant": true
    },
    {
      "inputs": [],
      "name": "getUserBothTokenBalanceInPool",
      "outputs": [
        {
          "internalType": "uint256",
          "name": "_userBalanceCAYInPool",
          "type": "uint256"
        },
        {
          "internalType": "uint256",
          "name": "_userBalanceKENInPool",
          "type": "uint256"
        }
      ],
      "stateMutability": "view",
      "type": "function",
      "constant": true
    },
    {
      "inputs": [
        {
          "internalType": "uint256",
          "name": "_cayToken",
          "type": "uint256"
        }
      ],
      "name": "getAddPoolCAYRequirement",
      "outputs": [
        {
          "internalType": "uint256",
          "name": "reqCAYToken",
          "type": "uint256"
        }
      ],
      "stateMutability": "view",
      "type": "function",
      "constant": true
    },
    {
      "inputs": [
        {
          "internalType": "uint256",
          "name": "_kenToken",
          "type": "uint256"
        }
      ],
      "name": "getAddPoolKENRequirement",
      "outputs": [
        {
          "internalType": "uint256",
          "name": "reqKENToken",
          "type": "uint256"
        }
      ],
      "stateMutability": "view",
      "type": "function",
      "constant": true
    },
    {
      "inputs": [
        {
          "internalType": "uint256",
          "name": "addCAYTokenInPool",
          "type": "uint256"
        },
        {
          "internalType": "uint256",
          "name": "addKENTokenInPool",
          "type": "uint256"
        }
      ],
      "name": "createPool",
      "outputs": [],
      "stateMutability": "payable",
      "type": "function",
      "payable": true
    },
    {
      "inputs": [],
      "name": "getWithdrawToken",
      "outputs": [
        {
          "internalType": "uint256",
          "name": "withdrawEth",
          "type": "uint256"
        },
        {
          "internalType": "uint256",
          "name": "withdrawTkb",
          "type": "uint256"
        }
      ],
      "stateMutability": "view",
      "type": "function",
      "constant": true
    },
    {
      "inputs": [
        {
          "internalType": "uint256",
          "name": "_share",
          "type": "uint256"
        }
      ],
      "name": "withdraw",
      "outputs": [
        {
          "internalType": "uint256",
          "name": "withdrawEth",
          "type": "uint256"
        },
        {
          "internalType": "uint256",
          "name": "withdrawTkb",
          "type": "uint256"
        }
      ],
      "stateMutability": "nonpayable",
      "type": "function"
    },
    {
      "inputs": [
        {
          "internalType": "uint256",
          "name": "_amountCAY",
          "type": "uint256"
        }
      ],
      "name": "getExactCAYforKEN",
      "outputs": [
        {
          "internalType": "uint256",
          "name": "amountKEN",
          "type": "uint256"
        }
      ],
      "stateMutability": "view",
      "type": "function",
      "constant": true
    },
    {
      "inputs": [
        {
          "internalType": "uint256",
          "name": "_amountKEN",
          "type": "uint256"
        }
      ],
      "name": "getCAYforExactKEN",
      "outputs": [
        {
          "internalType": "uint256",
          "name": "amountCAY",
          "type": "uint256"
        }
      ],
      "stateMutability": "view",
      "type": "function",
      "constant": true
    },
    {
      "inputs": [
        {
          "internalType": "uint256",
          "name": "_amountCAY",
          "type": "uint256"
        }
      ],
      "name": "swapCAYforKEN",
      "outputs": [
        {
          "internalType": "uint256",
          "name": "amountKEN",
          "type": "uint256"
        }
      ],
      "stateMutability": "nonpayable",
      "type": "function"
    },
    {
      "inputs": [
        {
          "internalType": "uint256",
          "name": "_amountKEN",
          "type": "uint256"
        }
      ],
      "name": "getExactKENforCAY",
      "outputs": [
        {
          "internalType": "uint256",
          "name": "amountCAY",
          "type": "uint256"
        }
      ],
      "stateMutability": "view",
      "type": "function",
      "constant": true
    },
    {
      "inputs": [
        {
          "internalType": "uint256",
          "name": "_amountCAY",
          "type": "uint256"
        }
      ],
      "name": "getKENforExactCAY",
      "outputs": [
        {
          "internalType": "uint256",
          "name": "amountKEN",
          "type": "uint256"
        }
      ],
      "stateMutability": "view",
      "type": "function",
      "constant": true
    },
    {
      "inputs": [
        {
          "internalType": "uint256",
          "name": "_amountKEN",
          "type": "uint256"
        }
      ],
      "name": "swapKENforCAY",
      "outputs": [
        {
          "internalType": "uint256",
          "name": "amountCAY",
          "type": "uint256"
        }
      ],
      "stateMutability": "nonpayable",
      "type": "function"
    }
  ],
  "bytecode": "0x60806040523480156200001157600080fd5b506040516200230e3803806200230e833981810160405281019062000037919062000184565b81600360006101000a81548173ffffffffffffffffffffffffffffffffffffffff021916908373ffffffffffffffffffffffffffffffffffffffff16021790555080600460006101000a81548173ffffffffffffffffffffffffffffffffffffffff021916908373ffffffffffffffffffffffffffffffffffffffff1602179055505050620001cb565b600080fd5b600073ffffffffffffffffffffffffffffffffffffffff82169050919050565b6000620000f382620000c6565b9050919050565b60006200010782620000e6565b9050919050565b6200011981620000fa565b81146200012557600080fd5b50565b60008151905062000139816200010e565b92915050565b60006200014c82620000e6565b9050919050565b6200015e816200013f565b81146200016a57600080fd5b50565b6000815190506200017e8162000153565b92915050565b600080604083850312156200019e576200019d620000c1565b5b6000620001ae8582860162000128565b9250506020620001c1858286016200016d565b9150509250929050565b61213380620001db6000396000f3fe6080604052600436106100e85760003560e01c8063734b47c01161008a578063a64ace0711610059578063a64ace0714610338578063acfeec4c14610364578063bf87d7b61461038f578063c5d386e9146103cc576100e8565b8063734b47c01461027757806374a110c2146102b45780638055beb2146102d05780638427f41c146102fb576100e8565b80631f4cd48e116100c65780631f4cd48e146101825780632e1a7d4d146101bf5780634d4a2a7e146101fd57806364bd98491461023a576100e8565b806302fab740146100ed57806316a24ae314610119578063185dc76314610156575b600080fd5b3480156100f957600080fd5b50610102610409565b604051610110929190611784565b60405180910390f35b34801561012557600080fd5b50610140600480360381019061013b91906117de565b6104e6565b60405161014d919061180b565b60405180910390f35b34801561016257600080fd5b5061016b61056a565b604051610179929190611784565b60405180910390f35b34801561018e57600080fd5b506101a960048036038101906101a491906117de565b6105f5565b6040516101b6919061180b565b60405180910390f35b3480156101cb57600080fd5b506101e660048036038101906101e191906117de565b6106a3565b6040516101f4929190611784565b60405180910390f35b34801561020957600080fd5b50610224600480360381019061021f91906117de565b6108e5565b604051610231919061180b565b60405180910390f35b34801561024657600080fd5b50610261600480360381019061025c91906117de565b610b19565b60405161026e919061180b565b60405180910390f35b34801561028357600080fd5b5061029e600480360381019061029991906117de565b610b8f565b6040516102ab919061180b565b60405180910390f35b6102ce60048036038101906102c99190611826565b610c05565b005b3480156102dc57600080fd5b506102e5611105565b6040516102f291906118e5565b60405180910390f35b34801561030757600080fd5b50610322600480360381019061031d91906117de565b61112b565b60405161032f919061180b565b60405180910390f35b34801561034457600080fd5b5061034d61135f565b60405161035b929190611784565b60405180910390f35b34801561037057600080fd5b50610379611370565b6040516103869190611921565b60405180910390f35b34801561039b57600080fd5b506103b660048036038101906103b191906117de565b611396565b6040516103c3919061180b565b60405180910390f35b3480156103d857600080fd5b506103f360048036038101906103ee91906117de565b61141b565b604051610400919061180b565b60405180910390f35b6000806000805411801561041f57506000600154115b61045e576040517f08c379a0000000000000000000000000000000000000000000000000000000008152600401610455906119bf565b60405180910390fd5b600560003373ffffffffffffffffffffffffffffffffffffffff1673ffffffffffffffffffffffffffffffffffffffff168152602001908152602001600020549150600660003373ffffffffffffffffffffffffffffffffffffffff1673ffffffffffffffffffffffffffffffffffffffff1681526020019081526020016000205490509091565b6000806000541180156104fb57506000600154115b61053a576040517f08c379a0000000000000000000000000000000000000000000000000000000008152600401610531906119bf565b60405180910390fd5b610549826000546001546114c9565b9050600154811061056557600180546105629190611a0e565b90505b919050565b600080600560003373ffffffffffffffffffffffffffffffffffffffff1673ffffffffffffffffffffffffffffffffffffffff168152602001908152602001600020549150600660003373ffffffffffffffffffffffffffffffffffffffff1673ffffffffffffffffffffffffffffffffffffffff1681526020019081526020016000205490509091565b60008060005411801561060a57506000600154115b610649576040517f08c379a0000000000000000000000000000000000000000000000000000000008152600401610640906119bf565b60405180910390fd5b600054821061068d576040517f08c379a000000000000000000000000000000000000000000000000000000000815260040161068490611a8e565b60405180910390fd5b61069c826001546000546115b3565b9050919050565b600080600080541180156106b957506000600154115b6106f8576040517f08c379a00000000000000000000000000000000000000000000000000000000081526004016106ef906119bf565b60405180910390fd5b6000831161073b576040517f08c379a000000000000000000000000000000000000000000000000000000000815260040161073290611afa565b60405180910390fd5b606483600560003373ffffffffffffffffffffffffffffffffffffffff1673ffffffffffffffffffffffffffffffffffffffff168152602001908152602001600020546107889190611b1a565b6107929190611ba3565b9150606483600660003373ffffffffffffffffffffffffffffffffffffffff1673ffffffffffffffffffffffffffffffffffffffff168152602001908152602001600020546107e19190611b1a565b6107eb9190611ba3565b9050816000808282546107fe9190611a0e565b9250508190555080600160008282546108179190611a0e565b9250508190555060015460005461082e9190611b1a565b60028190555081600560003373ffffffffffffffffffffffffffffffffffffffff1673ffffffffffffffffffffffffffffffffffffffff16815260200190815260200160002060008282546108839190611a0e565b9250508190555080600660003373ffffffffffffffffffffffffffffffffffffffff1673ffffffffffffffffffffffffffffffffffffffff16815260200190815260200160002060008282546108d99190611a0e565b92505081905550915091565b6000806000541180156108fa57506000600154115b610939576040517f08c379a0000000000000000000000000000000000000000000000000000000008152600401610930906119bf565b60405180910390fd5b6000821161097c576040517f08c379a000000000000000000000000000000000000000000000000000000000815260040161097390611c20565b60405180910390fd5b610985826104e6565b9050816000808282546109989190611c40565b9250508190555080600160008282546109b19190611a0e565b925050819055506001546000546109c89190611b1a565b600281905550600360009054906101000a900473ffffffffffffffffffffffffffffffffffffffff1673ffffffffffffffffffffffffffffffffffffffff166323b872dd3330856040518463ffffffff1660e01b8152600401610a2d93929190611cb7565b6020604051808303816000875af1158015610a4c573d6000803e3d6000fd5b505050506040513d601f19601f82011682018060405250810190610a709190611d26565b50600460009054906101000a900473ffffffffffffffffffffffffffffffffffffffff1673ffffffffffffffffffffffffffffffffffffffff166323b872dd3033846040518463ffffffff1660e01b8152600401610ad093929190611cb7565b6020604051808303816000875af1158015610aef573d6000803e3d6000fd5b505050506040513d601f19601f82011682018060405250810190610b139190611d26565b50919050565b600080600054118015610b2e57506000600154115b610b6d576040517f08c379a0000000000000000000000000000000000000000000000000000000008152600401610b64906119bf565b60405180910390fd5b60015460005483610b7e9190611b1a565b610b889190611ba3565b9050919050565b600080600054118015610ba457506000600154115b610be3576040517f08c379a0000000000000000000000000000000000000000000000000000000008152600401610bda906119bf565b60405180910390fd5b60015460005483610bf49190611b1a565b610bfe9190611ba3565b9050919050565b6000821180610c145750600081115b610c53576040517f08c379a0000000000000000000000000000000000000000000000000000000008152600401610c4a90611d9f565b60405180910390fd5b600080541480610c6557506000600154145b15610c93578160008190555080600181905550600154600054610c889190611b1a565b600281905550610cc5565b81600080828254610ca49190611c40565b925050819055508060016000828254610cbd9190611c40565b925050819055505b81600560003373ffffffffffffffffffffffffffffffffffffffff1673ffffffffffffffffffffffffffffffffffffffff1681526020019081526020016000206000828254610d149190611c40565b9250508190555080600660003373ffffffffffffffffffffffffffffffffffffffff1673ffffffffffffffffffffffffffffffffffffffff1681526020019081526020016000206000828254610d6a9190611c40565b9250508190555081600360009054906101000a900473ffffffffffffffffffffffffffffffffffffffff1673ffffffffffffffffffffffffffffffffffffffff166370a08231336040518263ffffffff1660e01b8152600401610dcd9190611dbf565b602060405180830381865afa158015610dea573d6000803e3d6000fd5b505050506040513d601f19601f82011682018060405250810190610e0e9190611def565b1015610e4f576040517f08c379a0000000000000000000000000000000000000000000000000000000008152600401610e4690611e68565b60405180910390fd5b80600460009054906101000a900473ffffffffffffffffffffffffffffffffffffffff1673ffffffffffffffffffffffffffffffffffffffff166370a08231336040518263ffffffff1660e01b8152600401610eab9190611dbf565b602060405180830381865afa158015610ec8573d6000803e3d6000fd5b505050506040513d601f19601f82011682018060405250810190610eec9190611def565b1015610f2d576040517f08c379a0000000000000000000000000000000000000000000000000000000008152600401610f2490611ed4565b60405180910390fd5b600360009054906101000a900473ffffffffffffffffffffffffffffffffffffffff1673ffffffffffffffffffffffffffffffffffffffff166323b872dd3330856040518463ffffffff1660e01b8152600401610f8c93929190611cb7565b6020604051808303816000875af1158015610fab573d6000803e3d6000fd5b505050506040513d601f19601f82011682018060405250810190610fcf9190611d26565b50600460009054906101000a900473ffffffffffffffffffffffffffffffffffffffff1673ffffffffffffffffffffffffffffffffffffffff166323b872dd3330846040518463ffffffff1660e01b815260040161102f93929190611cb7565b6020604051808303816000875af115801561104e573d6000803e3d6000fd5b505050506040513d601f19601f820116820180604052508101906110729190611d26565b5061107e3330846116a3565b7fc29054f90051b44a9da91ea7d71fa8c6e0ffcd8ff6c8ace38a219031837cadf833600360009054906101000a900473ffffffffffffffffffffffffffffffffffffffff1684600460009054906101000a900473ffffffffffffffffffffffffffffffffffffffff16856040516110f9959493929190611ef4565b60405180910390a15050565b600360009054906101000a900473ffffffffffffffffffffffffffffffffffffffff1681565b60008060005411801561114057506000600154115b61117f576040517f08c379a0000000000000000000000000000000000000000000000000000000008152600401611176906119bf565b60405180910390fd5b600082116111c2576040517f08c379a00000000000000000000000000000000000000000000000000000000081526004016111b990611c20565b60405180910390fd5b6111cb82611396565b905081600160008282546111df9190611c40565b92505081905550806000808282546111f79190611a0e565b9250508190555060015460005461120e9190611b1a565b600281905550600460009054906101000a900473ffffffffffffffffffffffffffffffffffffffff1673ffffffffffffffffffffffffffffffffffffffff166323b872dd3330856040518463ffffffff1660e01b815260040161127393929190611cb7565b6020604051808303816000875af1158015611292573d6000803e3d6000fd5b505050506040513d601f19601f820116820180604052508101906112b69190611d26565b50600360009054906101000a900473ffffffffffffffffffffffffffffffffffffffff1673ffffffffffffffffffffffffffffffffffffffff166323b872dd3033846040518463ffffffff1660e01b815260040161131693929190611cb7565b6020604051808303816000875af1158015611335573d6000803e3d6000fd5b505050506040513d601f19601f820116820180604052508101906113599190611d26565b50919050565b600080600054600154915091509091565b600460009054906101000a900473ffffffffffffffffffffffffffffffffffffffff1681565b6000806000541180156113ab57506000600154115b6113ea576040517f08c379a00000000000000000000000000000000000000000000000000000000081526004016113e1906119bf565b60405180910390fd5b6113f9826001546000546114c9565b905060005481106114165760016000546114139190611a0e565b90505b919050565b60008060005411801561143057506000600154115b61146f576040517f08c379a0000000000000000000000000000000000000000000000000000000008152600401611466906119bf565b60405180910390fd5b60015482106114b3576040517f08c379a00000000000000000000000000000000000000000000000000000000081526004016114aa90611a8e565b60405180910390fd5b6114c2826000546001546115b3565b9050919050565b600080841161150d576040517f08c379a000000000000000000000000000000000000000000000000000000000815260040161150490611fb9565b60405180910390fd5b60008311801561151d5750600082115b61155c576040517f08c379a00000000000000000000000000000000000000000000000000000000081526004016115539061204b565b60405180910390fd5b60006103e58561156c9190611b1a565b90506000838261157c9190611b1a565b90506000826103e88761158f9190611b1a565b6115999190611c40565b905080826115a79190611ba3565b93505050509392505050565b60008084116115f7576040517f08c379a00000000000000000000000000000000000000000000000000000000081526004016115ee906120dd565b60405180910390fd5b6000831180156116075750600082115b611646576040517f08c379a000000000000000000000000000000000000000000000000000000000815260040161163d9061204b565b60405180910390fd5b60006103e885856116579190611b1a565b6116619190611b1a565b905060006103e586856116749190611a0e565b61167e9190611b1a565b90506001818361168e9190611ba3565b6116989190611c40565b925050509392505050565b61173d8383836040516024016116bb93929190611cb7565b6040516020818303038152906040527f6c366d72000000000000000000000000000000000000000000000000000000007bffffffffffffffffffffffffffffffffffffffffffffffffffffffff19166020820180517bffffffffffffffffffffffffffffffffffffffffffffffffffffffff8381831617835250505050611742565b505050565b60008151905060006a636f6e736f6c652e6c6f679050602083016000808483855afa5050505050565b6000819050919050565b61177e8161176b565b82525050565b60006040820190506117996000830185611775565b6117a66020830184611775565b9392505050565b600080fd5b6117bb8161176b565b81146117c657600080fd5b50565b6000813590506117d8816117b2565b92915050565b6000602082840312156117f4576117f36117ad565b5b6000611802848285016117c9565b91505092915050565b60006020820190506118206000830184611775565b92915050565b6000806040838503121561183d5761183c6117ad565b5b600061184b858286016117c9565b925050602061185c858286016117c9565b9150509250929050565b600073ffffffffffffffffffffffffffffffffffffffff82169050919050565b6000819050919050565b60006118ab6118a66118a184611866565b611886565b611866565b9050919050565b60006118bd82611890565b9050919050565b60006118cf826118b2565b9050919050565b6118df816118c4565b82525050565b60006020820190506118fa60008301846118d6565b92915050565b600061190b826118b2565b9050919050565b61191b81611900565b82525050565b60006020820190506119366000830184611912565b92915050565b600082825260208201905092915050565b7f456d70747920706f6f6c2c20706c6561736520616464206c697175696469747960008201527f2e00000000000000000000000000000000000000000000000000000000000000602082015250565b60006119a960218361193c565b91506119b48261194d565b604082019050919050565b600060208201905081810360008301526119d88161199c565b9050919050565b7f4e487b7100000000000000000000000000000000000000000000000000000000600052601160045260246000fd5b6000611a198261176b565b9150611a248361176b565b925082821015611a3757611a366119df565b5b828203905092915050565b7f496e73756666696369656e7420706f6f6c2062616c616e636500000000000000600082015250565b6000611a7860198361193c565b9150611a8382611a42565b602082019050919050565b60006020820190508181036000830152611aa781611a6b565b9050919050565b7f63616e6e6f74206265207a65726f2076616c7565000000000000000000000000600082015250565b6000611ae460148361193c565b9150611aef82611aae565b602082019050919050565b60006020820190508181036000830152611b1381611ad7565b9050919050565b6000611b258261176b565b9150611b308361176b565b9250817fffffffffffffffffffffffffffffffffffffffffffffffffffffffffffffffff0483118215151615611b6957611b686119df565b5b828202905092915050565b7f4e487b7100000000000000000000000000000000000000000000000000000000600052601260045260246000fd5b6000611bae8261176b565b9150611bb98361176b565b925082611bc957611bc8611b74565b5b828204905092915050565b7f616d6f756e742063616e27742062652030000000000000000000000000000000600082015250565b6000611c0a60118361193c565b9150611c1582611bd4565b602082019050919050565b60006020820190508181036000830152611c3981611bfd565b9050919050565b6000611c4b8261176b565b9150611c568361176b565b9250827fffffffffffffffffffffffffffffffffffffffffffffffffffffffffffffffff03821115611c8b57611c8a6119df565b5b828201905092915050565b6000611ca182611866565b9050919050565b611cb181611c96565b82525050565b6000606082019050611ccc6000830186611ca8565b611cd96020830185611ca8565b611ce66040830184611775565b949350505050565b60008115159050919050565b611d0381611cee565b8114611d0e57600080fd5b50565b600081519050611d2081611cfa565b92915050565b600060208284031215611d3c57611d3b6117ad565b5b6000611d4a84828501611d11565b91505092915050565b7f4e656564206d6f7265207468616e205a65726f2076616c756500000000000000600082015250565b6000611d8960198361193c565b9150611d9482611d53565b602082019050919050565b60006020820190508181036000830152611db881611d7c565b9050919050565b6000602082019050611dd46000830184611ca8565b92915050565b600081519050611de9816117b2565b92915050565b600060208284031215611e0557611e046117ad565b5b6000611e1384828501611dda565b91505092915050565b7f43415920546f6b656e204e6f7420456e6f756768210000000000000000000000600082015250565b6000611e5260158361193c565b9150611e5d82611e1c565b602082019050919050565b60006020820190508181036000830152611e8181611e45565b9050919050565b7f4b454e20546f6b656e204e6f7420456e6f756768210000000000000000000000600082015250565b6000611ebe60158361193c565b9150611ec982611e88565b602082019050919050565b60006020820190508181036000830152611eed81611eb1565b9050919050565b600060a082019050611f096000830188611ca8565b611f166020830187611ca8565b611f236040830186611775565b611f306060830185611ca8565b611f3d6080830184611775565b9695505050505050565b7f556e697377617056324c6962726172793a20494e53554646494349454e545f4960008201527f4e5055545f414d4f554e54000000000000000000000000000000000000000000602082015250565b6000611fa3602b8361193c565b9150611fae82611f47565b604082019050919050565b60006020820190508181036000830152611fd281611f96565b9050919050565b7f556e697377617056324c6962726172793a20494e53554646494349454e545f4c60008201527f4951554944495459000000000000000000000000000000000000000000000000602082015250565b600061203560288361193c565b915061204082611fd9565b604082019050919050565b6000602082019050818103600083015261206481612028565b9050919050565b7f556e697377617056324c6962726172793a20494e53554646494349454e545f4f60008201527f55545055545f414d4f554e540000000000000000000000000000000000000000602082015250565b60006120c7602c8361193c565b91506120d28261206b565b604082019050919050565b600060208201905081810360008301526120f6816120ba565b905091905056fea2646970667358221220ab8c3d47d4064cc1a0a634125e9708c49fc44b41640e02458b9dc3f66a870f6064736f6c634300080b0033",
  "immutableReferences": {},
  "source": "// SPDX-License-Identifier: GPL-3.0\r\npragma solidity ^0.8.0;\r\n\r\n\r\nimport \"hardhat/console.sol\";\r\nimport \"./KENTOKEN.sol\";\r\nimport \"./CAYTOKEN.sol\";\r\n\r\ncontract AMM {\r\n    uint256 totalCAYTokenInPool;//total amount of CAY token in the pool\r\n    uint256 totalKENTokenInPool;//total amount of KEN token in the pool\r\n    uint256 K;//K constant in X*Y = K\r\n\r\n    uint constant PRECISION = 1_000_000;\r\n\r\n    CAYTOKEN public cayToken;\r\n    KENTOKEN public kenToken;\r\n\r\n\r\n\r\n    mapping(address => uint256) userBalanceCAYInPool;\r\n    mapping(address => uint256) userBalanceKENInPool;\r\n\r\n    event PoolAreCreated(\r\n        address account,\r\n        address cayToken,\r\n        uint cayAmount,\r\n        address kenToken,\r\n        uint kenAmount\r\n    );\r\n\r\n    constructor(CAYTOKEN _cayToken,KENTOKEN _kenToken){\r\n        cayToken = _cayToken;\r\n        kenToken = _kenToken;\r\n    }\r\n\r\n    //no liquidity, cannot withdraw from liquidity pool\r\n    modifier activePool() {\r\n        require(totalCAYTokenInPool > 0 && totalKENTokenInPool > 0, \"Empty pool, please add liquidity.\");\r\n        _;\r\n    }\r\n\r\n    //get the liquidity pool total Eth token, TkB token\r\n    function checkBothTokenAmountInPool() external view returns(uint256, uint256) {\r\n        return (totalCAYTokenInPool, totalKENTokenInPool);\r\n    }\r\n\r\n    //get user balance token in the pool\r\n    function getUserBothTokenBalanceInPool() external view returns (uint256 _userBalanceCAYInPool, uint _userBalanceKENInPool) {\r\n        _userBalanceCAYInPool = userBalanceCAYInPool[msg.sender];\r\n        _userBalanceKENInPool = userBalanceKENInPool[msg.sender];\r\n    }\r\n\r\n    //to get the total Tkb token needed to add into pool\r\n    function getAddPoolCAYRequirement(uint256 _cayToken) public view activePool returns(uint256 reqCAYToken) {\r\n        reqCAYToken = _cayToken * totalCAYTokenInPool / totalKENTokenInPool ;\r\n    }\r\n\r\n    //to get the total eth token needed to add into pool\r\n    function getAddPoolKENRequirement(uint256 _kenToken) public view activePool returns(uint256 reqKENToken) {\r\n        reqKENToken = _kenToken * totalCAYTokenInPool / totalKENTokenInPool ;\r\n    }\r\n\r\n\r\n    //add liquidity into the pool, set K constant if first added, store share % into user\r\n    function createPool(\r\n        uint256 addCAYTokenInPool,\r\n        uint256 addKENTokenInPool\r\n    ) payable public {\r\n        require(addCAYTokenInPool > 0 || addKENTokenInPool > 0, \"Need more than Zero value\");\r\n        if(totalCAYTokenInPool == 0 || totalKENTokenInPool == 0)  // Genesis liquidity is issued 100 Shares\r\n        {\r\n            totalCAYTokenInPool = addCAYTokenInPool;\r\n            totalKENTokenInPool = addKENTokenInPool;\r\n            K = totalCAYTokenInPool * totalKENTokenInPool;\r\n        }\r\n        else\r\n        {\r\n            totalCAYTokenInPool += addCAYTokenInPool;\r\n            totalKENTokenInPool += addKENTokenInPool;\r\n        }\r\n\r\n        userBalanceCAYInPool[msg.sender] += addCAYTokenInPool;\r\n        userBalanceKENInPool[msg.sender] += addKENTokenInPool;\r\n\r\n        // Require that User has enough CAY tokens\r\n        // Require that User has enough KEN tokens\r\n        require(cayToken.balanceOf(msg.sender) >= addCAYTokenInPool,\"CAY Token Not Enough!\");\r\n        require(kenToken.balanceOf(msg.sender) >= addKENTokenInPool,\"KEN Token Not Enough!\");\r\n\r\n\r\n        cayToken.transferFrom(msg.sender, address(this), addCAYTokenInPool);\r\n        kenToken.transferFrom(msg.sender, address(this), addKENTokenInPool);\r\n\r\n\r\n        console.log(msg.sender,address(this),addCAYTokenInPool);\r\n        emit PoolAreCreated(msg.sender, address(cayToken), addCAYTokenInPool, address(kenToken),addKENTokenInPool);\r\n    }\r\n\r\n    //get withdraw total tokens\r\n    function getWithdrawToken () external view activePool returns(uint256 withdrawEth, uint256 withdrawTkb) {\r\n        withdrawEth = userBalanceCAYInPool[msg.sender];\r\n        withdrawTkb = userBalanceKENInPool[msg.sender];\r\n    }\r\n\r\n    //withdraw  tokens from pool and add the tokens back to user\r\n    function withdraw(uint256 _share) external activePool returns(uint256 withdrawEth, uint256 withdrawTkb) {\r\n        require(_share > 0,\"cannot be zero value\");\r\n        withdrawEth = userBalanceCAYInPool[msg.sender] * _share / 100;\r\n        withdrawTkb = userBalanceKENInPool[msg.sender] * _share / 100;\r\n\r\n        totalCAYTokenInPool -= withdrawEth;\r\n        totalKENTokenInPool -= withdrawTkb;\r\n        K = totalCAYTokenInPool * totalKENTokenInPool;\r\n\r\n        userBalanceCAYInPool[msg.sender] -= withdrawEth;\r\n        userBalanceKENInPool[msg.sender] -= withdrawTkb;\r\n    }\r\n\r\n    // Returns the amount of TkB token that the user will get when swapping a exact amount of Eth token\r\n    function getExactCAYforKEN(uint256 _amountCAY) public view activePool returns(uint256 amountKEN) {\r\n        amountKEN = getAmountOut(_amountCAY, totalCAYTokenInPool, totalKENTokenInPool);\r\n\r\n        // To ensure that Token2's pool is not completely depleted leading to inf:0 ratio\r\n        if(amountKEN >= totalKENTokenInPool) amountKEN = totalKENTokenInPool - 1;\r\n    }\r\n\r\n    // Returns the amount of Eth token needed to swap a exact amount of TkB token\r\n    function getCAYforExactKEN(uint256 _amountKEN) public view activePool returns(uint256 amountCAY) {\r\n        require(_amountKEN < totalKENTokenInPool, \"Insufficient pool balance\");\r\n        amountCAY = getAmountIn(_amountKEN, totalCAYTokenInPool, totalKENTokenInPool);\r\n    }\r\n\r\n    // Swaps Eth token to TkB token using algorithmic price determination\r\n    function swapCAYforKEN( uint256 _amountCAY) external activePool returns(uint256 amountKEN) {\r\n        require(_amountCAY > 0, \"amount can't be 0\");\r\n        amountKEN = getExactCAYforKEN(_amountCAY);\r\n\r\n        totalCAYTokenInPool += _amountCAY;\r\n        totalKENTokenInPool -= amountKEN;\r\n        K = totalCAYTokenInPool * totalKENTokenInPool;\r\n\r\n        cayToken.transferFrom(msg.sender, address(this), _amountCAY);\r\n        kenToken.transferFrom( address(this),msg.sender, amountKEN);\r\n    }\r\n\r\n    // Returns the amount of Eth token that the user will get when swapping a exact amount of Tkb token\r\n    function getExactKENforCAY (uint256 _amountKEN) public view activePool returns(uint256 amountCAY) {\r\n        amountCAY = getAmountOut(_amountKEN, totalKENTokenInPool, totalCAYTokenInPool);\r\n\r\n        // To ensure that Token1's pool is not completely depleted leading to inf:0 ratio\r\n        if(amountCAY >= totalCAYTokenInPool) amountCAY = totalCAYTokenInPool - 1;\r\n    }\r\n\r\n    // Returns the amount of Tkb token needed to swap a exact amount of Eth token\r\n    function getKENforExactCAY (uint256 _amountCAY) public view activePool returns(uint256 amountKEN) {\r\n        require(_amountCAY < totalCAYTokenInPool, \"Insufficient pool balance\");\r\n        amountKEN = getAmountIn(_amountCAY, totalKENTokenInPool, totalCAYTokenInPool);\r\n    }\r\n\r\n    // Swaps KEN token to CAY token using algorithmic price determination\r\n    function swapKENforCAY(uint256 _amountKEN) external activePool returns(uint256 amountCAY) {\r\n        require(_amountKEN > 0, \"amount can't be 0\");\r\n        amountCAY = getExactKENforCAY(_amountKEN);\r\n\r\n        totalKENTokenInPool += _amountKEN;\r\n        totalCAYTokenInPool -= amountCAY;\r\n        K = totalCAYTokenInPool * totalKENTokenInPool;\r\n        kenToken.transferFrom(msg.sender, address(this), _amountKEN);\r\n        cayToken.transferFrom( address(this),msg.sender, amountCAY);\r\n    }\r\n\r\n    // given an input amount of an asset and pair reserves, returns the maximum output amount of the other asset\r\n    function getAmountOut(uint amountIn, uint reserveIn, uint reserveOut) internal pure returns (uint amountOut) {\r\n        require(amountIn > 0, 'UniswapV2Library: INSUFFICIENT_INPUT_AMOUNT');\r\n        require(reserveIn > 0 && reserveOut > 0, 'UniswapV2Library: INSUFFICIENT_LIQUIDITY');\r\n        uint amountInWithFee = amountIn * 997;\r\n        uint numerator = amountInWithFee * (reserveOut);\r\n        uint denominator = (reserveIn * 1000) + amountInWithFee;\r\n        amountOut = numerator / denominator;\r\n    }\r\n\r\n    // given an output amount of an asset and pair reserves, returns a required input amount of the other asset\r\n    function getAmountIn(uint amountOut, uint reserveIn, uint reserveOut) internal pure returns (uint amountIn) {\r\n        require(amountOut > 0, 'UniswapV2Library: INSUFFICIENT_OUTPUT_AMOUNT');\r\n        require(reserveIn > 0 && reserveOut > 0, 'UniswapV2Library: INSUFFICIENT_LIQUIDITY');\r\n        uint numerator = reserveIn * amountOut * 1000;\r\n        uint denominator = (reserveOut - amountOut) * 997;\r\n        amountIn = (numerator / denominator) + 1;\r\n    }\r\n\r\n}",
  "sourcePath": "C:\\Users\\Acer\\Desktop\\sassy\\refer2\\test\\src\\contracts\\Amm.sol",
  "compiler": {
    "name": "solc",
    "version": "0.8.11+commit.d7f03943.Emscripten.clang"
  },
  "schemaVersion": "3.4.6",
  "updatedAt": "2022-04-10T09:31:15.385Z",
  "networkType": "ethereum",
  "devdoc": {
    "kind": "dev",
    "methods": {},
    "version": 1
  },
  "userdoc": {
    "kind": "user",
    "methods": {},
    "version": 1
  }
}