{
  "contractName": "AMM",
  "abi": [
    {
      "inputs": [],
      "name": "getPoolInfo",
      "outputs": [
        {
          "internalType": "uint256",
          "name": "",
          "type": "uint256"
        },
        {
          "internalType": "uint256",
          "name": "",
          "type": "uint256"
        }
      ],
      "stateMutability": "view",
      "type": "function",
      "constant": true
    },
    {
      "inputs": [],
      "name": "getUserPoolBalance",
      "outputs": [
        {
          "internalType": "uint256",
          "name": "amountEth",
          "type": "uint256"
        },
        {
          "internalType": "uint256",
          "name": "amountCAY",
          "type": "uint256"
        },
        {
          "internalType": "uint256",
          "name": "userShare",
          "type": "uint256"
        }
      ],
      "stateMutability": "view",
      "type": "function",
      "constant": true
    },
    {
      "inputs": [
        {
          "internalType": "uint256",
          "name": "ethToken",
          "type": "uint256"
        }
      ],
      "name": "getAddPoolTkbRequirement",
      "outputs": [
        {
          "internalType": "uint256",
          "name": "reqCAYToken",
          "type": "uint256"
        }
      ],
      "stateMutability": "view",
      "type": "function",
      "constant": true
    },
    {
      "inputs": [
        {
          "internalType": "uint256",
          "name": "tkbToken",
          "type": "uint256"
        }
      ],
      "name": "getAddPoolEthRequirement",
      "outputs": [
        {
          "internalType": "uint256",
          "name": "reqEthToken",
          "type": "uint256"
        }
      ],
      "stateMutability": "view",
      "type": "function",
      "constant": true
    },
    {
      "inputs": [
        {
          "internalType": "uint256",
          "name": "addEthToken",
          "type": "uint256"
        },
        {
          "internalType": "uint256",
          "name": "addCAYToken",
          "type": "uint256"
        }
      ],
      "name": "addLiquidity",
      "outputs": [
        {
          "internalType": "uint256",
          "name": "_share",
          "type": "uint256"
        }
      ],
      "stateMutability": "nonpayable",
      "type": "function"
    },
    {
      "inputs": [
        {
          "internalType": "uint256",
          "name": "_share",
          "type": "uint256"
        }
      ],
      "name": "getWithdrawToken",
      "outputs": [
        {
          "internalType": "uint256",
          "name": "withdrawEth",
          "type": "uint256"
        },
        {
          "internalType": "uint256",
          "name": "withdrawCAY",
          "type": "uint256"
        }
      ],
      "stateMutability": "view",
      "type": "function",
      "constant": true
    },
    {
      "inputs": [
        {
          "internalType": "uint256",
          "name": "_share",
          "type": "uint256"
        }
      ],
      "name": "withdraw",
      "outputs": [
        {
          "internalType": "uint256",
          "name": "withdrawEth",
          "type": "uint256"
        },
        {
          "internalType": "uint256",
          "name": "withdrawTkb",
          "type": "uint256"
        }
      ],
      "stateMutability": "nonpayable",
      "type": "function"
    },
    {
      "inputs": [
        {
          "internalType": "uint256",
          "name": "_amountEth",
          "type": "uint256"
        }
      ],
      "name": "getExactEthforCAY",
      "outputs": [
        {
          "internalType": "uint256",
          "name": "amountCAY",
          "type": "uint256"
        }
      ],
      "stateMutability": "view",
      "type": "function",
      "constant": true
    },
    {
      "inputs": [
        {
          "internalType": "uint256",
          "name": "_amountTkB",
          "type": "uint256"
        }
      ],
      "name": "getEthforExactCAY",
      "outputs": [
        {
          "internalType": "uint256",
          "name": "amountEth",
          "type": "uint256"
        }
      ],
      "stateMutability": "view",
      "type": "function",
      "constant": true
    },
    {
      "inputs": [
        {
          "internalType": "uint256",
          "name": "_amountEth",
          "type": "uint256"
        }
      ],
      "name": "swapEthforTkB",
      "outputs": [
        {
          "internalType": "uint256",
          "name": "amountTkb",
          "type": "uint256"
        }
      ],
      "stateMutability": "nonpayable",
      "type": "function"
    },
    {
      "inputs": [
        {
          "internalType": "uint256",
          "name": "_amountCAY",
          "type": "uint256"
        }
      ],
      "name": "getExactTkbforEth",
      "outputs": [
        {
          "internalType": "uint256",
          "name": "amountEth",
          "type": "uint256"
        }
      ],
      "stateMutability": "view",
      "type": "function",
      "constant": true
    },
    {
      "inputs": [
        {
          "internalType": "uint256",
          "name": "_amountEth",
          "type": "uint256"
        }
      ],
      "name": "getTkbforExactEth",
      "outputs": [
        {
          "internalType": "uint256",
          "name": "amountCAY",
          "type": "uint256"
        }
      ],
      "stateMutability": "view",
      "type": "function",
      "constant": true
    },
    {
      "inputs": [
        {
          "internalType": "uint256",
          "name": "_amountCAY",
          "type": "uint256"
        }
      ],
      "name": "swapTkBforEth",
      "outputs": [
        {
          "internalType": "uint256",
          "name": "amountEth",
          "type": "uint256"
        }
      ],
      "stateMutability": "nonpayable",
      "type": "function"
    }
  ],
  "bytecode": "0x608060405234801561001057600080fd5b50611c63806100206000396000f3fe608060405234801561001057600080fd5b50600436106100cf5760003560e01c8063822992441161008c578063aa36948911610066578063aa36948914610275578063d9ce257c146102a5578063f4b59856146102d5578063fd56229f146102f5576100cf565b806382299244146101e55780639992097b146102155780639cd441da14610245576100cf565b80630918d586146100d45780632e1a7d4d1461010557806360246c88146101365780636a393e2b146101555780636c448388146101855780637905cfc4146101b5575b600080fd5b6100ee60048036038101906100e99190611446565b610325565b6040516100fc929190611482565b60405180910390f35b61011f600480360381019061011a9190611446565b6103f0565b60405161012d929190611482565b60405180910390f35b61013e610678565b60405161014c929190611482565b60405180910390f35b61016f600480360381019061016a9190611446565b610689565b60405161017c91906114ab565b60405180910390f35b61019f600480360381019061019a9190611446565b6106fe565b6040516101ac91906114ab565b60405180910390f35b6101cf60048036038101906101ca9190611446565b61079e565b6040516101dc91906114ab565b60405180910390f35b6101ff60048036038101906101fa9190611446565b61099b565b60405161020c91906114ab565b60405180910390f35b61022f600480360381019061022a9190611446565b610a03565b60405161023c91906114ab565b60405180910390f35b61025f600480360381019061025a91906114c6565b610a6b565b60405161026c91906114ab565b60405180910390f35b61028f600480360381019061028a9190611446565b610e4f565b60405161029c91906114ab565b60405180910390f35b6102bf60048036038101906102ba9190611446565b610ec4565b6040516102cc91906114ab565b60405180910390f35b6102dd6110c1565b6040516102ec93929190611506565b60405180910390f35b61030f600480360381019061030a9190611446565b611191565b60405161031c91906114ab565b60405180910390f35b600080600080541161036c576040517f08c379a0000000000000000000000000000000000000000000000000000000008152600401610363906115c0565b60405180910390fd5b6000548311156103b1576040517f08c379a00000000000000000000000000000000000000000000000000000000081526004016103a890611652565b60405180910390fd5b600154600054846103c291906116d0565b6103cc9190611701565b9150600254600054846103df91906116d0565b6103e99190611701565b9050915091565b6000806000805411610437576040517f08c379a000000000000000000000000000000000000000000000000000000000815260040161042e906115c0565b60405180910390fd5b6004836000811161047d576040517f08c379a0000000000000000000000000000000000000000000000000000000008152600401610474906117a7565b60405180910390fd5b8160003373ffffffffffffffffffffffffffffffffffffffff1673ffffffffffffffffffffffffffffffffffffffff168152602001908152602001600020548111156104fe576040517f08c379a00000000000000000000000000000000000000000000000000000000081526004016104f590611813565b60405180910390fd5b61050785610325565b809450819550505084600460003373ffffffffffffffffffffffffffffffffffffffff1673ffffffffffffffffffffffffffffffffffffffff168152602001908152602001600020600082825461055e9190611833565b92505081905550846000808282546105769190611833565b92505081905550836001600082825461058f9190611833565b9250508190555082600260008282546105a89190611833565b925050819055506002546001546105bf9190611701565b60038190555083600560003373ffffffffffffffffffffffffffffffffffffffff1673ffffffffffffffffffffffffffffffffffffffff16815260200190815260200160002060008282546106149190611867565b9250508190555082600660003373ffffffffffffffffffffffffffffffffffffffff1673ffffffffffffffffffffffffffffffffffffffff168152602001908152602001600020600082825461066a9190611867565b925050819055505050915091565b600080600154600254915091509091565b600080600054116106cf576040517f08c379a00000000000000000000000000000000000000000000000000000000081526004016106c6906115c0565b60405180910390fd5b6106de82600254600154611231565b90506001548114156106f95780806106f5906118bd565b9150505b919050565b60008060005411610744576040517f08c379a000000000000000000000000000000000000000000000000000000000815260040161073b906115c0565b60405180910390fd5b6002548210610788576040517f08c379a000000000000000000000000000000000000000000000000000000000815260040161077f90611933565b60405180910390fd5b6107978260015460025461131b565b9050919050565b600080600054116107e4576040517f08c379a00000000000000000000000000000000000000000000000000000000081526004016107db906115c0565b60405180910390fd5b6005826000811161082a576040517f08c379a0000000000000000000000000000000000000000000000000000000008152600401610821906117a7565b60405180910390fd5b8160003373ffffffffffffffffffffffffffffffffffffffff1673ffffffffffffffffffffffffffffffffffffffff168152602001908152602001600020548111156108ab576040517f08c379a00000000000000000000000000000000000000000000000000000000081526004016108a290611813565b60405180910390fd5b6108b484610e4f565b925083600560003373ffffffffffffffffffffffffffffffffffffffff1673ffffffffffffffffffffffffffffffffffffffff16815260200190815260200160002060008282546109059190611833565b92505081905550836001600082825461091e9190611867565b9250508190555082600260008282546109379190611833565b9250508190555082600660003373ffffffffffffffffffffffffffffffffffffffff1673ffffffffffffffffffffffffffffffffffffffff168152602001908152602001600020600082825461098d9190611867565b925050819055505050919050565b600080600054116109e1576040517f08c379a00000000000000000000000000000000000000000000000000000000081526004016109d8906115c0565b60405180910390fd5b600254600154836109f291906116d0565b6109fc9190611701565b9050919050565b60008060005411610a49576040517f08c379a0000000000000000000000000000000000000000000000000000000008152600401610a40906115c0565b60405180910390fd5b60015460025483610a5a91906116d0565b610a649190611701565b9050919050565b600060058360008111610ab3576040517f08c379a0000000000000000000000000000000000000000000000000000000008152600401610aaa906117a7565b60405180910390fd5b8160003373ffffffffffffffffffffffffffffffffffffffff1673ffffffffffffffffffffffffffffffffffffffff16815260200190815260200160002054811115610b34576040517f08c379a0000000000000000000000000000000000000000000000000000000008152600401610b2b90611813565b60405180910390fd5b60068460008111610b7a576040517f08c379a0000000000000000000000000000000000000000000000000000000008152600401610b71906117a7565b60405180910390fd5b8160003373ffffffffffffffffffffffffffffffffffffffff1673ffffffffffffffffffffffffffffffffffffffff16815260200190815260200160002054811115610bfb576040517f08c379a0000000000000000000000000000000000000000000000000000000008152600401610bf290611813565b60405180910390fd5b600080541415610c1c57620f42406064610c159190611701565b9450610ca0565b6000805460015489610c2e91906116d0565b610c389190611701565b90506000805460025489610c4c91906116d0565b610c569190611701565b9050808214610c9a576040517f08c379a0000000000000000000000000000000000000000000000000000000008152600401610c91906119c5565b60405180910390fd5b81965050505b60008511610ce3576040517f08c379a0000000000000000000000000000000000000000000000000000000008152600401610cda90611a57565b60405180910390fd5b86600560003373ffffffffffffffffffffffffffffffffffffffff1673ffffffffffffffffffffffffffffffffffffffff1681526020019081526020016000206000828254610d329190611833565b9250508190555085600660003373ffffffffffffffffffffffffffffffffffffffff1673ffffffffffffffffffffffffffffffffffffffff1681526020019081526020016000206000828254610d889190611833565b925050819055508660016000828254610da19190611867565b925050819055508560026000828254610dba9190611867565b92505081905550600254600154610dd19190611701565b60038190555084600080828254610de89190611867565b9250508190555084600460003373ffffffffffffffffffffffffffffffffffffffff1673ffffffffffffffffffffffffffffffffffffffff1681526020019081526020016000206000828254610e3e9190611867565b925050819055505050505092915050565b60008060005411610e95576040517f08c379a0000000000000000000000000000000000000000000000000000000008152600401610e8c906115c0565b60405180910390fd5b610ea482600154600254611231565b9050600254811415610ebf578080610ebb906118bd565b9150505b919050565b60008060005411610f0a576040517f08c379a0000000000000000000000000000000000000000000000000000000008152600401610f01906115c0565b60405180910390fd5b60068260008111610f50576040517f08c379a0000000000000000000000000000000000000000000000000000000008152600401610f47906117a7565b60405180910390fd5b8160003373ffffffffffffffffffffffffffffffffffffffff1673ffffffffffffffffffffffffffffffffffffffff16815260200190815260200160002054811115610fd1576040517f08c379a0000000000000000000000000000000000000000000000000000000008152600401610fc890611813565b60405180910390fd5b610fda84610689565b925083600660003373ffffffffffffffffffffffffffffffffffffffff1673ffffffffffffffffffffffffffffffffffffffff168152602001908152602001600020600082825461102b9190611833565b9250508190555083600260008282546110449190611867565b92505081905550826001600082825461105d9190611833565b9250508190555082600560003373ffffffffffffffffffffffffffffffffffffffff1673ffffffffffffffffffffffffffffffffffffffff16815260200190815260200160002060008282546110b39190611867565b925050819055505050919050565b6000806000600560003373ffffffffffffffffffffffffffffffffffffffff1673ffffffffffffffffffffffffffffffffffffffff168152602001908152602001600020549250600660003373ffffffffffffffffffffffffffffffffffffffff1673ffffffffffffffffffffffffffffffffffffffff168152602001908152602001600020549150600460003373ffffffffffffffffffffffffffffffffffffffff1673ffffffffffffffffffffffffffffffffffffffff168152602001908152602001600020549050909192565b600080600054116111d7576040517f08c379a00000000000000000000000000000000000000000000000000000000081526004016111ce906115c0565b60405180910390fd5b600154821061121b576040517f08c379a000000000000000000000000000000000000000000000000000000000815260040161121290611933565b60405180910390fd5b61122a8260025460015461131b565b9050919050565b6000808411611275576040517f08c379a000000000000000000000000000000000000000000000000000000000815260040161126c90611ae9565b60405180910390fd5b6000831180156112855750600082115b6112c4576040517f08c379a00000000000000000000000000000000000000000000000000000000081526004016112bb90611b7b565b60405180910390fd5b60006103e5856112d49190611701565b9050600083826112e49190611701565b90506000826103e8876112f79190611701565b6113019190611867565b9050808261130f91906116d0565b93505050509392505050565b600080841161135f576040517f08c379a000000000000000000000000000000000000000000000000000000000815260040161135690611c0d565b60405180910390fd5b60008311801561136f5750600082115b6113ae576040517f08c379a00000000000000000000000000000000000000000000000000000000081526004016113a590611b7b565b60405180910390fd5b60006103e885856113bf9190611701565b6113c99190611701565b905060006103e586856113dc9190611833565b6113e69190611701565b9050600181836113f691906116d0565b6114009190611867565b925050509392505050565b600080fd5b6000819050919050565b61142381611410565b811461142e57600080fd5b50565b6000813590506114408161141a565b92915050565b60006020828403121561145c5761145b61140b565b5b600061146a84828501611431565b91505092915050565b61147c81611410565b82525050565b60006040820190506114976000830185611473565b6114a46020830184611473565b9392505050565b60006020820190506114c06000830184611473565b92915050565b600080604083850312156114dd576114dc61140b565b5b60006114eb85828601611431565b92505060206114fc85828601611431565b9150509250929050565b600060608201905061151b6000830186611473565b6115286020830185611473565b6115356040830184611473565b949350505050565b600082825260208201905092915050565b7f456d70747920706f6f6c2c20706c6561736520616464206c697175696469747960008201527f2e00000000000000000000000000000000000000000000000000000000000000602082015250565b60006115aa60218361153d565b91506115b58261154e565b604082019050919050565b600060208201905081810360008301526115d98161159d565b9050919050565b7f53686172652073686f756c64206265206c657373207468616e206f722065717560008201527f616c20746f20546f74616c205368617265000000000000000000000000000000602082015250565b600061163c60318361153d565b9150611647826115e0565b604082019050919050565b6000602082019050818103600083015261166b8161162f565b9050919050565b7f4e487b7100000000000000000000000000000000000000000000000000000000600052601260045260246000fd5b7f4e487b7100000000000000000000000000000000000000000000000000000000600052601160045260246000fd5b60006116db82611410565b91506116e683611410565b9250826116f6576116f5611672565b5b828204905092915050565b600061170c82611410565b915061171783611410565b9250817fffffffffffffffffffffffffffffffffffffffffffffffffffffffffffffffff04831182151516156117505761174f6116a1565b5b828202905092915050565b7f416d6f756e74206d757374206d6f7265207468616e207a65726f2e0000000000600082015250565b6000611791601b8361153d565b915061179c8261175b565b602082019050919050565b600060208201905081810360008301526117c081611784565b9050919050565b7f4e6f7420656e6f7567682062616c616e63652e00000000000000000000000000600082015250565b60006117fd60138361153d565b9150611808826117c7565b602082019050919050565b6000602082019050818103600083015261182c816117f0565b9050919050565b600061183e82611410565b915061184983611410565b92508282101561185c5761185b6116a1565b5b828203905092915050565b600061187282611410565b915061187d83611410565b9250827fffffffffffffffffffffffffffffffffffffffffffffffffffffffffffffffff038211156118b2576118b16116a1565b5b828201905092915050565b60006118c882611410565b915060008214156118dc576118db6116a1565b5b600182039050919050565b7f496e73756666696369656e7420706f6f6c2062616c616e636500000000000000600082015250565b600061191d60198361153d565b9150611928826118e7565b602082019050919050565b6000602082019050818103600083015261194c81611910565b9050919050565b7f4571756976616c656e742076616c7565206f6620746f6b656e73206e6f74207060008201527f726f76696465642e2e2e00000000000000000000000000000000000000000000602082015250565b60006119af602a8361153d565b91506119ba82611953565b604082019050919050565b600060208201905081810360008301526119de816119a2565b9050919050565b7f41737365742076616c7565206c657373207468616e207468726573686f6c642060008201527f666f7220636f6e747269627574696f6e21000000000000000000000000000000602082015250565b6000611a4160318361153d565b9150611a4c826119e5565b604082019050919050565b60006020820190508181036000830152611a7081611a34565b9050919050565b7f556e697377617056324c6962726172793a20494e53554646494349454e545f4960008201527f4e5055545f414d4f554e54000000000000000000000000000000000000000000602082015250565b6000611ad3602b8361153d565b9150611ade82611a77565b604082019050919050565b60006020820190508181036000830152611b0281611ac6565b9050919050565b7f556e697377617056324c6962726172793a20494e53554646494349454e545f4c60008201527f4951554944495459000000000000000000000000000000000000000000000000602082015250565b6000611b6560288361153d565b9150611b7082611b09565b604082019050919050565b60006020820190508181036000830152611b9481611b58565b9050919050565b7f556e697377617056324c6962726172793a20494e53554646494349454e545f4f60008201527f55545055545f414d4f554e540000000000000000000000000000000000000000602082015250565b6000611bf7602c8361153d565b9150611c0282611b9b565b604082019050919050565b60006020820190508181036000830152611c2681611bea565b905091905056fea26469706673582212209294ac559620ab33133c1f1f8fe92073027b684acef6344e9921e260fa26554e64736f6c634300080b0033",
  "immutableReferences": {},
  "source": "// SPDX-License-Identifier: GPL-3.0\r\npragma solidity ^0.8.0;\r\n\r\ncontract AMM {\r\n    \r\n    uint256 totalShare;\r\n    uint256 totalEthToken;//total amount of Eth token in the pool\r\n    uint256 totalTkbToken;//total amount of TkB token in the pool\r\n    uint256 K;//K constant in X*Y = K\r\n    \r\n    uint constant PRECISION = 1_000_000;\r\n\r\n    mapping(address => uint256) share;\r\n    mapping(address => uint256) balanceEth;\r\n    mapping(address => uint256) balanceCAY;\r\n\r\n    //balance and quantity validity check\r\n    modifier validCheck(mapping(address => uint256) storage tokenBalance, uint256 tokenQty) {\r\n        require(tokenQty > 0, \"Amount must more than zero.\");\r\n        require(tokenQty <= tokenBalance[msg.sender], \"Not enough balance.\");\r\n        _;\r\n    }\r\n    \r\n    //no share, cannot withdraw from liquidity pool\r\n    modifier activePool() {\r\n        require(totalShare > 0, \"Empty pool, please add liquidity.\");\r\n        _;\r\n    }\r\n\r\n    //get the liquidity pool total Eth token, TkB token\r\n    function getPoolInfo() external view returns(uint256, uint256) {\r\n        return (totalEthToken, totalTkbToken);\r\n    }\r\n\r\n    //get user balance token in the pool\r\n    function getUserPoolBalance() external view returns (uint256 amountEth, uint amountCAY, uint userShare) {\r\n        amountEth = balanceEth[msg.sender];\r\n        amountCAY = balanceCAY[msg.sender];\r\n        userShare = share[msg.sender];\r\n    }\r\n\r\n    //to get the total Tkb token needed to add into pool\r\n    function getAddPoolTkbRequirement(uint256 ethToken) public view activePool returns(uint256 reqCAYToken) {\r\n        reqCAYToken = ethToken / totalEthToken * totalTkbToken ;\r\n    }\r\n\r\n    //to get the total eth token needed to add into pool\r\n    function getAddPoolEthRequirement(uint256 tkbToken) public view activePool returns(uint256 reqEthToken) {\r\n        reqEthToken = tkbToken / totalTkbToken * totalEthToken ;\r\n    }\r\n\r\n\r\n    //add liquidity into the pool, set K constant if first added, store share % into user\r\n    function addLiquidity(uint256 addEthToken, uint256 addCAYToken) external validCheck (balanceEth, addEthToken) validCheck (balanceCAY, addCAYToken) returns(uint256 _share) {\r\n        if(totalShare == 0) { // Genesis liquidity is issued 100 Shares\r\n            _share = 100 * PRECISION;\r\n        } else{\r\n            uint256 share1 = addEthToken / totalEthToken * totalShare; \r\n            uint256 share2 = addCAYToken / totalTkbToken * totalShare;\r\n            require(share1 == share2, \"Equivalent value of tokens not provided...\");\r\n            _share = share1;\r\n        }\r\n\r\n        require(_share > 0, \"Asset value less than threshold for contribution!\");\r\n        balanceEth[msg.sender] -= addEthToken;\r\n        balanceCAY[msg.sender] -= addCAYToken;\r\n\r\n        totalEthToken += addEthToken;\r\n        totalTkbToken += addCAYToken;\r\n        K = totalEthToken * totalTkbToken;\r\n\r\n        totalShare += _share;\r\n        share[msg.sender] += _share;\r\n    }\r\n\r\n    //get withdraw total tokens\r\n    function getWithdrawToken(uint256 _share) public view activePool returns(uint256 withdrawEth, uint256 withdrawCAY) {\r\n        require(_share <= totalShare, \"Share should be less than or equal to Total Share\");\r\n        withdrawEth = _share / totalShare * totalEthToken;\r\n        withdrawCAY = _share / totalShare * totalTkbToken;\r\n    }\r\n\r\n    //withdraw  tokens from pool and add the tokens back to user\r\n    function withdraw(uint256 _share) external activePool validCheck(share, _share) returns(uint256 withdrawEth, uint256 withdrawTkb) {\r\n        (withdrawEth, withdrawTkb) = getWithdrawToken(_share);\r\n        \r\n        share[msg.sender] -= _share;\r\n        totalShare -= _share;\r\n\r\n        totalEthToken -= withdrawEth;\r\n        totalTkbToken -= withdrawTkb;\r\n        K = totalEthToken * totalTkbToken;\r\n\r\n        balanceEth[msg.sender] += withdrawEth;\r\n        balanceCAY[msg.sender] += withdrawTkb;\r\n    }\r\n\r\n    // Returns the amount of CAY token that the user will get when swapping a exact amount of Eth token\r\n    function getExactEthforCAY(uint256 _amountEth) public view activePool returns(uint256 amountCAY) {\r\n        amountCAY = getAmountOut(_amountEth, totalEthToken, totalTkbToken);\r\n\r\n        // To ensure that Token2's pool is not completely depleted leading to inf:0 ratio\r\n        if(amountCAY == totalTkbToken) amountCAY--;\r\n    }\r\n    \r\n    // Returns the amount of Eth token needed to swap a exact amount of CAY token\r\n    function getEthforExactCAY(uint256 _amountTkB) public view activePool returns(uint256 amountEth) {\r\n        require(_amountTkB < totalTkbToken, \"Insufficient pool balance\");\r\n        amountEth = getAmountIn(_amountTkB, totalEthToken, totalTkbToken);\r\n    }\r\n\r\n    // Swaps Eth token to CAY token using algorithmic price determination\r\n    function swapEthforTkB(uint256 _amountEth) external activePool validCheck(balanceEth, _amountEth) returns(uint256 amountTkb) {\r\n        amountTkb = getExactEthforCAY(_amountEth);\r\n\r\n        balanceEth[msg.sender] -= _amountEth;\r\n        totalEthToken += _amountEth;\r\n        totalTkbToken -= amountTkb;\r\n        balanceCAY[msg.sender] += amountTkb;\r\n    }\r\n\r\n    // Returns the amount of Eth token that the user will get when swapping a exact amount of Tkb token\r\n    function getExactTkbforEth(uint256 _amountCAY) public view activePool returns(uint256 amountEth) {\r\n        amountEth = getAmountOut(_amountCAY, totalTkbToken, totalEthToken);\r\n\r\n        // To ensure that Token1's pool is not completely depleted leading to inf:0 ratio\r\n        if(amountEth == totalEthToken) amountEth--;\r\n    }\r\n    \r\n    // Returns the amount of Tkb token needed to swap a exact amount of Eth token\r\n    function getTkbforExactEth(uint256 _amountEth) public view activePool returns(uint256 amountCAY) {\r\n        require(_amountEth < totalEthToken, \"Insufficient pool balance\");\r\n        amountCAY = getAmountIn(_amountEth, totalTkbToken, totalEthToken);\r\n    }\r\n\r\n    // Swaps TkB token to Eth token using algorithmic price determination\r\n    function swapTkBforEth(uint256 _amountCAY) external activePool validCheck(balanceCAY, _amountCAY) returns(uint256 amountEth) {\r\n        amountEth = getExactTkbforEth(_amountCAY);\r\n\r\n        balanceCAY[msg.sender] -= _amountCAY;\r\n        totalTkbToken += _amountCAY;\r\n        totalEthToken -= amountEth;\r\n        balanceEth[msg.sender] += amountEth;\r\n    }\r\n\r\n    // given an input amount of an asset and pair reserves, returns the maximum output amount of the other asset\r\n    function getAmountOut(uint amountIn, uint reserveIn, uint reserveOut) internal pure returns (uint amountOut) {\r\n        require(amountIn > 0, 'UniswapV2Library: INSUFFICIENT_INPUT_AMOUNT');\r\n        require(reserveIn > 0 && reserveOut > 0, 'UniswapV2Library: INSUFFICIENT_LIQUIDITY');\r\n        uint amountInWithFee = amountIn * 997;\r\n        uint numerator = amountInWithFee * (reserveOut);\r\n        uint denominator = (reserveIn * 1000) + amountInWithFee;\r\n        amountOut = numerator / denominator;\r\n    }\r\n\r\n    // given an output amount of an asset and pair reserves, returns a required input amount of the other asset\r\n    function getAmountIn(uint amountOut, uint reserveIn, uint reserveOut) internal pure returns (uint amountIn) {\r\n        require(amountOut > 0, 'UniswapV2Library: INSUFFICIENT_OUTPUT_AMOUNT');\r\n        require(reserveIn > 0 && reserveOut > 0, 'UniswapV2Library: INSUFFICIENT_LIQUIDITY');\r\n        uint numerator = reserveIn * amountOut * 1000;\r\n        uint denominator = (reserveOut - amountOut) * 997;\r\n        amountIn = (numerator / denominator) + 1;\r\n    }\r\n\r\n\r\n\r\n}",
  "sourcePath": "D:\\WebStorm 2021.2.2\\WebStormProject\\react\\test\\test\\src\\contracts\\Amm.sol",
  "compiler": {
    "name": "solc",
    "version": "0.8.11+commit.d7f03943.Emscripten.clang"
  },
  "schemaVersion": "3.4.4",
  "updatedAt": "2022-04-09T10:04:17.864Z",
  "networkType": "ethereum",
  "devdoc": {
    "kind": "dev",
    "methods": {},
    "version": 1
  },
  "userdoc": {
    "kind": "user",
    "methods": {},
    "version": 1
  }
}