{
  "contractName": "EthSwap",
  "abi": [
    {
      "inputs": [
        {
          "internalType": "contract CAYTOKEN",
          "name": "_cayToken",
          "type": "address"
        },
        {
          "internalType": "contract KENTOKEN",
          "name": "_kenToken",
          "type": "address"
        }
      ],
      "stateMutability": "nonpayable",
      "type": "constructor"
    },
    {
      "anonymous": false,
      "inputs": [
        {
          "indexed": false,
          "internalType": "address",
          "name": "account",
          "type": "address"
        },
        {
          "indexed": false,
          "internalType": "address",
          "name": "token",
          "type": "address"
        },
        {
          "indexed": false,
          "internalType": "uint256",
          "name": "amount",
          "type": "uint256"
        },
        {
          "indexed": false,
          "internalType": "uint256",
          "name": "rate",
          "type": "uint256"
        }
      ],
      "name": "TokensPurchased",
      "type": "event"
    },
    {
      "anonymous": false,
      "inputs": [
        {
          "indexed": false,
          "internalType": "address",
          "name": "account",
          "type": "address"
        },
        {
          "indexed": false,
          "internalType": "address",
          "name": "token",
          "type": "address"
        },
        {
          "indexed": false,
          "internalType": "uint256",
          "name": "amount",
          "type": "uint256"
        },
        {
          "indexed": false,
          "internalType": "uint256",
          "name": "rate",
          "type": "uint256"
        }
      ],
      "name": "TokensSold",
      "type": "event"
    },
    {
      "inputs": [],
      "name": "cayToken",
      "outputs": [
        {
          "internalType": "contract CAYTOKEN",
          "name": "",
          "type": "address"
        }
      ],
      "stateMutability": "view",
      "type": "function",
      "constant": true
    },
    {
      "inputs": [],
      "name": "kenToken",
      "outputs": [
        {
          "internalType": "contract KENTOKEN",
          "name": "",
          "type": "address"
        }
      ],
      "stateMutability": "view",
      "type": "function",
      "constant": true
    },
    {
      "inputs": [],
      "name": "name",
      "outputs": [
        {
          "internalType": "string",
          "name": "",
          "type": "string"
        }
      ],
      "stateMutability": "view",
      "type": "function",
      "constant": true
    },
    {
      "inputs": [],
      "name": "rate",
      "outputs": [
        {
          "internalType": "uint256",
          "name": "",
          "type": "uint256"
        }
      ],
      "stateMutability": "view",
      "type": "function",
      "constant": true
    },
    {
      "inputs": [],
      "name": "buyCAYTokens",
      "outputs": [],
      "stateMutability": "payable",
      "type": "function",
      "payable": true
    },
    {
      "inputs": [
        {
          "internalType": "uint256",
          "name": "_amount",
          "type": "uint256"
        }
      ],
      "name": "sellCAYTokens",
      "outputs": [],
      "stateMutability": "payable",
      "type": "function",
      "payable": true
    },
    {
      "inputs": [
        {
          "internalType": "uint256",
          "name": "_amount",
          "type": "uint256"
        }
      ],
      "name": "sellKENTokens",
      "outputs": [],
      "stateMutability": "payable",
      "type": "function",
      "payable": true
    },
    {
      "inputs": [],
      "name": "buyKENTokens",
      "outputs": [],
      "stateMutability": "payable",
      "type": "function",
      "payable": true
    }
  ],
  "bytecode": "0x60806040526040518060400160405280601881526020017f4574685377617020496e7374616e742045786368616e67650000000000000000815250600090805190602001906200005192919062000114565b5060646003553480156200006457600080fd5b50604051620012703803806200127083398181016040528101906200008a919062000287565b81600160006101000a81548173ffffffffffffffffffffffffffffffffffffffff021916908373ffffffffffffffffffffffffffffffffffffffff16021790555080600260006101000a81548173ffffffffffffffffffffffffffffffffffffffff021916908373ffffffffffffffffffffffffffffffffffffffff160217905550505062000333565b8280546200012290620002fd565b90600052602060002090601f01602090048101928262000146576000855562000192565b82601f106200016157805160ff191683800117855562000192565b8280016001018555821562000192579182015b828111156200019157825182559160200191906001019062000174565b5b509050620001a19190620001a5565b5090565b5b80821115620001c0576000816000905550600101620001a6565b5090565b600080fd5b600073ffffffffffffffffffffffffffffffffffffffff82169050919050565b6000620001f682620001c9565b9050919050565b60006200020a82620001e9565b9050919050565b6200021c81620001fd565b81146200022857600080fd5b50565b6000815190506200023c8162000211565b92915050565b60006200024f82620001e9565b9050919050565b620002618162000242565b81146200026d57600080fd5b50565b600081519050620002818162000256565b92915050565b60008060408385031215620002a157620002a0620001c4565b5b6000620002b1858286016200022b565b9250506020620002c48582860162000270565b9150509250929050565b7f4e487b7100000000000000000000000000000000000000000000000000000000600052602260045260246000fd5b600060028204905060018216806200031657607f821691505b602082108114156200032d576200032c620002ce565b5b50919050565b610f2d80620003436000396000f3fe60806040526004361061007b5760003560e01c8063821056611161004e578063821056611461010b578063a332690d14610115578063acfeec4c14610131578063d65da2211461015c5761007b565b806306fdde03146100805780632c4e722e146100ab5780632ef90900146100d65780638055beb2146100e0575b600080fd5b34801561008c57600080fd5b50610095610178565b6040516100a29190610a9b565b60405180910390f35b3480156100b757600080fd5b506100c0610206565b6040516100cd9190610ad6565b60405180910390f35b6100de61020c565b005b3480156100ec57600080fd5b506100f56103cb565b6040516101029190610b70565b60405180910390f35b6101136103f1565b005b61012f600480360381019061012a9190610bbc565b6105b0565b005b34801561013d57600080fd5b506101466107c6565b6040516101539190610c0a565b60405180910390f35b61017660048036038101906101719190610bbc565b6107ec565b005b6000805461018590610c54565b80601f01602080910402602001604051908101604052809291908181526020018280546101b190610c54565b80156101fe5780601f106101d3576101008083540402835291602001916101fe565b820191906000526020600020905b8154815290600101906020018083116101e157829003601f168201915b505050505081565b60035481565b60006003543461021c9190610cb5565b905080600260009054906101000a900473ffffffffffffffffffffffffffffffffffffffff1673ffffffffffffffffffffffffffffffffffffffff166370a08231306040518263ffffffff1660e01b815260040161027a9190610d30565b602060405180830381865afa158015610297573d6000803e3d6000fd5b505050506040513d601f19601f820116820180604052508101906102bb9190610d60565b10156102c657600080fd5b600260009054906101000a900473ffffffffffffffffffffffffffffffffffffffff1673ffffffffffffffffffffffffffffffffffffffff1663a9059cbb33836040518363ffffffff1660e01b8152600401610323929190610d8d565b6020604051808303816000875af1158015610342573d6000803e3d6000fd5b505050506040513d601f19601f820116820180604052508101906103669190610dee565b507f6faf93231a456e552dbc9961f58d9713ee4f2e69d15f1975b050ef0911053a7b33600260009054906101000a900473ffffffffffffffffffffffffffffffffffffffff16836003546040516103c09493929190610e1b565b60405180910390a150565b600160009054906101000a900473ffffffffffffffffffffffffffffffffffffffff1681565b6000600354346104019190610cb5565b905080600160009054906101000a900473ffffffffffffffffffffffffffffffffffffffff1673ffffffffffffffffffffffffffffffffffffffff166370a08231306040518263ffffffff1660e01b815260040161045f9190610d30565b602060405180830381865afa15801561047c573d6000803e3d6000fd5b505050506040513d601f19601f820116820180604052508101906104a09190610d60565b10156104ab57600080fd5b600160009054906101000a900473ffffffffffffffffffffffffffffffffffffffff1673ffffffffffffffffffffffffffffffffffffffff1663a9059cbb33836040518363ffffffff1660e01b8152600401610508929190610d8d565b6020604051808303816000875af1158015610527573d6000803e3d6000fd5b505050506040513d601f19601f8201168201806040525081019061054b9190610dee565b507f6faf93231a456e552dbc9961f58d9713ee4f2e69d15f1975b050ef0911053a7b33600160009054906101000a900473ffffffffffffffffffffffffffffffffffffffff16836003546040516105a59493929190610e1b565b60405180910390a150565b80600160009054906101000a900473ffffffffffffffffffffffffffffffffffffffff1673ffffffffffffffffffffffffffffffffffffffff166370a08231336040518263ffffffff1660e01b815260040161060c9190610d30565b602060405180830381865afa158015610629573d6000803e3d6000fd5b505050506040513d601f19601f8201168201806040525081019061064d9190610d60565b101561065857600080fd5b6000600354826106689190610e8f565b90508047101561067757600080fd5b600160009054906101000a900473ffffffffffffffffffffffffffffffffffffffff1673ffffffffffffffffffffffffffffffffffffffff166323b872dd3330856040518463ffffffff1660e01b81526004016106d693929190610ec0565b6020604051808303816000875af11580156106f5573d6000803e3d6000fd5b505050506040513d601f19601f820116820180604052508101906107199190610dee565b503373ffffffffffffffffffffffffffffffffffffffff166108fc829081150290604051600060405180830381858888f19350505050158015610760573d6000803e3d6000fd5b507f697c42d55a5e1fed3f464ec6f38b32546a0bd368dc8068b065c67566d73f329033600160009054906101000a900473ffffffffffffffffffffffffffffffffffffffff16846003546040516107ba9493929190610e1b565b60405180910390a15050565b600260009054906101000a900473ffffffffffffffffffffffffffffffffffffffff1681565b80600260009054906101000a900473ffffffffffffffffffffffffffffffffffffffff1673ffffffffffffffffffffffffffffffffffffffff166370a08231336040518263ffffffff1660e01b81526004016108489190610d30565b602060405180830381865afa158015610865573d6000803e3d6000fd5b505050506040513d601f19601f820116820180604052508101906108899190610d60565b101561089457600080fd5b6000600354826108a49190610e8f565b9050804710156108b357600080fd5b600260009054906101000a900473ffffffffffffffffffffffffffffffffffffffff1673ffffffffffffffffffffffffffffffffffffffff166323b872dd3330856040518463ffffffff1660e01b815260040161091293929190610ec0565b6020604051808303816000875af1158015610931573d6000803e3d6000fd5b505050506040513d601f19601f820116820180604052508101906109559190610dee565b503373ffffffffffffffffffffffffffffffffffffffff166108fc829081150290604051600060405180830381858888f1935050505015801561099c573d6000803e3d6000fd5b507f697c42d55a5e1fed3f464ec6f38b32546a0bd368dc8068b065c67566d73f329033600260009054906101000a900473ffffffffffffffffffffffffffffffffffffffff16846003546040516109f69493929190610e1b565b60405180910390a15050565b600081519050919050565b600082825260208201905092915050565b60005b83811015610a3c578082015181840152602081019050610a21565b83811115610a4b576000848401525b50505050565b6000601f19601f8301169050919050565b6000610a6d82610a02565b610a778185610a0d565b9350610a87818560208601610a1e565b610a9081610a51565b840191505092915050565b60006020820190508181036000830152610ab58184610a62565b905092915050565b6000819050919050565b610ad081610abd565b82525050565b6000602082019050610aeb6000830184610ac7565b92915050565b600073ffffffffffffffffffffffffffffffffffffffff82169050919050565b6000819050919050565b6000610b36610b31610b2c84610af1565b610b11565b610af1565b9050919050565b6000610b4882610b1b565b9050919050565b6000610b5a82610b3d565b9050919050565b610b6a81610b4f565b82525050565b6000602082019050610b856000830184610b61565b92915050565b600080fd5b610b9981610abd565b8114610ba457600080fd5b50565b600081359050610bb681610b90565b92915050565b600060208284031215610bd257610bd1610b8b565b5b6000610be084828501610ba7565b91505092915050565b6000610bf482610b3d565b9050919050565b610c0481610be9565b82525050565b6000602082019050610c1f6000830184610bfb565b92915050565b7f4e487b7100000000000000000000000000000000000000000000000000000000600052602260045260246000fd5b60006002820490506001821680610c6c57607f821691505b60208210811415610c8057610c7f610c25565b5b50919050565b7f4e487b7100000000000000000000000000000000000000000000000000000000600052601160045260246000fd5b6000610cc082610abd565b9150610ccb83610abd565b9250817fffffffffffffffffffffffffffffffffffffffffffffffffffffffffffffffff0483118215151615610d0457610d03610c86565b5b828202905092915050565b6000610d1a82610af1565b9050919050565b610d2a81610d0f565b82525050565b6000602082019050610d456000830184610d21565b92915050565b600081519050610d5a81610b90565b92915050565b600060208284031215610d7657610d75610b8b565b5b6000610d8484828501610d4b565b91505092915050565b6000604082019050610da26000830185610d21565b610daf6020830184610ac7565b9392505050565b60008115159050919050565b610dcb81610db6565b8114610dd657600080fd5b50565b600081519050610de881610dc2565b92915050565b600060208284031215610e0457610e03610b8b565b5b6000610e1284828501610dd9565b91505092915050565b6000608082019050610e306000830187610d21565b610e3d6020830186610d21565b610e4a6040830185610ac7565b610e576060830184610ac7565b95945050505050565b7f4e487b7100000000000000000000000000000000000000000000000000000000600052601260045260246000fd5b6000610e9a82610abd565b9150610ea583610abd565b925082610eb557610eb4610e60565b5b828204905092915050565b6000606082019050610ed56000830186610d21565b610ee26020830185610d21565b610eef6040830184610ac7565b94935050505056fea2646970667358221220139e7d3676e4d69e3e6362d3c7e222d195e70d4b9d58c33c65799e01d34178e764736f6c634300080b0033",
  "immutableReferences": {},
  "source": "// SPDX-License-Identifier: MIT\r\npragma solidity ^0.8.0;\r\n\r\nimport \"./CAYTOKEN.sol\";\r\nimport \"./KENTOKEN.sol\";\r\n\r\ncontract EthSwap {\r\n    string public name = \"EthSwap Instant Exchange\";\r\n    CAYTOKEN public cayToken;\r\n    KENTOKEN public kenToken;\r\n    uint public rate = 100;\r\n\r\n    event TokensPurchased(\r\n        address account,\r\n        address token,\r\n        uint amount,\r\n        uint rate\r\n    );\r\n\r\n    event TokensSold(\r\n        address account,\r\n        address token,\r\n        uint amount,\r\n        uint rate\r\n    );\r\n\r\n    constructor(CAYTOKEN _cayToken,KENTOKEN _kenToken){\r\n        cayToken = _cayToken;\r\n        kenToken = _kenToken;\r\n    }\r\n\r\n\r\n    function buyCAYTokens() public payable {\r\n        // Calculate the number of tokens to buy\r\n        uint tokenAmount = msg.value * rate;\r\n\r\n        // Require that EthSwap has enough tokens\r\n        require(cayToken.balanceOf(address(this)) >= tokenAmount);\r\n\r\n        // Transfer tokens to the user\r\n        cayToken.transfer(msg.sender, tokenAmount);\r\n\r\n        // Emit an event\r\n        emit TokensPurchased(msg.sender, address(cayToken), tokenAmount, rate);\r\n    }\r\n\r\n    function sellCAYTokens(uint _amount) public payable{\r\n        // User can't sell more tokens than they have\r\n        require(cayToken.balanceOf(msg.sender) >= _amount);\r\n\r\n        // Calculate the amount of Ether to redeem\r\n        uint etherAmount = _amount / rate;\r\n\r\n        // Require that EthSwap has enough Ether\r\n        require(address(this).balance >= etherAmount);\r\n\r\n        // Perform sale\r\n        cayToken.transferFrom(msg.sender, address(this), _amount);\r\n        payable(msg.sender).transfer(etherAmount);\r\n\r\n        // Emit an event\r\n        emit TokensSold(msg.sender, address(cayToken), _amount, rate);\r\n    }\r\n\r\n\r\n\r\n    function sellKENTokens(uint _amount) public payable{\r\n        // User can't sell more tokens than they have\r\n        require(kenToken.balanceOf(msg.sender) >= _amount);\r\n\r\n        // Calculate the amount of Ether to redeem\r\n        uint etherAmount = _amount / rate;\r\n\r\n        // Require that EthSwap has enough Ether\r\n        require(address(this).balance >= etherAmount);\r\n\r\n        // Perform sale\r\n        kenToken.transferFrom(msg.sender, address(this), _amount);\r\n        payable(msg.sender).transfer(etherAmount);\r\n\r\n        // Emit an event\r\n        emit TokensSold(msg.sender, address(kenToken), _amount, rate);\r\n    }\r\n\r\n    function buyKENTokens() public payable {\r\n        // Calculate the number of tokens to buy\r\n        uint tokenAmount = msg.value * rate;\r\n\r\n        // Require that EthSwap has enough tokens\r\n        require(kenToken.balanceOf(address(this)) >= tokenAmount);\r\n\r\n        // Transfer tokens to the user\r\n        kenToken.transfer(msg.sender, tokenAmount);\r\n\r\n        // Emit an event\r\n        emit TokensPurchased(msg.sender, address(kenToken), tokenAmount, rate);\r\n    }\r\n\r\n\r\n}\r\n",
  "sourcePath": "C:\\Users\\Acer\\Desktop\\sassy\\refer2\\test\\src\\contracts\\Swap.sol",
  "compiler": {
    "name": "solc",
    "version": "0.8.11+commit.d7f03943.Emscripten.clang"
  },
  "schemaVersion": "3.4.6",
  "updatedAt": "2022-04-10T12:40:23.742Z",
  "networkType": "ethereum",
  "devdoc": {
    "kind": "dev",
    "methods": {},
    "version": 1
  },
  "userdoc": {
    "kind": "user",
    "methods": {},
    "version": 1
  }
}